:100000000C94B9030C94EA030C94EA030C94EA03ED
:100010000C94EA030C94EA030C94EA030C94EA03AC
:100020000C94EA030C94EA030C94EA030C94EA039C
:100030000C94EA030C943E230C94EA030C94EA0318
:100040000C94EA030C94EA030C94EA030C94EA037C
:100050000C94EA030C94EA030C94EA030C94FE2338
:100060000C94EA030C94C8230C949E230C94EA038A
:100070000C94EA030C94EA030C94EA030C94EA034C
:100080000C94EA030C94EA030C94EA030C94EA033C
:100090000C94EA030C94EA030C94EA030C94EA032C
:1000A0000C94EA030C94EA030C94EA030C94EA031C
:1000B0000C94EA030C94EA030C94EA030C94EA030C
:1000C0000C94EA030C94EA030C94EA030C94EA03FC
:1000D0000C94EA030C94EA030C94EA030C94EA03EC
:1000E0000C94EA03084AD73B3BCE016E84BCBFFDAB
:1000F000C12F3D6C74319ABD56833DDA3D00C77FF8
:1001000011BED9E4BB4C3E916BAAAABE0000008090
:100110003F05A84CCDB2D44EB93836A9020C50B91F
:10012000918688083CA6AAAA2ABE000000803F0744
:10013000634236B79BD8A71A39685618AEBAAB5582
:100140008C1D3CB7CC5763BD6DEDFD753EF6177247
:1001500031BF000000803F08000000BE9224491219
:100160003EABAAAA2ABECDCCCC4C3E00000080BE3D
:10017000ABAAAAAA3E00000000BF000000803F001A
:1001800000000000084178D3BB4387D1133D190E0E
:100190003CC3BD4282AD2B3E68EC8276BED98FE176
:1001A000A93E4C80EFFFBE01C4FF7F3F000000006E
:1001B00000000C94A2290C942D1E0C94821E0C9409
:1001C0003C040C94442F0C9482040C94CF040C94A3
:1001D00079050C9471050C94091E0C943A2A0C9420
:1001E000F01D0C9450050C9463050C9483050C943D
:1001F0003B2F0C9467050C946E1E0C94F51D0C940B
:100200004A2F0C94E32A0C9428040C94472F0C9446
:100210004C050C94641E0C9444050C94262F0C94ED
:10022000EC030C942C2F0C94232F0C94412F0C9442
:10023000D5060C949E270C94FF1D0C94E81D0C947D
:100240003E2F0C94292F0C94371E0C9475050C949A
:100250004D2F0C9453050C946B050C944A040C948C
:10026000F9080C947E050C94382D0C94131E0C94F4
:100270005A1E0C9462290C941B1E0C9459050C9464
:10028000D4060C94D7280C94322F0C94832A0C9407
:10029000501E0C944B290C94231E0C94052A0C948C
:1002A000781E0C9419040C943E050C94A5290C940A
:1002B000502F0C942F2F0C947F050C94BC2A0C9477
:1002C00089290C9424290C94352F0C94382F0C94E4
:1002D000411E0C945D050C9448240C944805004084
:1002E0007A10F35A00A0724E18090010A5D4E80045
:1002F00000E87648170000E40B54020000CA9A3B5D
:10030000000000E1F50500008096980000004042E2
:100310000F000000A0860100000010270000000070
:10032000E803000000006400000000000A00000074
:1003300000000100000000002C76D888DC674F0820
:1003400023DFC1DFAE59E1B1B796E5E3E453C63A26
:10035000E651997696E8E6C28426EB898C9B62ED9D
:10036000407C6FFCEFBC9C9F40F2BAA56FA5F49057
:10037000055A2AF75C936B6CF9676DC11BFCE0E4CE
:100380000D47FEF520E6B500D0ED902E0300943524
:1003900077050080841E080000204E0A000000C877
:1003A0000C333333330F986E12831141EF8D2114C8
:1003B000893BE65516CFFEE6DB18D1844B381BF798
:1003C0007C1D901DA4BBE424203284725E22810037
:1003D000C9F124ECA1E53D270000210024002700FD
:1003E0002A002D0030003300010100000401070144
:1003F0000A01000020002300260029002C002F0005
:100400003200000100000301060109013F3E002007
:1004100043656E746572003F3E004D6F6465203425
:10042000353020646567726565004D6F6465203303
:10043000363020646567726565003F3E003F3E00D0
:1004400053706565642058310053706565642058A9
:1004500032005370656564205833005370656564DD
:100460002058340057726F746520746F206D656D6D
:100470006F727900526F7461746520746F206675B5
:100480006C6C2043435720616E642073656E64205A
:100490006B65797374726F6B652E2E2E00526F74BC
:1004A00061746520746F2066756C6C204357206101
:1004B0006E642073656E64206B65797374726F6B04
:1004C000652E2E2E00622066726565005741524EE1
:1004D000494E473A204C6F77206D656D6F72793ABF
:1004E00020004449525459004E4F545F0009434F75
:1004F0004E4649475F0020204F66667365743A0098
:10050000204F5645524C41500020205261775F41A8
:100510007A5F52616E67653A002020526F74617491
:10052000696F6E5F4361706162696C6974793A00EA
:10053000202053746172743A0001021020200808D0
:100540001020401020408002010201080402010135
:10055000020408102040808040201008040201801E
:100560000402018040201008040201080402010175
:10057000020408102040800102040810204080007E
:10058000002200250028002B002E0031003400023C
:10059000010000050108010B010505050507050817
:1005A000080808020202020A0A08080404040401F6
:1005B0000101010101010103030303030303030418
:1005C0000707070C0C0C0C0C0C0C0C0202020206A8
:1005D000060606060606060B0B0B0B0B0B0B0B0297
:1005E00000000A0B02090C0D0E08070304010000AD
:1005F00000000000000000000000000000000000FB
:1006000000000000000000000000000012111000B7
:1006100000000000000000000000000000000000DA
:10062000000000000000417A696D7574682044691B
:1006300073706C6179204D6F64653A205261772048
:100640004465677265657300417A696D75746820E9
:10065000446973706C6179204D6F64653A202B4F4B
:100660007665726C617000417A696D7574682044BA
:100670006973706C6179204D6F64653A204E6F72BA
:100680006D616C00436C65617265642063616C69C7
:1006900062726174696F6E206F6666736574730051
:1006A00053657474696E677320736176656420693D
:1006B0006E20454550524F4D2C2072657365747401
:1006C000696E6720756E697420696E2035207365C8
:1006D000636F6E64732E2E2E00496E697469616CAF
:1006E000697A656420656570726F6D2C2072657320
:1006F000657474696E6720756E697420696E203543
:10070000207365636F6E64732E2E2E006973200054
:1007100073657420746F2000417A696D7574682068
:10072000726F746174696F6E206361706162696C6D
:1007300069747920006973200073657420746F20D8
:1007400000417A696D757468207374617274696EA2
:100750006720706F696E742000417A696D757468E6
:100760002063616C6962726174656420746F20003B
:10077000482411241FBECFEFD1E2DEBFCDBF00E081
:100780000CBF27E0AEE4B5E001C01D92AF32B20766
:10079000E1F715E0A0E0B2E0E4EEF6E700E00BBF21
:1007A00002C007900D92AE34B107D9F713E0C9EB40
:1007B000D3E000E006C021970109802FFE010E94CE
:1007C0003737C83BD10780E00807A9F70E94872583
:1007D0000C94703B0C940000AF92BF92CF92DF92CA
:1007E000EF92FF920F931F93CF93DF936C017B01E6
:1007F0008B01040F151FEB015E01AE18BF08C01777
:10080000D10759F06991D601ED91FC910190F081E9
:10081000E02DC6011995892B79F7C501DF91CF919C
:100820001F910F91FF90EF90DF90CF90BF90AF900E
:100830000895FC01538D448D252F30E0842F90E0E6
:10084000821B930B541710F0CF96089501970895CB
:10085000FC01918D828D981761F0A28DAE0FBF2F94
:10086000B11D5D968C91928D9F5F9F73928F90E0EA
:1008700008958FEF9FEF0895FC01918D828D981759
:1008800031F0828DE80FF11D858D90E008958FEF96
:100890009FEF0895FC01918D228D892F90E0805C5F
:1008A0009F4F821B91098F739927089580E396E0EB
:1008B0000E944A0421E0892B09F420E0822F089548
:1008C000FC01A48DA80FB92FB11DA35ABF4F2C91C5
:1008D000848D90E001968F739927848FA689B789BC
:1008E0002C93A089B1898C91837080648C93938DB3
:1008F000848D981306C00288F389E02D80818F7D56
:1009000080830895EF92FF920F931F93CF93DF930D
:10091000EC0181E0888F9B8D8C8D98131AC0E8893B
:10092000F989808185FF15C09FB7F894EE89FF890A
:100930006083E889F98980818370806480839FBFA8
:1009400081E090E0DF91CF911F910F91FF90EF90A8
:100950000895F62E0B8D10E00F5F1F4F0F731127B8
:10096000E02E8C8D8E110CC00FB607FCFACFE889F3
:10097000F989808185FFF5CFCE010E946004F1CF17
:10098000EB8DEC0FFD2FF11DE35AFF4FF0829FB767
:10099000F8940B8FEA89FB8980818062CFCFCF9357
:1009A000DF93EC01888D8823B9F0AA89BB89E88997
:1009B000F9898C9185FD03C0808186FD0DC00FB63D
:1009C00007FCF7CF8C9185FFF2CF808185FFEDCFBB
:1009D000CE010E946004E9CFDF91CF91089580E0BD
:1009E00090E0892B29F00E94560481110E9400009A
:1009F00080E090E0892B49F080E090E0892B29F09D
:100A00000E94000081110E94000080E090E0892B8C
:100A100049F080E090E0892B29F00E9400008111CC
:100A20000E94000080E090E0892B49F080E090E097
:100A3000892B29F00E94000081110C940000089578
:100A40008150823108F05AC0E82FF0E08827E45D39
:100A5000FA4F8F4F0C9437374C0550053E0544052F
:100A600048057E05530559055D05630567056B055A
:100A7000710575057E0579057F05830580918000E8
:100A80008F77809380000895809180008F7DF9CFCB
:100A900080918000877FF5CF84B58F7784BD0895DE
:100AA00084B58F7DFBCF8091B0008F778093B000AD
:100AB00008958091B0008F7DF9CF809190008F775D
:100AC000809390000895809190008F7DF9CF809160
:100AD0009000877FF5CF8091A0008F778093A00052
:100AE00008958091A0008F7DF9CF8091A000877F2D
:100AF000F5CF809120018F77809320010895809118
:100B000020018F7DF9CF80912001877FF5CFCF9392
:100B1000DF93282F30E0F901E052FA4F8491F90178
:100B2000E75CFA4FD491F901E756FA4FC491CC2310
:100B3000A1F081110E942005EC2FF0E0EE0FFF1FC5
:100B4000EE50FC4FA591B491EC91ED2381E090E043
:100B500009F480E0DF91CF91089580E090E0FACF32
:100B60001F93CF93DF93282F30E0F901E052FA4F23
:100B70008491F901E75CFA4FD491F901E756FA4FF5
:100B8000C491CC23A9F0162F81110E942005EC2FCF
:100B9000F0E0EE0FFF1FE158FA4FA591B4918FB727
:100BA000F894EC91111108C0D095DE23DC938FBF2F
:100BB000DF91CF911F910895DE2BF8CF9091000225
:100BC00089130DC0EFEDF5E0E4919FEF90930002E3
:100BD000E230E1F038F4EE2381F0E13089F060E0BA
:100BE0000C94B005E43049F110F1E530C1F7909173
:100BF00073009D7F90937300F2CF10926E00EFCF41
:100C000090916F009D7F90936F00E9CF909170005D
:100C10009D7F9093700091E09093B0009091B1000F
:100C2000987F94609093B1001092B300D8CF9091C8
:100C300071009D7F90937100D2CF909172009D7F43
:100C400090937200CCCFCF93DF9390E0FC01E75CF0
:100C5000FA4F249187569A4FFC0184918823D1F052
:100C600090E0880F991FFC01E852FC4FA591B491C8
:100C7000FC01E158FA4FC591D49161110EC09FB7A4
:100C8000F8948C91E22FE0958E238C932881E223B7
:100C9000E8839FBFDF91CF9108958FB7F894EC91CF
:100CA000E22BEC938FBFF6CF863308F0865320916A
:100CB0007B00982F9870277F922B90937B008770F2
:100CC000806480937C0080917A00806480937A00B5
:100CD00080917A0086FDFCCF809178009091790018
:100CE00008953FB7F8948091630590916405A091B1
:100CF0006505B091660526B5A89B05C02F3F19F084
:100D00000196A11DB11D3FBFBA2FA92F982F88278B
:100D1000BC01CD01620F711D811D911D42E0660F66
:100D2000771F881F991F4A95D1F708958F929F9238
:100D3000AF92BF92CF92DF92EF92FF924B015C0194
:100D40000E9471066B017C010E9471066C197D097D
:100D50008E099F09683E734081059105A8F321E043
:100D6000821A9108A108B10888EEC80E83E0D81E47
:100D7000E11CF11C81149104A104B10429F7FF9036
:100D8000EF90DF90CF90BF90AF909F908F9008959D
:100D90002FB7F89460915F057091600580916105AF
:100DA000909162052FBF0895089590E080E0089526
:100DB000CF93DF93EC01FE016491662389F080916B
:100DC0002F0680FF0BC080912D0690912E06DC012E
:100DD000ED91FC910190F081E02D19952196EBCFDA
:100DE000DF91CF91089560E086E00E94B00561E058
:100DF00087E00C94B0054F925F926F927F928F9232
:100E00009F92AF92BF92CF92DF92EF92FF92CF93D9
:100E1000DF93C82F0E94C806C0904E05D0904F05A2
:100E2000E0905005F09051056C197D098E099F09DD
:100E3000653671058105910518F4CC2309F4CDC000
:100E400086E30E945406EC019093E5058093E40547
:100E5000C0901A06D0901B060D2C000CEE08FF085F
:100E6000C701B6010E9420324B015C016091FA0576
:100E70007091FB05072E000C880B990B0E94203205
:100E80002B013C0160911C0670911D0680911E068D
:100E900090911F066C0D7D1D8E1D9F1D0E9420329E
:100EA000A50194010E948F336B017C01BE01DD0F0F
:100EB000880B990B0E942032A30192010E948F336C
:100EC0009B01AC01C701B6010E947F326B017C011E
:100ED0006091FC057091FD05072E000C880B990BA5
:100EE0000E942032A30192010E948F339B01AC012A
:100EF000C701B6010E947334A50194010E9490338A
:100F00004B015C018092F3059092F405A092F505E7
:100F1000B092F605C0901206D0901306E090140629
:100F2000F090150620E030E0A901C701B6010E944B
:100F3000193287FF12C0A7019601C701B6010E94AE
:100F40009033A50194010E9490336093F305709350
:100F5000F4058093F5059093F605C090F305D090C5
:100F6000F405E090F505F090F60520E030E044EB64
:100F700053E4C701B6010E94813587FD3DC020E0E2
:100F800030E044EB53E4C701B6010E9473340E9481
:100F9000E534072E000C880B990B0E94203220E0CC
:100FA00030E044EB53E40E947F329B01AC01C70167
:100FB000B6010E948F336093ED057093EE05809328
:100FC000EF059093F0050E94C80660934E0570935C
:100FD0004F058093500590935105DF91CF91FF907D
:100FE000EF90DF90CF90BF90AF909F908F907F90C9
:100FF0006F905F904F90089520E030E0A901C70105
:10100000B6010E94193287FF09C020E030E044EBAE
:1010100053E4C701B6010E949033CDCFC092ED05D5
:10102000D092EE05E092EF05F092F005CCCF68EC9F
:1010300070E080E090E00E94960680912D069091ED
:101040002E06DC01ED91FC910084F185E02D1995CF
:10105000892B71F080912D0690912E06DC01ED9187
:10106000FC910284F385E02D199580936A05E5CF04
:10107000089580912D0690912E06DC01ED91FC9152
:101080000084F185E02D1995892B99F380912D0627
:1010900090912E06DC01ED91FC910084F185E02D0C
:1010A00019951816190674F480912D0690912E0644
:1010B000DC01ED91FC910284F385E02D199580937C
:1010C0006A05E4CF0895CF93DF93EC0160E08E8151
:1010D0000E94B00561E08E810E94B00560E08E81C3
:1010E0000E94B0058BE891E00197F1F7DF91CF9175
:1010F0000895CF92DF92EF92FF920F931F93CF93B9
:10110000DF936C017C0187E0E80EF11CD0E0C0E0C9
:10111000062F10E0B8010C2E02C0759567950A9451
:10112000E2F76170F70181917F010E94B00521967D
:10113000C430D10579F7C601DF91CF911F910F918E
:10114000FF90EF90DF90CF900C946308CF92DF92E6
:10115000EF92FF920F931F93CF93DF93EC01F62E44
:10116000642F8C810E94B0058D818F3F19F060E063
:101170000E94B0050F2D10E08F8584FF25C06E0101
:1011800087E0C80ED11CF12CE12CB8010E2C02C056
:10119000759567950A94E2F76170F60181916F0188
:1011A0000E94B005FFEFEF1AFF0A88E0E816F1048D
:1011B00061F7CE01DF91CF911F910F91FF90EF90DA
:1011C000DF90CF900C946308B80184E07595679523
:1011D0008A95E1F7CE010E9479086F2DCE01DF914B
:1011E000CF911F910F91FF90EF90DF90CF900C94D3
:1011F000790841E00E94A60881E090E008954F92AE
:101200005F926F927F928F929F92AF92BF92CF9296
:10121000DF92EF92FF92CF938091E6058F3079F4C1
:1012200080916D0580936C0561E086E00E94B005B9
:1012300060E087E00E94B00583E08093E60580913E
:10124000E605803149F480916D0580936C050E941C
:10125000F30684E08093E6058091E605873009F582
:10126000C1E0C0936C0561E086E00E94B00560E0DB
:1012700087E00E94B0050E94C80660935A057093EB
:101280005B0580935C0590935D0510925605109266
:101290005705109258051092590510925505C093A4
:1012A000E6058091E6058830E1F481E080936C05E5
:1012B0000E94F3060E94C80660935A0570935B056E
:1012C00080935C0590935D0510925605109257052A
:1012D00010925805109259051092550582E080939E
:1012E000E6058091E6058930A1F4109254050E942C
:1012F000C8060E94C80660935605709357058093F0
:1013000058059093590587EC809353058BE08093A3
:10131000E6058091E6058A30A1F4109254050E94FA
:10132000C8060E94C80660935605709357058093BF
:1013300058059093590587EC809353058CE0809372
:10134000E6058091E6058D30A9F481E0809354058F
:101350000E94C8060E94C806609356057093570500
:10136000809358059093590587EC809353058CE042
:101370008093E6058091E6058E30A9F481E08093A4
:1013800054050E94C8060E94C806609356057093D3
:101390005705809358059093590587EC8093530522
:1013A0008BE08093E605C091E6058FEF8C0F8230CD
:1013B000F0F40E94C806C0905A05D0905B05E090FA
:1013C0005C05F0905D056C197D098E099F09603DF3
:1013D00077408105910508F4D8C083E0C13009F059
:1013E00084E08093E60580916D0580936C05C09143
:1013F000E60585EF8C0F823008F065C00E94C806B4
:10140000C0905605D0905705E0905805F0905905CA
:101410006C197D098E099F096A3071058105910556
:1014200008F451C0F090530560916C0570E090E0B5
:1014300080E00E9420324B015C016F2D70E090E053
:1014400080E00E941E3220E030E048E453E40E9435
:1014500073349B01AC01C501B4010E947F320E942C
:10146000E53460936C050E94C8066093560570933E
:1014700057058093580590935905FF2019F0FA9469
:10148000F09253058091530581111DC060E086E004
:101490000E94B00560E087E00E94B005809154058D
:1014A000882309F4C1C0CB3029F484E08093E60599
:1014B000109254058091E6058C3029F483E08093E6
:1014C000E60510925405C091E6058BEF8C0F823033
:1014D00008F4AFC0CC2309F44AC08091E7058330FB
:1014E00009F045C0C0907205D0907305E090740576
:1014F000F09075054090F3055090F4056090F50567
:101500007090F605A7019601C301B2010E948F33C6
:101510004B015C018C2F8D7F813019F0C53009F0B3
:1015200041C120E030E0A901C501B4010E9481352C
:1015300018160CF0D8C020E030E040E450E4C501BB
:10154000B4010E94193287FDD9C0A3019201C701DD
:10155000B6010E94193287FF0AC020E030E040E067
:1015600051E4C501B4010E94193287FDC7C0CF9173
:10157000FF90EF90DF90CF90BF90AF909F908F90B3
:101580007F906F905F904F9008950E94C806C09022
:101590005605D0905705E0905805F09059056C1904
:1015A0007D098E099F09653671058105910508F44D
:1015B0001ECF60916D05623008F419CFC0915505BA
:1015C0006150770B072E000C880B990B0E9420327C
:1015D0006B017C016C2F70E090E080E00E941E3275
:1015E00020E030E048E951E40E9473349B01AC01F3
:1015F000C701B6010E947F3220E030E040E85FE39F
:101600000E9490330E94EC3460936C050E94C806DF
:10161000609356057093570580935805909359052C
:10162000CF5FC0935505E3CE1092E6051092E70513
:101630004ACF2091F3053091F4054091F505509182
:10164000F605609172057091730580917405909113
:1016500075050E948F332B013C0120E030E0A90189
:101660000E948135181624F077FA709477F87094F8
:10167000F09053056F2D70E090E080E00E941E32E4
:1016800020E030E048E453E40E9473344B015C01F5
:1016900020E030E040E251E40E947F32A301920159
:1016A0000E94813587FD16CF609152056451770BFA
:1016B000072E000C880B990B0E942032A501940183
:1016C0000E947F3220E030E040EA51E40E949033F3
:1016D0000E94EC3460936C05FF2009F4FBCEFA9471
:1016E000F0925305FACE20E030E040E450ECC50122
:1016F000B4010E94813518160CF027CF62E370E028
:1017000080E090E00E94960680E00E94FB064090F8
:10171000F3055090F4056090F5057090F605A7016B
:101720009601C301B2010E948F334B015C0120E09E
:1017300030E0A9010E9481351816BCF420E030E0A9
:1017400040E450E4C501B4010E94193287FF17C07C
:1017500060E086E00E94B00560E087E00E94B0058E
:101760001092E6051092E70502CF20E030E040E459
:1017700050ECC501B4010E94813518164CF3A30149
:101780009201C701B6010E94193287FFF0CE20E016
:1017900030E040E051E4C501B4010E94193287FDF8
:1017A000D7CFE5CE20E030E0A901C501B4010E9409
:1017B0008135181614F520E030E040E450E4C5010E
:1017C000B4010E94193287FD22C0A3019201C70112
:1017D000B6010E94813518160CF0C9CEA301920102
:1017E000C701B6010E948F3320E030E040E051E4B1
:1017F0000E94193287FFBBCE0AC020E030E040E4EF
:1018000050ECC501B4010E9481351816F4F662E36C
:1018100070E080E090E00E94960680E00E94FB0667
:101820008090F3059090F405A090F505B090F60532
:10183000A7019601C501B4010E948F332B013C0121
:1018400020E030E0A9010E9481351816F4F420E070
:1018500030E040E450E4C301B2010E94193287FD38
:1018600077CFA5019401C701B6010E9481351816F2
:101870000CF07DCEA5019401C701B6010E948F3303
:1018800020E030E040E051E488CF20E030E040E468
:1018900050ECC301B2010E94813518160CF458CFE8
:1018A000E0CF2F923F924F925F926F927F928F92F2
:1018B0009F92AF92BF92CF92DF92EF92FF920F93DF
:1018C0001F93CF93DF9300D0CDB7DEB79B838A837E
:1018D0001B018A017C016C0126E0C20ED11CF701BC
:1018E00081917F01082E000C990B0E948038F7012E
:1018F00031978083CE14DF0491F7EA81FB818481E4
:101900008154883120F485818154883128F08DE418
:10191000EA81FB8184838583EA81FB818181082EB2
:10192000000C990B815491092AE0289FB001299F4E
:10193000700D1124072E000C880B990B0E94203289
:101940004B015C01EA81FB8163816053698365819E
:10195000062E000C770B61547109072E000C880BC2
:10196000990B0E9420322BEA3AEA4AE25DE30E9498
:101970007F322BEA3AEA4AEA5CE30E9490336B0139
:101980007C01EA81FB818081082E000C990B815437
:10199000910924E1289FB001299F700D1124072E81
:1019A000000C880B990B0E9420322B013C01EA812C
:1019B000FB816281660F605670E090E080E00E94DB
:1019C00020329B01AC01C301B2010E9490332B0174
:1019D0003C01EA81FB816481062E000C770B615487
:1019E0007109072E000C880B990B0E9420322BEAFC
:1019F0003AEA4AEA5DE30E947F322BEA3AEA4AE297
:101A00005DE30E9490339B01AC01C301B2010E94CF
:101A1000903320E030E044E353E40E948F33F80138
:101A20006083718382839383F9816F2F70E090E0EC
:101A300080E00E942032A50194010E949033A7010A
:101A400096010E94903320E030E044EB52E40E9483
:101A50008F33F10160837183828393830F900F90A2
:101A60000F90DF91CF911F910F91FF90EF90DF903A
:101A7000CF90BF90AF909F908F907F906F905F902E
:101A80004F903F902F900895EF92FF920F931F93E6
:101A9000CF93DF9300D01F92CDB7DEB780E396E0FF
:101AA0000E94280480E396E00E9428048E010F5FC4
:101AB0001F4F78018A3341F0F80181938F0180E351
:101AC00096E00E942804F6CFC7010E94902F182F9D
:101AD00080E396E00E9428048053990B82309105A0
:101AE00020F4682F812F0E94B00580E396E00E94C9
:101AF00028048A3011F08D30C1F780E396E00E940F
:101B00003C048A3021F480E396E00E9428040F9080
:101B10000F900F900F90DF91CF911F910F91FF9039
:101B2000EF900895FB0101900020E9F73197AF0194
:101B3000461B570BDC01ED91FC910280F381E02DF7
:101B40001994EF92FF920F931F93CF93DF938C0121
:101B50007B01D0E0C0E0F701EC0FFD1F649166232C
:101B600061F0D801ED91FC910190F081E02DC80168
:101B70001995892B11F02196EECF6DE272E0C80124
:101B80000E94920D8C0F9D1FDF91CF911F910F919D
:101B9000FF90EF900895CF93DF93EC01FE016491E5
:101BA00080912D0690912E06662369F020912F06D4
:101BB00020FF07C0DC01ED91FC910190F081E02D48
:101BC00019952196EBCF6DE272E0DF91CF910C94E5
:101BD000920D8F929F92AF92BF92EF92FF920F93CE
:101BE0001F93CF93DF93CDB7DEB7A1970FB6F894CD
:101BF000DEBF0FBECDBF7C01FA01CB0119A222309E
:101C000008F42AE08E010F5D1F4F822E912CB12C1B
:101C1000A12CBF01A50194010E945333F901CA010F
:101C20006A300CF5605DD8016E938D01232B242B57
:101C3000252B79F790E080E0109721F0BD01C701D6
:101C40000E94920DA1960FB6F894DEBF0FBECDBFD5
:101C5000DF91CF911F910F91FF90EF90BF90AF90C8
:101C60009F908F900895695CDECFCF92DF92EF92C4
:101C7000FF92CF93DF9320912F0620FF26C0C091C3
:101C80002D06D0912E066C01990FEE08FF082AE070
:101C9000B701A601F7FE10C0E881F9810190F0813B
:101CA000E02D6DE2CE01199544275527BA014C1954
:101CB0005D096E097F092AE0CE01DF91CF91FF9087
:101CC000EF90DF90CF900C94E90DDF91CF91FF90D2
:101CD000EF90DF90CF9008950F931F93CF93DF93F2
:101CE000EC010E94920D8C016DE272E0CE010E9427
:101CF000920D800F911FDF91CF911F910F91089549
:101D000020912F0620FF07C0BC0180912D069091E5
:101D10002E060C946C0E08950C94920D20912F06B3
:101D200020FF07C0BC0180912D0690912E060C94D7
:101D30008C0E08950F931F93CF93DF93CDB7DEB72B
:101D400060970FB6F894DEBF0FBECDBF1A8219821E
:101D5000FE0133962EE0DF011D922A95E9F78E01F0
:101D60000F5F1F4F20E040E00E94722F80912F06EE
:101D700080FF07C0B80180912D0690912E060E9429
:101D80008C0E60960FB6F894DEBF0FBECDBFDF910C
:101D9000CF911F910F9108954F925F926F927F9212
:101DA0008F929F92AF92BF92CF92DF92EF92FF926B
:101DB0000F931F93CF93DF93CDB7DEB764970FB622
:101DC000F894DEBF0FBECDBF29013A01E982FA8245
:101DD0000B831C8325E33AEF4EE85CE30E947F32DD
:101DE0006D837E838F83988725E33AEF4EE85CE32B
:101DF000C801B7010E947F3269877A878B879C87E9
:101E0000A3019201C601B5010E948F3325E33AEF89
:101E10004EE85CE30E947F322B013C010E94DE35DC
:101E20006D877E878F87988B69857A858B859C8562
:101E30000E946E3469837A838B839C836D817E815B
:101E40008F8198850E946E34698B7A8B8B8B9C8BEB
:101E500069857A858B859C850E94DE354B015C0106
:101E60006D817E818F8198850E94DE356D837E83B2
:101E70008F839887C301B2010E946E342B013C010D
:101E8000A501940169897A898B899C890E947F3296
:101E90006B017C012D813E814F81588569817A815A
:101EA0008B819C810E947F32A30192010E947F322C
:101EB0009B01AC01C701B6010E948F336B017C010D
:101EC00029813A814B815C816D857E858F859889DA
:101ED0000E947F32A70196010E940F3421EE3EE25C
:101EE00045E652E40E947F320E94E534CB018859D6
:101EF0009E4F68E671E00E940437BC01990F880B81
:101F0000990B0E94203264960FB6F894DEBF0FBE84
:101F1000CDBFDF91CF911F910F91FF90EF90DF9098
:101F2000CF90BF90AF909F908F907F906F905F9079
:101F30004F9008950F931F93CF93DF938BE7809378
:101F4000F7051092F80507EF15E0D0E0C0E0F801C2
:101F500061918F01CE010E9445332196C633D10590
:101F6000B1F71092F205DF91CF911F910F91089573
:101F7000E7EFF5E021E030E0348323838FEF93E057
:101F80009683858330872783928781878091F305A5
:101F90009091F405A091F505B091F605838794879B
:101FA000A587B687138A148A158A168A178A108E0F
:101FB000118E128E138E148E158E168E178E10A201
:101FC00011A212A284EB90E094A383A382EC91E08F
:101FD000A0E0B0E085A396A3A7A3B0A711A612A680
:101FE00013A614A615A616A610AA17A611AA178638
:101FF000108A118A128A0C949A0F2F923F924F9254
:102000005F926F927F928F929F92AF92BF92CF9288
:10201000DF92EF92FF920F931F93CF93DF93CDB791
:10202000DEB7A8970FB6F894DEBF0FBECDBF9E8F68
:102030008D8F4B016BEB73E0C4010E9493381A82C1
:102040001982FE01339682E1DF011D928A95E9F73C
:102050008091B305893409F4E4C0A0F5813409F412
:102060001CC100F58B3209F4EBC28F3309F407C3AE
:1020700080E0A8960FB6F894DEBF0FBECDBFDF910B
:10208000CF911F910F91FF90EF90DF90CF90BF9075
:10209000AF909F908F907F906F905F904F903F9008
:1020A0002F900895843409F460C2853409F70E94A2
:1020B000B80F69ED76E0C4010E94B92F81E08093EA
:1020C000F105D6CF8C3409F48BC2D8F48A3409F4E4
:1020D0006CC08B3469F6ED8DFE8D329709F02AC203
:1020E00010912006123008F03AC26AE472E0C4018E
:1020F0000E94933860E372E0111193C16AE372E0C9
:1021000090C1813509F467C2883509F0B1CF80915B
:10211000B40590E00E948038C09709F08EC26091AB
:102120001A0670911B06072E000C880B990B0E9453
:1021300020322B013C01C0901206D0901306E09093
:102140001406F090150620E030E0A901C701B601A1
:102150000E948135181624F0F7FAF094F7F8F094FD
:10216000A7019601C301B2010E948F330E94E5349A
:1021700070931B0660931A061092120610921306B3
:102180001092140610921506109216061092170659
:10219000109218061092190681E08093F20564E807
:1021A00076E0C4010E94B92F63CF04EB15E0B12C97
:1021B000C12CD12C7601FAE0AF2EC801825B95408C
:1021C0002D8D3E8D821793070CF087C1D8016D913C
:1021D0008D016E3209F47EC16053770B072E000C1F
:1021E000880B990B0E9420322B013C01BB2009F483
:1021F00062C16B2D70E090E080E00E941E329B0176
:10220000AC01C301B2010E9473349B01AC01C70150
:10221000B6010E9490336B017C01BA9CB02C112452
:10222000CCCF04EB15E0B12CC12CD12C7601EAE027
:10223000AE2EC801825B95402D8D3E8D821793078F
:102240000CF005C1D8016D918D016E3209F4FCC00E
:102250006053770B072E000C880B990B0E942032DD
:102260002B013C01BB2009F4E0C06B2D70E090E035
:1022700080E00E941E329B01AC01C301B2010E94AA
:1022800073349B01AC01C701B6010E9490336B010E
:102290007C01BA9CB02C1124CCCF0D8D1E8D015029
:1022A0001109ED8DFE8DEE54FA4F5F01312C412C5A
:1022B000512C32014394C12CD12C760102301105EE
:1022C00014F1F501A2915F01AE32D9F0A053BB0B1E
:1022D000A30192010E943F370E9420329B01AC0172
:1022E000C701B6010E9490336B017C01AAE0B0E007
:1022F000A30192010E9475332B013C010150110989
:10230000DDCF302EFBCF3320E1F06D8D7E8D631954
:10231000710961507109072E000C880B990B0E94FE
:1023200020329B01AC0160E070E080E291E40E9409
:102330008E359B01AC01C701B6010E9473346B015D
:102340007C0120E030E0A901C701B6010E9481357F
:1023500087FD05C120E030E044EB53E4C701B6013E
:102360000E94193218160CF4FAC01092120610923C
:102370001306109214061092150681E00E94FB06C7
:102380002091F3053091F4054091F5055091F60543
:10239000C701B6010E948F332B013C014092120607
:1023A00050921306609214067092150660911A06F8
:1023B00070911B06072E000C880B990B0E9420328F
:1023C0006D8F7E8F8F8F98A320E030E0A901C3012D
:1023D000B2010E948135181624F077FA709477F8CC
:1023E0007094A30192016D8D7E8D8F8D98A10E94B6
:1023F00090330E94E53470931B0660931A0681E0C7
:102400008093F20569E577E0C4010E94B92F8E013F
:102410000F5F1F4F22E040E0C701B6010E94722FFC
:10242000B801C4010E94883823CE20E030E040E2A9
:1024300051E4C701B6010E947F32A30192010E94BC
:1024400090336B017C01F5CE6AE0B62EF2CE61E4EA
:1024500077E0C4010E94B92F20E030E0A901C70154
:10246000B6010E948135181634F0ED8DFE8D65E3BE
:1024700077E033976CF0C701B6010E94E5347093A2
:102480001B0660931A0681E08093F20569E377E00A
:10249000C4010E94AE2F60911A0670911B06072E90
:1024A000000C880B990B0E9420328E010F5F1F4F8A
:1024B00020E040E0B3CF20E030E040E251E4C7014B
:1024C000B6010E947F32A30192010E9490336B01FA
:1024D0007C0173CE5AE0B52E70CE68E177E0C4017E
:1024E0000E94B92F20E030E0A901C701B6010E9487
:1024F00081356CE077E018168CF4C701B6010E94B4
:10250000E53460931C0670931D0680931E0690931D
:102510001F0681E08093F20560E177E0C4010E942C
:10252000AE2F60911C0670911D0680911E06909141
:102530001F06B9CF8091B405803311F40C94A22109
:10254000813369F42D8D3E8D11E0233031050CF47B
:10255000CCCD1093200681E08093F205C6CD63E4D4
:1025600072E0C4010E94933883CD80912F0680FFD2
:102570001BC08E7F80932F064D8D5E8D8091B4059C
:1025800080534330510569F08D8D9E8D049771F411
:102590009091B4058091B5058051AAE09A9F800D75
:1025A00011248093010264CD8160E4CFED8DFE8D16
:1025B00083E03597B1F79091B4058091B605805DC1
:1025C000F4E69F9F800D11249091B5052AE0929F1B
:1025D000800D1124E6CF0E949A0F60EA76E06BCD61
:1025E000C090ED05D090EE05E090EF05F090F0057D
:1025F00020E030E044E353E4C701B6010E94193201
:1026000011E01093EC0520E030E044E353E487FF51
:102610000FC0C701B6010E9490336093E805709324
:10262000E9058093EA059093EB051093E70520CD2B
:10263000C701B6010E948F33F0CF64E572E091CFFD
:1026400080912806823059F41092280667E676E0D9
:10265000C4010E94B92F81E08093F20509CD813039
:1026600031F482E08093280668E476E0F1CF8111AE
:10267000F2CF81E08093280666E276E0E9CF67E555
:1026800072E0C4010E9493388091B4054D8D5E8D37
:102690004430510509F035C2863409F06FC080918D
:1026A000B505833509F06AC06CE572E0C4010E948B
:1026B0009338C090F305D090F405E090F505F090C4
:1026C000F60520E030E048EC52E4C701B6010E9474
:1026D000193287FF05C06CE973E0C4010E94883895
:1026E00020E030E040E251E4C701B6010E94193217
:1026F00087FF05C06CE973E0C4010E9488388E0131
:102700000F5F1F4F26E040E0C701B6010E94722F05
:10271000B801C4010E94883863E672E0C4010E94D7
:10272000883863E672E0C4010E9488386091E6054B
:1027300070E090E080E00E941E3220E040E00E94C5
:10274000722FB801C4010E94883863E672E0C401A8
:102750000E94883863E672E0C4010E94883863E60C
:1027600072E0C4010E94883863E672E0C4010E94EE
:10277000883865E672E0C4010E9488388091B4050B
:102780008134E1F58091B5058A35C1F567E672E0DF
:10279000C4010E949338C090F305D090F405E090F6
:1027A000F505F090F60520E030E048EC52E4C70172
:1027B000B6010E94193287FF05C06CE973E0C401BD
:1027C0000E94883820E030E040E251E4C701B601C1
:1027D0000E94193287FF05C06CE973E0C4010E94B2
:1027E00088388E010F5F1F4F26E040E0C701B60119
:1027F0000E94722FB801C4010E9488388091B405EC
:10280000853449F48091B5058C3429F46EE672E084
:10281000C4010E9493388091B4058134D9F4809129
:10282000B5058335B9F465E772E0C4010E949338B9
:102830006091E60570E090E080E00E941E328E011B
:102840000F5F1F4F20E040E00E94722FB801C401CB
:102850000E9488388091B405853449F48091B5058B
:10286000833529F46CE772E0C4010E9493388091AB
:10287000B405803549F48091B505873429F463E8BF
:1028800072E0C4010E9493388091B4058235B9F496
:102890008091B5058C3499F484E08093EC05109216
:1028A000E8051092E9051092EA051092EB0581E027
:1028B0008093E7056AE872E0C4010E949338809132
:1028C000B4058235B9F48091B505823599F483E079
:1028D0008093EC051092E8051092E9051092EA0544
:1028E0001092EB0581E08093E70561E972E0C40195
:1028F0000E9493388091B405823549F48091B505E2
:10290000853529F468E972E0C4010E94933880910A
:10291000B405823549F48091B505843429F46FE912
:1029200072E0C4010E9493388091B4058335B1F4FC
:102930008091B505813491F41092EC051092E80570
:102940001092E9051092EA051092EB0581E0809360
:10295000E70566EA72E0C4010E9493388091B405ED
:10296000833549F48091B505853429F46DEA72E028
:10297000C4010E9493388091B4058335B1F48091ED
:10298000B505833591F41092EC051092E80510928C
:10299000E9051092EA051092EB0581E08093E705C6
:1029A00064EB72E0C4010E9493388091B4058334D3
:1029B00049F48091B5058C3429F46BEB72E0C401C5
:1029C0000E9493388091B405823509F087C08091C8
:1029D000B505823419F481E08093F1058091B40546
:1029E0008134B1F48091B5058F3491F481E00E9477
:1029F000FB068091E4059091E5059093FB0580939B
:102A0000FA050E949A0F67ED72E0C4010E949338A4
:102A10008091B4058134B1F48091B505863491F488
:102A200081E00E94FB068091E4059091E50590937A
:102A3000FD058093FC050E949A0F6EED72E0C401C3
:102A40000E9493388091B405873409F088C380913F
:102A5000B505813409F083C306EB15E0712C612CB8
:102A6000C12CD12C76014AE0B42EC801825B95407E
:102A7000ED8DFE8D8E179F070CF087C2D8016D91EA
:102A80008D016E3209F47DC26053770B072E000C66
:102A9000880B990B0E9420321B012C0161147104D8
:102AA00009F460C2B301072C000C880B990B0E943B
:102AB00020329B01AC01C201B1010E9473349B0121
:102AC000AC01C701B6010E9490336B017C01F30198
:102AD000BE9E3001BF9E700C1124C7CF833409F015
:102AE0007DCF8091B505863509F078CF62EC72E034
:102AF000C4010E94933869EC72E0C4010E948838D6
:102B00006DCFAD8DBE8D169709F09CCF843481F5C5
:102B10008091B5058F3461F5F090B60500ED0F0D8D
:102B20000A3038F08F2D90E00E9480388134910572
:102B3000F9F41091B70580ED810F8A30C8F48F2D1C
:102B400090E00E9480388134910509F0D6C110E0F0
:102B5000073028F4E02FF0E0E85FFD4F108165EECC
:102B600072E0C4010E94933861E0812F0E94230625
:102B70008091B4058434A1F5E090B5058E2D8B7F4E
:102B8000883471F5F090B60580ED8F0D8A3038F0FD
:102B90008F2D90E00E9480388134910509F51091C5
:102BA000B70500ED010F0A30D8F48F2D90E00E9498
:102BB00080388134910509F0A6C180E0073028F4FF
:102BC000E02FF0E0E85FFD4F8081F8E4EF12A2C152
:102BD00061E00E94B0056CEE72E0C4010E9493387F
:102BE0008091B405843479F58091B505893459F51F
:102BF000F090B60580ED8F0D8A3038F08F2D90E083
:102C00000E94803881349105F1F41091B70500EDF0
:102C1000010F0A30C0F48F2D90E00E94803881347B
:102C2000910509F07DC180E0073028F4E02FF0E045
:102C3000E85FFD4F808160E00E9423066AEF72E04A
:102C4000C4010E9493388091B4058434A1F5809129
:102C5000B505803581F5F090B60580ED8F0D8A3091
:102C600038F08F2D90E00E9480388134910519F55D
:102C70001091B70500ED010F0A30E8F48F2D90E0B8
:102C80000E9480388134910509F051C110E007306D
:102C900028F4E02FF0E0E85FFD4F108160E0812F25
:102CA0000E94230661E0812F0E94B00561E073E07D
:102CB000C4010E9493388091B405843409F062C045
:102CC0008091B505823509F05DC0F090B60580EDC4
:102CD0008F0D8A3040F08F2D90E00E948038813433
:102CE000910509F04FC01091B70500ED010F0A30B2
:102CF00008F048C08F2D90E00E9480388134910503
:102D000009F01BC180E0073028F4E02FF0E0E85F15
:102D1000FD4F80810E948705F82E68E073E0C401B2
:102D20000E9493386091B6056053770B072E000C14
:102D3000880B990B0E9420328E010F5F1F4F20E0FD
:102D400040E00E94722FB801C4010E94883860914F
:102D5000B7056053770B072E000C880B990B0E9468
:102D6000203220E040E00E94722FB801C4010E948E
:102D7000883865ED72E0F11002C06CE973E0C401BF
:102D80000E9488388091B405813409F093C0809105
:102D9000B505823509F08EC0F090B60580ED8F0D37
:102DA0008A3040F08F2D90E00E9480388134910568
:102DB00009F080C01091B70500ED010F0A3008F04E
:102DC00079C08F2D90E00E9480388134910509F000
:102DD000BBC080E0073028F4E02FF0E0E85FFD4F53
:102DE00080810E9454067C016FE073E0C4010E9460
:102DF00093380091B60510E0C8010E94803869E25E
:102E000073E08134910589F0B80160537109072E90
:102E1000000C880B990B0E9420328E010F5F1F4F10
:102E200020E040E00E94722FB801C4010E9488385F
:102E30006091B7056053770B072E000C880B990B38
:102E40000E9420328E010F5F1F4F20E040E00E9461
:102E5000722FB801C4010E94883888EEE81683E01A
:102E6000F806BCF46CE973E0C4010E94883894E66B
:102E7000E916F10474F46CE973E0C4010E94883827
:102E8000AAE0EA16F1042CF46CE973E0C4010E9494
:102E90008838B701FF0C880B990B0E9420328E01F5
:102EA0000F5F1F4F20E040E00E94722FB801C40165
:102EB0000E9488388091B4058E3409F0C3CD80918A
:102EC000B505843509F0BECD1091B605812F90E08F
:102ED0000E948038E091B7058134910509F03BC02C
:102EE000E05380E0E73020F4F0E0E85FFD4F8081C0
:102EF0000E94DE0566E173E0A2CD1051BAE0FB9EB0
:102F0000100D11242CCE80EF810FEAE0FE9E800D83
:102F100011245BCE60E00E94B00563EF72E05DCEED
:102F200080EF810F2AE0F29E800D112484CE105193
:102F30003AE0F39E100D1124B1CE80EF810F4AE0EC
:102F4000F49E800D1124E6CE80EF810F5AE0F59EAD
:102F5000800D112446CF80EF8E0FBAE01B9F800DAD
:102F60001124C6CF20E030E040E251E4C701B601B1
:102F70000E947F32A20191010E9490336B017C017B
:102F800074CD3AE0632E712C70CD20E030E0A901C1
:102F9000C701B6010E94813587FDDEC020E030E820
:102FA00041EE53E4C701B6010E94193287FFD4C035
:102FB00081E08093EC05C092E805D092E905E092AB
:102FC000EA05F092EB058093E7056DE173E0C4013B
:102FD0000E9493388091B405873459F48091B505E7
:102FE000853411F00C94B0216BE273E0C4010E94AF
:102FF00093382D8D3E8D2830310511F00C94B4217D
:103000008091B405833411F00C94BB218091B505F7
:10301000873411F00C94BB2162E373E0C4010E9479
:1030200093388091B60589838091B7058A83809112
:10303000B8058B838091B9058C838D8D9E8D0A9701
:1030400009F090C08091BA058D838091BB058E8375
:10305000198E1A8E1B8E1C8E1D8A1E8A1F8A188E30
:10306000AE014B5E5F4FBE01675E7F4FCE010196A2
:103070000E94510CC98CDA8CEB8CFC8C20E030E087
:10308000A901C701B6010E94193269E373E087FD07
:1030900002C06BE373E0C4010E94883820E030E096
:1030A000A901C701B6010E948135181624F0F7FA6C
:1030B000F094F7F8F0948E010F5F1F4F26E040E088
:1030C000C701B6010E94722FB801C4010E9488385E
:1030D00068E075E0C4010E948838CD88DE88EF88FA
:1030E000F88C20E030E0A901C701B6010E94193236
:1030F00069E373E087FD02C06BE373E0C4010E94E3
:10310000883820E030E048EC52E4C701B6010E9464
:10311000193287FF05C06CE973E0C4010E9488384A
:1031200020E030E0A901C701B6010E9481351816E0
:1031300024F0F7FAF094F7F8F0948E010F5F1F4F28
:1031400026E040E0C701B6010E94722FB801C40119
:103150000E9488380C94BB2164E273E038CF712C54
:10316000612C38CF1D8274CF20E030E040E251E482
:10317000C601B5010E947F3229A13AA14BA15CA1F1
:103180000E9490335B016C010C94D1216E3209F4E2
:103190004DC06D3209F44FC06053770B072E000C01
:1031A000880B990B0E94203269A37AA38BA39CA35E
:1031B0006114710401F1B301072C000C880B990B09
:1031C0000E9420329B01AC0169A17AA18BA19CA134
:1031D0000E9473349B01AC01C201B1010E94903383
:1031E0001B012C01AAE0C301A89F3001A99F700C0C
:1031F00011240C94D12120E030E040E251E4C201DE
:10320000B1010E947F3229A13AA14BA15CA10E9489
:1032100090331B012C010C94D121FF24F394712CC9
:10322000612C0C94D121EF2C0C94D1212AE0622E38
:10323000712C0C94D121B1E0BDA30C94D12120E0DC
:1032400030E0A901C201B1010E94813587FD56C05D
:1032500020E030E044EB52E4C201B1010E94193297
:1032600018160CF44BC020E030E0A901C601B501EE
:103270000E94813587FD42C020E030E044E353E402
:10328000C601B5010E9419321816C4F1EDA1EE2352
:1032900021F057FA509457F85094EE2021F0D7FAC5
:1032A000D094D7F8D0946DE373E0C4010E949338B2
:1032B0008201710125E03CE247E952EC61E57FE8DB
:1032C00083E292E40E94CC0E6B017C018E010F5FC1
:1032D0001F4F20E040E00E94722FB801C4010E94FD
:1032E000883881E08093EC05C092E805D092E9052A
:1032F000E092EA05F092EB058093E7058D8D9E8DB7
:103300008D7F089709F010C18091B405873409F0CA
:103310008BC08091B505843509F086C08091B605D3
:1033200089838091B7058A838091B8058B838091CA
:10333000B9058C832D8D3E8D2A30310509F04EC1A3
:103340008091BA058D838091BB058E83198E1A8E6C
:103350001B8E1C8E1D8A1E8A1F8A188EAE014B5E24
:103360005F4FBE01675E7F4FCE0101960E94510CF8
:10337000298C3A8C4B8C5C8C20E030E044EB52EC96
:10338000C201B1010E94813587FD4EC020E030E0CE
:1033900044EB52E4C201B1010E94193218160CF438
:1033A00043C0AD88BE88CF88D88C20E030E044E3AD
:1033B00053ECC601B5010E94813587FD35C020E080
:1033C00030E044E353E4C601B5010E9419321816F7
:1033D0005CF164E473E0C4010E94933882017101DE
:1033E00025E03CE247E952EC61E57FE883E292E4C4
:1033F0000E94CC0E6B017C018E010F5F1F4F20E0FD
:1034000040E00E94722FB801C4010E94883881E018
:103410008093EC05C092E805D092E905E092EA05B8
:10342000F092EB058093E7058091B405823409F0B2
:103430008CC18091B505873409F07BC08091B605B9
:1034400089838091B7058A838091B8058B838091A9
:10345000B9058C834D8D5E8D4A30510509F0C0C091
:103460008091BA058D838091BB058E83198E1A8E4B
:103470001B8E1C8E1D8A1E8A1F8A188EAE014B5E03
:103480005F4FBE01675E7F4FCE0101960E94510CD7
:10349000298C3A8C4B8C5C8C20E030E044EB52EC75
:1034A000C201B1010E94813587FD3EC020E030E0BD
:1034B00044EB52E4C201B1010E9419321816A4F182
:1034C000AD88BE88CF88D88C20E030E044E353EC50
:1034D000C601B5010E94813587FD26C020E030E09D
:1034E00044E353E4C601B5010E9419321816E4F012
:1034F0006BE473E0C4010E9493388201710125E0FE
:103500003CE247E952EC61E57FE883E292E40E9405
:10351000CC0E8E010F5F1F4F20E040E00E94722F03
:10352000B801C4010E9488388091B405823409F042
:103530000CC18091B505833409F007C106EB15E095
:10354000E12C1DA2F12CA12CB12C65011501260145
:10355000C801825B9540AD8DBE8D8A179B070CF02C
:10356000A5C0F80161918F01603209F491C0FF207C
:1035700009F449C06E3209F492C06D3209F48DC06D
:103580006053770B072E000C880B990B0E9420329A
:1035900069A37AA38BA39CA36114710419F1B301ED
:1035A000072C000C880B990B0E9420329B01AC0168
:1035B00069A17AA18BA19CA10E9473349B01AC01EB
:1035C000C601B5010E9490335B016C014AE0930192
:1035D000429F3001439F700C1124BACF1D82B6CE9A
:1035E0001D8244CF20E030E040E251E4C601B50145
:1035F0000E947F3229A13AA14BA15CA10E94903385
:103600005B016C01A5CF6E3209F449C06D3209F43B
:103610004AC06053770B072E000C880B990B0E9451
:10362000203269A37AA38BA39CA361147104F9F0DF
:10363000B301072C000C880B990B0E9420329B01D0
:10364000AC0169A17AA18BA19CA10E9473349B015A
:10365000AC01C201B1010E9490331B012C01AAE010
:10366000C301A89F3001A99F700C112471CF20E0E5
:1036700030E040E251E4C201B1010E947F3229A151
:103680003AA14BA15CA10E9490331B012C0160CF99
:10369000FF24F394712C612C5BCFEF2C59CF9AE06F
:1036A000692E712C55CFB1E0BDA352CF20E030E0A0
:1036B000A901C201B1010E94813587FD46C020E009
:1036C00030E044EB52E4C201B1010E9419321816F5
:1036D000E4F120E030E0A901C601B5010E94813586
:1036E00087FD33C020E030E044E353E4C601B50178
:1036F0000E94193218164CF1EDA1EE2321F057FA71
:10370000509457F85094EE2021F0D7FAD094D7F87F
:10371000D09462E573E0C4010E9493388201710184
:1037200025E03CE247E952EC61E57FE883E292E480
:103730000E94CC0E8E010F5F1F4F20E040E00E94E0
:10374000722FB801C4010E9488388091B405833477
:1037500009F0ADC18091B505833411F00C94381097
:1037600006EB15E0A12C19A2B12CC12CD12C7601AD
:1037700016012701C801825B95402D8D3E8D821771
:1037800093070CF0A1C0D8016D918D01603209F44E
:103790008DC0BB2009F445C06E3209F48EC06D3275
:1037A00009F489C06053770B072E000C880B990B26
:1037B0000E9420326DA37EA38FA398A76114710489
:1037C000F9F0B301072C000C880B990B0E942032F2
:1037D0009B01AC016DA17EA18FA198A50E947334BD
:1037E0009B01AC01C701B6010E9490336B017C01C3
:1037F0002AE0F3012E9F30012F9F700C1124BACFC5
:1038000020E030E040E251E4C701B6010E947F327F
:103810002DA13EA14FA158A50E9490336B017C01C0
:10382000A9CF6E3209F449C06D3209F44AC0605321
:10383000770B072E000C880B990B0E9420326DA38A
:103840007EA38FA398A761147104F9F0B301072C2C
:10385000000C880B990B0E9420329B01AC016DA1DA
:103860007EA18FA198A50E9473349B01AC01C20177
:10387000B1010E9490331B012C018AE0A301849FB7
:103880003001859F700C112475CF20E030E040E2BC
:1038900051E4C201B1010E947F322DA13EA14FA18E
:1038A00058A50E9490331B012C0164CFBB24B39414
:1038B000712C612C5FCFAB2C5DCF8AE0682E712C10
:1038C00059CF91E099A356CF20E030E0A901C20181
:1038D000B1010E94813587FF02C00C94381020E0AE
:1038E00030E044EB52E4C201B1010E9419321816D3
:1038F00014F40C94381020E030E0A901C701B6019F
:103900000E94813587FF02C00C94381020E030E01F
:1039100044E353E4C701B6010E941932181614F4A7
:103920000C943810A9A1AA2321F057FA509457F803
:103930005094AA2021F0F7FAF094F7F8F0946DE390
:1039400073E0C4010E94933820E030E044EB52E47D
:10395000C201B1010E9490332B013C0120E030E014
:1039600044E353E4C701B6010E9490336B017C012C
:1039700020E030E040EA51E40E9473340E94E534D4
:103980006DA37EA38FA398A78DA18F5B8093AA05BB
:1039900020E030E040E251E4C301B2010E94733400
:1039A0000E94E53469A37AA38BA39CA389A18F5BB2
:1039B0008093AB0584E1EDA1FEA18E9FB0018F9FA6
:1039C000700D1124072E000C880B990B0E942032D9
:1039D0009B01AC01C701B6010E948F3320E030E0AB
:1039E00040E05FE30E947F320E94E534605D6093B7
:1039F000AC058AE029A13AA1829FB001839F700D96
:103A00001124072E000C880B990B0E9420329B0179
:103A1000AC01C301B2010E948F330E94E534605DA6
:103A20006093AD0520E030E040E05FE3C701B60100
:103A30000E947F320E94E534660F771F072E000C2C
:103A4000880B990B0E9420329B01AC01C701B60183
:103A50000E948F332BEA3AEA4AEA5DE30E9473340C
:103A60000E94E5346F596093AE05C301B2010E9414
:103A7000E534072E000C880B990B0E9420329B0125
:103A8000AC01C301B2010E948F332BEA3AEA4AE249
:103A90005DE30E9473340E94E5346F596093AF0573
:103AA0001092B0056AEA75E0C4010E9488384D8D15
:103AB0005E8D4930510509F02AC18091B4058134E9
:103AC00011F00C9438108091B505873511F00C94E5
:103AD0003810F090B60580ED8F0D8A3048F08F2DAC
:103AE00090E00E9480388134910511F00C943810D8
:103AF0000091B70510ED100F1A3010F00C9438102B
:103B00008F2D90E00E9480388134910599F5F12C39
:103B1000173028F4E12FF0E0E85FFD4FF08080914E
:103B2000B8058053990B24E6289F8001299F100D2A
:103B300011248091B9059AE0899F000D111D11246F
:103B4000005E11408091BA058053990B080F191F30
:103B50000F3F110519F010F00C94381061E08F2D13
:103B60000E9423060115110561F460E08F2D0E946B
:103B7000B00532C000515AE0F59E000D1124F02E20
:103B8000CECF0F3F110511F461E0F0CFEF2DF0E043
:103B9000E052FA4FE491E150E23108F0B3C0F0E0B6
:103BA0008827EA52F24E8F4F0C943737E81DF01DEC
:103BB000F51DFF1D091E821E131E1B1E231E2D1E1A
:103BC000371E411E501E5A1E821E641E6E1E781E17
:103BD00084B5806884BD07BD69E573E00C94B112BB
:103BE00084B5806284BD08BDF7CF80918000806875
:103BF000809380001093890000938800EDCF80911E
:103C0000800080628093800010938B0000938A0074
:103C1000E3CF8091800088608093800010938D00B6
:103C200000938C00D9CF8091B00080688093B00061
:103C30000093B300D1CF8091B00080628093B00038
:103C40000093B400C9CF8091900080688093900069
:103C50001093990000939800BFCF809190008062EC
:103C60008093900010939B0000939A00B5CF8091B1
:103C7000900088608093900010939D0000939C00BA
:103C8000ABCF8091A00080688093A0008091A000BD
:103C90008F7B8093A0001093A9000093A8009CCF75
:103CA0008091A00080628093A0001093AB000093ED
:103CB000AA0092CF8091A00088608093A00010930A
:103CC000AD000093AC0088CF809120018068809384
:103CD000200110932901009328017ECF80912001BB
:103CE00080628093200110932B0100932A0174CFEE
:103CF0008091200188608093200110932D01009312
:103D00002C016ACF003811050CF03ECF2ECFAD8DBF
:103D1000BE8D1A9711F00C9438108091B40584343C
:103D200011F00C9438108091B505843511F00C9485
:103D30003810F090B60580ED8F0D8A3048F08F2D49
:103D400090E00E9480388134910511F00C94381075
:103D50000091B70510ED100F1A3010F00C943810C8
:103D60008F2D90E00E9480388134910509F03FC08A
:103D700080E0173028F4E12FF0E0E85FFD4F80810C
:103D80004091B8054053550B68EE73E0469F900193
:103D9000479F300D569F300D11249091B905E4E6F0
:103DA0009E9F200D311D11249091BA05FAE09F9F2E
:103DB000200D311D1124205A3441E090BB054E2DB9
:103DC0004053550B7A01E20EF31E50E1E51657E21F
:103DD000F50610F00C94381090910002981771F0CD
:103DE0009F3F09F4AEC060E673E00C94B11280EF1F
:103DF000800FBAE0FB9E800D1124C2CFEFEDF5E0FD
:103E0000149117FDF0CF61E00E942306112369F0A1
:103E1000712C612C60E072E18AE790E0A3019701C8
:103E20000E941837123009F0E2C16701F12CE12C31
:103E300060E072E18AE790E0A70196010E941837DE
:103E400029013A0160E472E48FE090E0A701960155
:103E50000E941837BA01A90141505109610971093D
:103E6000123009F058C14F3F51056105710509F045
:103E70000CF4ACC160E970ED83E090E0A70196011D
:103E80000E941837BA01A90141505109610971090D
:103E900083E04F3F51056105710509F00CF497C1AE
:103EA00068E478EE81E090E0A70196010E9418375F
:103EB000BA01A901415051096109710984E04F3FDC
:103EC00051056105710509F00CF481C164E274EFDC
:103ED00080E090E0A70196010E941837BA01A9017D
:103EE000415051096109710985E04F3F5105610554
:103EF000710509F008F46BC162E17AE780E090E0B7
:103F0000A70196010E941837BA01A9014150510931
:103F10006109710986E04F3F51056105710509F09E
:103F20000CF455C1B301A2019AE0759567955795B8
:103F300047959A95D1F7415051096109710987E078
:103F400046C180930002EFEDF5E01491912F1F3FE1
:103F500009F449CF123009F473C058F4112391F1D8
:103F6000113009F44BC097FD3ECF61E00E9423065B
:103F70004FCF143009F4ADC008F488C0153099F75C
:103F8000109220011092210190912101986090934C
:103F9000210190912101916090932101282F30E01F
:103FA000F901E756FA4FE491F0E0EE0FFF1FE158F8
:103FB000FA4F45915491F901E75CFA4FE491E0938F
:103FC0008A0521CF14BC15BC94B5926094BD95B5FB
:103FD000916095BD282F30E0F901E756FA4FE49142
:103FE000F0E0EE0FFF1FE158FA4F45915491F901AF
:103FF000E75CFA4FE491E093910505CF10928000C1
:10400000109281009091810098609093810090912E
:104010008100916090938100282F30E0F901E756EC
:10402000FA4FE491F0E0EE0FFF1FE158FA4F45918F
:104030005491F901E75CFA4FE491E0939005E3CEE7
:104040001092B0001092B1009091B00092609093E5
:10405000B0009091B10091609093B100282F30E0B2
:10406000F901E756FA4FE491F0E0EE0FFF1FE15837
:10407000FA4F4591549150938F0540938E05F90165
:10408000E75CFA4FE491E0938D05BDCE109290006D
:10409000109291009091910098609093910090916E
:1040A0009100916090939100282F30E0F901E7563C
:1040B000FA4FE491F0E0EE0FFF1FE158FA4F4591FF
:1040C0005491F901E75CFA4FE491E0938C0513E019
:1040D0009ACE1092A0001092A1009091A100986039
:1040E0009093A1009091A10091609093A100282F3E
:1040F00030E0F901E756FA4FE491F0E0EE0FFF1FD0
:10410000E158FA4F45915491F901E75CFA4FE49177
:10411000E0938B0578CE4F3F510561057105E9F1BC
:10412000E4F168E478EE81E090E0A70196010E9456
:104130001837BA01A901415051096109710984E098
:104140001111D3CE93E04F3F51056105710541F147
:104150003CF162E17AE780E090E0A70196010E94DD
:104160001837BA01A901415051096109710994E058
:104170004F3F51056105710599F094F0B301A2011B
:104180008AE075956795579547958A95D1F741507F
:1041900051096109710995E003C0111117C092E03E
:1041A00085B5887F892B85BD47BD8FEF9FEFDC01EB
:1041B0008093A6059093A705A093A805B093A905A1
:1041C00080916E00826080936E000DCE82E09091AF
:1041D000B100987F892B8093B100123009F49FC001
:1041E0000CF096C0112301F3113029F1FCCDBA0176
:1041F000A901415051096109710991E04115510529
:1042000081E0680771057CF068E478EE81E090E079
:10421000A30197010E941837BA01A9014150510921
:104220006109710993E01130D9F480918100887F90
:10423000892B8093810050938900409388008FEFF1
:104240009FEFDC018093A2059093A305A093A405A2
:10425000B093A50580916F00826080936F00C3CDFD
:104260001330D9F480919100887F892B809391003D
:1042700050939900409398008FEF9FEFDC0180935B
:104280009A0590939B05A0939C05B0939D05809102
:104290007100826080937100A6CD1430D9F48091B2
:1042A000A100887F892B8093A1005093A90040939F
:1042B000A8008FEF9FEFDC01809396059093970500
:1042C000A0939805B09399058091720082608093C5
:1042D000720089CD153009F080CF80912101887F4F
:1042E000892B8093210150932901409328018FEF5E
:1042F0009FEFDC018093920590939305A093940522
:10430000B0939505809173008260809373006BCDAC
:10431000143059F20CF4ACCF153029F364CD40932E
:10432000B3008FEF9FEFDC0180939E0590939F0574
:10433000A093A005B093A105809170008260809346
:10434000700051CDAD8DBE8D10E0139714F00C941C
:10435000A9126AE472E0C4010E9493380C947E10A2
:10436000ED8DFE8D389769F04D8D5E8D4A3051058B
:1043700011F40C9400188091B405873411F00C945A
:104380007E198091B505833411F00C947E1906EBEB
:1043900015E0E12C1DA2F12CA12CB12C6501150119
:1043A0002601C801825B9540AD8DBE8D8A179B07A3
:1043B00014F00C941F19F80161918F01603211F40F
:1043C0000C940D19FF2011F40C94C6186E3211F4E0
:1043D0000C9416196D3211F40C9413196053770B69
:1043E000072E000C880B990B0E94203269A37AA338
:1043F0008BA39CA36114710411F40C94B418B30141
:10440000072C000C880B990B0E9420329B01AC01F9
:1044100069A17AA18BA19CA10E9473349B01AC017C
:10442000C601B5010E9490335B016C014AE0930123
:10443000429F3001439F700C1124B3CF8F929F9203
:10444000AF92BF92CF92DF92EF92FF920F931F93A2
:10445000CF93DF9310920F0710921007109211075D
:10446000109212071092CF061092D0061092D10629
:104470001092D2060E94C8066B017C014B015C01C0
:1044800088EB880E8BE0981EA11CB11C0E94C80608
:104490006C157D058E059F0528F086169706A806E3
:1044A000B906A0F768EE73E080E090E00E949606FF
:1044B000E0914006F091410682E08083E0913C0665
:1044C000F0913D061082E0913E06F0913F0680E1BA
:1044D000808310924806E0914406F091450686E0FC
:1044E0008083E0914206F091430680818061808361
:1044F000E0914206F0914306808188608083E091DC
:104500004206F0914306808180688083E0914206F4
:10451000F091430680818F7D80830E94C80660935E
:10452000CF067093D0068093D1069093D20667E6AB
:1045300073E080E396E00E948C0E0E94C8066B0137
:104540007C014B015C01EAE08E0E911CA11CB11CA8
:104550000E94C8066C157D058E059F0528F08616FD
:104560009706A806B906A0F781E08093E3060E94AB
:10457000C8066093CF067093D0068093D1069093BF
:10458000D20668E773E080E396E00E948C0E80E339
:1045900096E090932E0680932D06E0914006F091D0
:1045A000410682E08083E0913C06F0913D06108256
:1045B000E0913E06F0913F068FEC80831092480612
:1045C000E0914406F091450686E08083E091420642
:1045D000F0914306808180618083E0914206F091F2
:1045E0004306808188608083E0914206F091430613
:1045F000808180688083E0914206F091430680814B
:104600008F7D808307EF15E0D0E0C0E0CE010E94EF
:104610003D33F80181938F012196C633D105B1F75F
:104620008091F7058B3711F00E94B80F61E086E0AA
:104630000E94230661E087E00E94230660E086E096
:104640000E94B00560E087E00E94B00560E086E36C
:104650000E9423068DEF80936D0580936C0580E0AA
:10466000DF91CF911F910F91FF90EF90DF90CF904E
:10467000BF90AF909F908F900C94FB061F920F926B
:104680000FB60F9211240BB60F922F933F934F93B7
:104690005F936F937F938F939F93AF93BF93EF93AA
:1046A000FF9380919E0590919F05A091A005B091E8
:1046B000A105892B8A2B8B2BE1F190918D05E0913F
:1046C0008E05F0918F0580818927808380919E05DA
:1046D00090919F05A091A005B091A105181619060B
:1046E0001A061B069CF480919E0590919F05A0914F
:1046F000A005B091A1050197A109B10980939E057C
:1047000090939F05A093A005B093A105FF91EF9111
:10471000BF91AF919F918F917F916F915F914F91D9
:104720003F912F910F900BBE0F900FBE0F901F90D7
:104730001895809100020E94DE05E8CF1F920F922B
:104740000FB60F9211240BB60F922F933F934F93F6
:104750005F936F937F938F939F93AF93BF93EF93E9
:10476000FF9380E396E00E946004FF91EF91BF9178
:10477000AF919F918F917F916F915F914F913F91F9
:104780002F910F900BBE0F900FBE0F901F9018959A
:104790001F920F920FB60F9211240BB60F922F9308
:1047A0008F939F93EF93FF93E0914006F091410622
:1047B0008081E0914606F091470682FD1DC0908100
:1047C000809149068F5F8F7320914A06821741F0CE
:1047D000E0914906F0E0E05DF94F958F809349063E
:1047E000FF91EF919F918F912F910F900BBE0F90A2
:1047F0000FBE0F901F9018958081F2CF1F920F92DD
:104800000FB60F9211242F933F938F939F93AF93E3
:10481000BF9380915F0590916005A0916105B09173
:10482000620530915E0523E0230F2D3758F5019680
:10483000A11DB11D20935E0580935F0590936005D7
:10484000A0936105B0936205809163059091640522
:10485000A0916505B09166050196A11DB11D8093DB
:10486000630590936405A0936505B0936605BF91B9
:10487000AF919F918F913F912F910F900FBE0F900D
:104880001F90189526E8230F0296A11DB11DD2CFC7
:10489000CF93DF93109233061092320688EE93E0A6
:1048A000A0E0B0E08093340690933506A0933606DE
:1048B000B093370683E192E09093310680933006FF
:1048C00085EC90E090933D0680933C0684EC90E06C
:1048D00090933F0680933E0680EC90E090934106D3
:1048E0008093400681EC90E09093430680934206CB
:1048F00082EC90E0909345068093440686EC90E02D
:1049000090934706809346061092490610924A06F5
:1049100010924B0610924C061092D3061092D406B9
:104920001092D5061092D6061092D7061092D8068D
:104930001092D9061092DA061092DB061092DC066D
:104940001092DD061092DE061092DF061092E0064D
:104950001092E1061092E2061092160710921507C7
:1049600085E292E090931407809313078CE0809384
:1049700017078FEF809318078BE08093190785E066
:1049800080931A0784E080931B0783E080931C07C1
:1049900082E080931D0710921E0710921F0710924D
:1049A0002007109221071092220781E080932607AA
:1049B0001092270780E48093280780E180932907DD
:1049C00080E580932A0761E08CE00E9423068091B5
:1049D00018078F3F19F061E00E94230661E0809183
:1049E00019070E942306C3E1D7E09E0123513740F7
:1049F0008091220784FD0BC084E090E02196281767
:104A0000390744F461E08E810E942306EECF88E0EE
:104A100090E0F4CF8BE39DE00197F1F760E08091A7
:104A200017070E94B00560E0809119070E94B00549
:104A3000809118078F3F19F060E00E94B0056091E7
:104A4000220764FD45C063E083E197E00E94790896
:104A5000CBE4D6E4CE010197F1F763E083E197E080
:104A60000E9479082197F1F763E083E197E00E94C3
:104A7000790883E592E00197F1F762E083E197E03E
:104A80000E94790860912207606240E083E197E02C
:104A90000E94A60884E08093230740E06CE083E155
:104AA00097E00E94A60840E061E083E197E00E9461
:104AB000A6088BE39FE10197F1F782E0809324073A
:104AC00040E066E083E197E0DF91CF910C94A60887
:104AD000606240E083E197E00E94A6088BE496E4E0
:104AE0000197F1F760912207606240E083E197E06F
:104AF0000E94A60883E592E00197F1F760912207F2
:104B0000606240E083E197E00E94A608BBCFCF93AC
:104B1000DF93CDB7DEB7CB57D1090FB6F894DEBF20
:104B20000FBECDBF789484B5826084BD84B58160AA
:104B300084BD85B5826085BD85B5816085BD809168
:104B40006E00816080936E001092810080918100E0
:104B500082608093810080918100816080938100D8
:104B6000809180008160809380008091B10084609A
:104B70008093B1008091B00081608093B0008091FB
:104B80009100826080939100809191008160809378
:104B90009100809190008160809390008091A100AD
:104BA00082608093A1008091A10081608093A10028
:104BB0008091A00081608093A0008091210182609B
:104BC0008093210180912101816080932101809156
:104BD000200181608093200180917A00846080931D
:104BE0007A0080917A00826080937A0080917A00C6
:104BF000816080937A0080917A00806880937A0047
:104C00001092C1000E941E229E012D5F3F4FE2962E
:104C10003FAF2EAFE297AE014F5F5F4F1A0185E6BF
:104C200090E08C0F9D1F0296EC969FAF8EAFEC9795
:104C30000E94C806672B682B692B09F405C10E94E6
:104C4000C80600918605109187052091880530914E
:104C50008905601771078207930708F464C2009101
:104C600086051091870520918805309189056B0193
:104C70007C01C01AD10AE20AF30A97018601083EB4
:104C800013402105310508F4E7C060938605709351
:104C90008705809388059093890584EF91E0A0E0D3
:104CA000B0E08093DB069093DC06A093DD06B09322
:104CB000DE061092DF061092E0061092E1061092D6
:104CC000E2068091D3069091D406A091D506B091CA
:104CD000D6068093D7069093D806A093D906B093B2
:104CE000DA060E94C8066093D3067093D4068093B8
:104CF000D5069093D60680E396E00E943C04843665
:104D000011F40E94440D0E94C8066093CF06709370
:104D1000D0068093D1069093D2060E94C8066B01FC
:104D20007C016FE773E080E396E00E948C0E2AE03E
:104D300041E050E060E070E080E396E00E94E90D21
:104D400066E873E080E396E00E948C0E2AE0B701EB
:104D5000A60180E396E00E94E90D68E873E080E335
:104D600096E00E948C0E8091D3069091D406A0917B
:104D7000D506B091D606B701A601481B590B6A0BA0
:104D80007B0B2AE080E396E00E94E90D68E873E07F
:104D900080E396E00E948C0E4091D3065091D40699
:104DA0006091D5067091D6068091D7069091D8066D
:104DB000A091D906B091DA06481B590B6A0B7B0B00
:104DC0002AE080E396E00E94E90D6AE873E080E360
:104DD00096E00E948C0E0E94C806AB01BC012AE03E
:104DE00080E396E00E94E90D6CE873E080E396E0D2
:104DF0000E946C0E0E94C8064B015C017C016B0195
:104E000095E0C90ED11CE11CF11C0E94C806681572
:104E100079058A059B0528F0C616D706E806F90627
:104E2000A0F780E396E00E943C04843611F40E94CF
:104E3000440D0E94C8066093D3067093D4068093F5
:104E4000D5069093D60608C00E94C8066230710548
:104E50008105910508F0F3CE1A821982E296AEAD73
:104E6000BFADE297E2E61D92EA95E9F780912D0643
:104E700090912E06DC01ED91FC910084F185E02DEE
:104E80001995892B09F467C080912D0690912E0603
:104E9000DC01ED91FC910284F385E02D1995182F2A
:104EA00080936A050E94C8068FE9810F8A3118F441
:104EB000105210936A0560916A056A30A1F06D3056
:104EC00091F08091680590916905FC01EE54FA4FCC
:104ED0006083019690936905809368056C3519F499
:104EE00081E08093670580916705882359F0809160
:104EF0002D0690912E06DC01ED91FC910190F08140
:104F0000E02D199580916A058D3029F51091B20533
:104F10001C3519F01F3209F00FC1109267056DE2C0
:104F200072E080912D0690912E060E94920DB101A3
:104F300080916805909169050E94FD0FB1018091F3
:104F40002D0690912E060E946C0E1092690510920B
:104F500068051092B20580E00E94FB068091E7058B
:104F6000813069F48091EC05823009F4DAC408F0EC
:104F70002DC3882309F43DC3813009F441C30E9445
:104F8000FF080E94C80600916E0510916F052091E0
:104F9000700530917105601B710B820B930B613CA6
:104FA000744D8140910590F08091E605882371F061
:104FB00088E08093EC051092E8051092E9051092C4
:104FC000EA051092EB0581E08093E70580E00E94FE
:104FD000FB0680916B05882349F180E00E948705DC
:104FE000019721F580E00E9487050197F9F468ECAC
:104FF00070E080E090E00E94960680E00E948705C5
:105000000197A1F480E00E948705019779F410923E
:10501000EC051092E8051092E9051092EA0510924D
:10502000EB0581E08093E70510926B050E94C806AE
:1050300000917A0510917B0520917C0530917D05CA
:10504000AB01BC01401B510B620B730B20910102A1
:10505000A8EEB3E02A9FC0012B9F900D1124092ECA
:10506000000CAA0BBB0B481759076A077B0708F40B
:105070009BC680912F06882309F496C680EB93E0A7
:105080000E948E0E89EC92E00E948E0E89EB93E0D6
:105090000E948E0E0E94C80628EE33E040E050E0E9
:1050A0000E945333CA01B9010E941E32810120E0DF
:1050B00040E00E94722F8CEB93E00E948E0EC101A3
:1050C0000E948E0E89EB93E00E948E0E84EC93E09A
:1050D0000E948E0E8BEC93E00E948E0E8BEB93E081
:1050E0000E94800E8DEC93E00E948E0EE091E6050A
:1050F000E13108F0C1C4F0E08827EE57F74D8F4F3B
:105100000C943737382D232F262F292F2C2F2F2F74
:10511000322F352F382F3B2F3E2F412F442F472F33
:105120004A2F4D2F502F60938605709387058093EB
:1051300088059093890593CDE0906805F090690506
:10514000A7961FAE1EAEA79789E0EC96EEADFFAD19
:10515000EC9711928A95E9F76BEB73E0C1010E941D
:10516000933811541A3108F02EC2E12FF0E088274D
:10517000E354F74D8F4F0C943737A229E32AD728F1
:10518000E32AE32A2429E32A9E27E32AE32AE32ABF
:105190004B29A529E32A6229832AE32A8929A229FE
:1051A000E32AE32AE32A3A2A052AE32ABC2A63E906
:1051B00073E0C1010E9488386091ED057091EE05A1
:1051C0008091EF059091F0050E94E534072E000CC8
:1051D000880B990B0E9420328E010B591F4F20E043
:1051E00040E00E94722F6091ED057091EE05809174
:1051F000EF059091F0050E94E5346A3071055CF48A
:105200006CE973E0C1010E9488386CE973E0C10168
:105210000E94883803C064367105BCF3BE016B5927
:105220007F4FC1010E9488388091B305823309F015
:1052300085CEF2E0EF16F1040CF480CE67E973E05E
:10524000C1010E9488387ACE0E9417080E94C806C1
:10525000693873418105910508F470CE6DE974E0F9
:1052600080912D0690912E060E94A10D0E94390872
:1052700081E00E94FB068091E4059091E505909302
:10528000FD058093FC050E949A0F6EE973E0C10151
:105290000E94933853CE0E94C80669387341810535
:1052A000910508F44BCE84E08093EC051092E8055C
:1052B0001092E9051092EA051092EB0581E08093C7
:1052C000E7053CCE0E9417080E94C8066938734162
:1052D0008105910508F432CE64E774E080912D06D3
:1052E00090912E060E94A10D0E94390881E00E9433
:1052F000FB068091E4059091E5059093FB05809372
:10530000FA050E949A0F64E674E0C1010E94B92F69
:1053100015CE0E94C806693873418105910508F4CD
:105320000DCE83E08093EC051092E8051092E9051C
:105330001092EA051092EB0581E08093E7056CE49A
:1053400075E0A5CF1092EC05B1CF85E0E816F10429
:105350001CF064E572E09BCF94E0E916F104C9F714
:105360008091B3058053990B24E6289F6001299F03
:10537000D00C11248091B405AAE08A9FC00CD11CE6
:105380001124F601E05EF1406F018091B505805374
:10539000990BC80ED91ED7FCDCCF0D2C000CEE08E3
:1053A000FF0880911A0690911B06092E000CAA0B8B
:1053B000BB0B40911C0650911D0660911E0670911A
:1053C0001F06840F951FA61FB71F8C159D05AE05E0
:1053D000BF050CF4BECF0E94C80669387341810531
:1053E000910508F4ABCD11E01093EC05C701B601AF
:1053F0000E9420326093E8057093E9058093EA05E6
:105400009093EB051093E70599CD6AE374E022E0F1
:10541000E216F1040CF479CF8091B3058233D1F018
:1054200028F48133F9F06DE374E06FCF833351F0EA
:105430008433C9F78DEF80936D0580936C056BE520
:1054400074E063CF8FEB80936D0580936C0562E50C
:1054500074E05BCF80E880936D0580936C0569E410
:1054600074E053CF80E480936D0580936C0560E415
:1054700074E04BCF39E0E316F1044CF164E572E0DF
:10548000C1010E94933870E060E0072E000C880B89
:10549000990B00911A0610911B06012E000C220B8D
:1054A000330BC0901C06D0901D06E0901E06F090B5
:1054B0001F060C0D1D1D2E1D3F1D06171707280763
:1054C00039070CF446CF11E01093EC0591CF809191
:1054D000B3058053990B24E6289FB001299F700DD6
:1054E00011248091B4054AE0849F600D711D112440
:1054F000605E71408091B5058053990B680F791FEC
:1055000077FD27CFC2CF0E94C80669387341810555
:10551000910508F413CD8091B3058333A9F483E09A
:10552000E816F10434F188E6C82EDD24D394E12C8A
:10553000F12CC0921C06D0921D06E0921E06F0923D
:105540001F066AE274E0E1CE843399F423E0E216A8
:10555000F1047CF082EC91E0A0E0B0E080931C06C6
:1055600090931D06A0931E06B0931F066AE174E097
:10557000CCCE67E174E0C9CE0E94C8066938734199
:105580008105910508F4DACC80911A0690911B06EA
:10559000843B910579F410921B0610921A066EEA6C
:1055A00073E0C1010E9493386FE074E0C1010E9472
:1055B000AE2FC4CCE4EBF0E0F0931B06E0931A06A8
:1055C0006AE772E0EECF6CE074E09FCE843009F4BD
:1055D00047C208F430C2883009F0D1CC60E086E0E0
:1055E0000E94B00560E087E00E94B0051092E605D9
:1055F00004C08091E6058111F1CF1092E705BFCC80
:10560000C090E805D090E905E090EA05F090EB0540
:1056100020E030E0A901C701B6010E94813587FD75
:1056200035C120E030E044EB53E4C701B6010E94ED
:10563000193218160CF42AC1C0927605D09277055B
:10564000E0927805F0927905C0927205D0927305C8
:10565000E0927405F092750520E030E044EB53E4ED
:10566000C701B6010E941932811108C01092760557
:105670001092770510927805109279058090ED05CB
:105680009090EE05A090EF05B090F005C0907605E3
:10569000D0907705E0907805F090790520E030E033
:1056A00040E450E4C501B4010E948F33A701960184
:1056B0000E94193287FF23C020E030E040E450E42C
:1056C000C501B4010E9490339B01AC01C701B60132
:1056D0000E94193287FF13C08091E605882309F4E0
:1056E0008CCF1092EC051092E8051092E90510920B
:1056F000EA051092EB0581E08093E70540CCC701F5
:10570000B6010E94E5346B01E0901A06F0901B068A
:105710006E157F059CF4F8E9CF1AFEEFDF0AB6019B
:105720000D2C000C880B990B0E942032609372059F
:10573000709373058093740590937505460128E96D
:10574000821A2EEF920AB601DD0C880B990B0E948B
:105750002032EA966CAF7DAF8EAF9FAFEA97409054
:10576000F3055090F4056090F5057090F605092C4E
:10577000000CAA08BB080F2C000C000B110B809129
:105780001C0690911D06A0911E06B0911F068E0D5D
:105790009F1DA01FB11FEA962CAD3DAD4EAD5FAD74
:1057A000EA9788169906AA06BB06D4F5C301B2018A
:1057B0000E948F336B017C0120E030E0A9010E9440
:1057C0008135181624F0F7FAF094F7F8F094C50133
:1057D000B4010E942032E6966CAF7DAF8EAF9FAFD2
:1057E000E697A30192010E948F334B015C0120E0F8
:1057F00030E0A9010E948135181624F0B7FAB09460
:10580000B7F8B094A5019401C701B6010E941932FE
:1058100087FF19C0EA962CAD3DAD4EAD5FADEA975E
:10582000C301B2010E94193287FD23C08091E605B1
:10583000883009F4FCC0823009F4F9C0843009F4DE
:10584000F6C080E120C0E696CCACDDACEEACFFAC9F
:10585000E697C0927205D0927305E0927405F092BB
:105860007505A3019201C701B6010E948135181682
:10587000ECF68091E605873009F4D9C08D7F813040
:1058800009F4D5C08FE08093E605D1C020E030E078
:1058900044EB53E4C701B6010E94813518160CF0A1
:1058A0009DCE60911A0670911B06072E000C880B86
:1058B000990B00911C0610911D0620911E06309137
:1058C0001F06600F711F821F931F0E9420329B01D1
:1058D000AC01C701B6010E94193218160CF47ECE35
:1058E00020E030E044EB53E4C701B6010E948F335F
:1058F000609376057093770580937805909379058A
:10590000C0927205D0927305E0927405F09275050D
:105910002091F3053091F4054091F5055091F6057D
:10592000A2CFC090E805D090E905E090EA05F0909C
:10593000EB05C0927205D0927305E0927405F09267
:10594000750520E030E044EB53E4C701B6010E9446
:10595000813587FF44C0C0927605D0927705E092EA
:105960007805F09279058090F3059090F405A09069
:10597000F505B090F605A7019601C501B4010E9496
:105980008F332B013C0120E030E0A9010E948135DA
:105990001816B4F520E030E040E450E4C301B20151
:1059A0000E94193287FD36C0A5019401C701B601D6
:1059B0000E94813518169CF58091E605873031F0FC
:1059C0008D7F813019F08FE08093E605A501940169
:1059D000C701B6010E94193287FF29C032CF20E0EB
:1059E00030E044EB53E4C701B6010E948F3360936B
:1059F0007605709377058093780590937905B3CFFA
:105A000020E030E040E450ECC301B2010E94813557
:105A1000181654F68091E6058111C6CFEECDA5018A
:105A20009401C701B6010E94193287FDFFCE83E0C1
:105A30008093E7050AC08091E6058D7F813019F0DB
:105A40008FE08093E6051092E7050E94C8066093F8
:105A50006E0570936F0580937005909371058FCAE2
:105A60008091E605823079F3843069F380E1E9CFF3
:105A700082ED93E00E948E0E8BEA94E00E948E0EDF
:105A80008091E705813009F413C208F40CC282301A
:105A900009F411C2833009F411C281EE94E00E942E
:105AA0008E0E6091ED057091EE058091EF0590915D
:105AB000F0050E949A0E87EE94E00E948E0E60918F
:105AC000F3057091F4058091F5059091F6050E941B
:105AD0009A0E8091E605882309F44CC081EF94E08A
