:020000040000FA
:100000000C9423040C9454040C9454040C94540441
:100010000C9454040C9454040C9454040C94540400
:100020000C9454040C9454040C9454040C945404F0
:100030000C9454040C9425230C9454040C945404F0
:100040000C9454040C9454040C9454040C945404D0
:100050000C9454040C9454040C9454040C944524AF
:100060000C9454040C940F240C94E5230C94540425
:100070000C9454040C9454040C9454040C945404A0
:100080000C9454040C9454040C9454040C94540490
:100090000C9454040C9454040C9454040C948F2425
:1000A0000C9454040C9454040C9454040C94540470
:1000B0000C9454040C9454040C9454040C94540460
:1000C0000C9454040C9454040C9454040C94AF23D6
:1000D0000C9485230C9454040C9454040C945404F0
:1000E0000C945404084AD73B3BCE016E84BCBFFD40
:1000F000C12F3D6C74319ABD56833DDA3D00C77FF8
:1001000011BED9E4BB4C3E916BAAAABE0000008090
:100110003F05A84CCDB2D44EB93836A9020C50B91F
:10012000918688083CA6AAAA2ABE000000803F0744
:10013000634236B79BD8A71A39685618AEBAAB5582
:100140008C1D3CB7CC5763BD6DEDFD753EF6177247
:1001500031BF000000803F08000000BE9224491219
:100160003EABAAAA2ABECDCCCC4C3E00000080BE3D
:10017000ABAAAAAA3E00000000BF000000803F001A
:1001800000000000084178D3BB4387D1133D190E0E
:100190003CC3BD4282AD2B3E68EC8276BED98FE176
:1001A000A93E4C80EFFFBE01C4FF7F3F000000006E
:1001B00000000C94B23E0C941A210C94DF3A0C947B
:1001C0006A070C9405210C9417210C946C2C0C9448
:1001D00013400C9462070C94F33A0C94C02D0C94C9
:1001E0007F2D0C94D53A0C94D4190C94A03A0C940D
:1001F0008E3A0C94753A0C9486180C9477070C94EC
:10020000360D0C94C70B0C948F070C94FD3A0C948C
:10021000C90B0C9408210C94323F0C94702C0C9454
:10022000613E0C944E400C948E3F0C94C82D0C945F
:100230005C070C9454060C949C070C941D210C94A0
:1002400081260C94B23A0C9405290C9485070C94E1
:10025000B42D0C943B2C0C94C93F0C94A1070C9426
:10026000C63A0C94F9200C94983A0C9479400C946A
:10027000EB0B0C9420210C94412E0C94073B0C9416
:10028000612E0C94C60B0C9404060C9423210C9440
:10029000D80B0C942A1A0C94C32D0C94FA190C94B4
:1002A00089190C9471070C943F290C947A110C94C1
:1002B00066070C9411210C94351A0C9497070C9432
:1002C00093070C94A83A0C94843A0C94201A0C943A
:1002D000E93A0C9440060C943E1E0C94492A0C9466
:1002E0006E070C946C190C94F20B0C9431060C9460
:1002F000B9190C9462060C94FC200C94173F0C94D2
:1003000002210C94CB280C94C80B0C947B070C9402
:100310001F0C0C94FF200C946D3A0C94A4190C94AF
:1003200081070C94F1060C94D83E0C949E190C9401
:10033000191A0C94350D0C940B210C94BC3A0C94A6
:10034000A4060C94FD2C0C9414210C940E210C94F6
:10035000DF190C94353F0C94F13E0C9426210C943B
:1003600089070C94051A0C94F52D0C949D070C9498
:100370007A3A00407A10F35A00A0724E1809001021
:10038000A5D4E80000E87648170000E40B5402000A
:1003900000CA9A3B000000E1F50500008096980035
:1003A000000040420F000000A0860100000010275E
:1003B00000000000E80300000000640000000000EE
:1003C0000A00000000000100000000002C76D88820
:1003D000DC674F0823DFC1DFAE59E1B1B796E5E333
:1003E000E453C63AE651997696E8E6C28426EB894C
:1003F0008C9B62ED407C6FFCEFBC9C9F40F2BAA5E9
:100400006FA5F490055A2AF75C936B6CF9676DC180
:100410001BFCE0E40D47FEF520E6B500D0ED902E84
:100420000300943577050080841E080000204E0AE2
:10043000000000C80C333333330F986E1283114120
:10044000EF8D2114893BE65516CFFEE6DB18D184EB
:100450004B381BF77C1D901DA4BBE4242032847212
:100460005E228100C9F124ECA1E53D27622066727D
:100470006565005741524E494E473A204C6F7720F0
:100480006D656D6F72793A20004449525459004E9F
:100490004F545F0009434F4E4649475F0020204FAD
:1004A00066667365743A00204F5645524C415000C1
:1004B00020205261775F417A5F52616E67653A0032
:1004C0002020526F746174696F6E5F436170616266
:1004D000696C6974793A00202053746172743A002F
:1004E00000002100240027002A002D0030003300E6
:1004F00001010000040107010A010000200023009F
:10050000260029002C002F0032000001000003010A
:1005100006010901010210202008081020401020C7
:1005200040800201020108040201010204081020B7
:1005300040808040201008040201800402018040B5
:10054000201008040201080402010102040810201E
:100550004080010204081020408000002200250095
:1005600028002B002E00310034000201000005019C
:1005700008010B0105050505070508080808020222
:1005800002020A0A0808040404040101010101012D
:1005900001010303030303030303040707070C0C10
:1005A0000C0C0C0C0C0C02020202060606060606D7
:1005B00006060B0B0B0B0B0B0B0B00000A0B0209B7
:1005C0000C0D0E08070304010000000000000000ED
:1005D000000000000000000000000000000000001B
:1005E00000000000000012111000000000000000D8
:1005F00000000000000000000000000000000000FB
:10060000417A696D75746820446973706C617920F2
:100610004D6F64653A205261772044656772656565
:100620007300417A696D75746820446973706C61F8
:1006300079204D6F64653A202B4F7665726C61703E
:1006400000417A696D75746820446973706C6179D2
:10065000204D6F64653A204E6F726D616C00436C83
:1006600065617265642063616C6962726174696F4F
:100670006E206F6666736574730053657474696E7B
:10068000677320736176656420696E20454550521A
:100690004F4D2C20726573657474696E6720756E9A
:1006A000697420696E2035207365636F6E64732EE4
:1006B0002E2E00496E697469616C697A65642065E3
:1006C0006570726F6D2C20726573657474696E67E6
:1006D00020756E697420696E2035207365636F6EB6
:1006E00064732E2E2E004572726F722E0054696D47
:1006F000657A6F6E65206F666673657420736574C6
:1007000020746F20004572726F722E2055736167DE
:10071000653A205C4F595959594D4D444448486DEC
:100720006D5B73735D006973200073657420746F73
:100730002000417A696D75746820726F7461746904
:100740006F6E206361706162696C69747920006901
:1007500073200073657420746F2000417A696D7591
:100760007468207374617274696E6720706F696E4B
:10077000742000417A696D7574682063616C6962E8
:10078000726174656420746F20003F3E00204365F1
:100790006E746572003F3E004D6F646520343530E5
:1007A00020646567726565004D6F6465203336307F
:1007B00020646567726565003F3E003F3E005370F0
:1007C00065656420583100537065656420583200B7
:1007D0005370656564205833005370656564205814
:1007E000340057726F746520746F206D656D6F7281
:1007F0007900526F7461746520746F2066756C6C3B
:100800002043435720616E642073656E64206B65DE
:10081000797374726F6B652E2E2E00526F74617433
:100820006520746F2066756C6C20435720616E6480
:100830002073656E64206B65797374726F6B652EBF
:100840002E2E0002812611241FBECFEFD1E2DEBF83
:10085000CDBF00E00CBF16E0A0E0B2E0EEE4F7EAA6
:1008600000E00BBF02C007900D92AA36B107D9F77E
:100870002CE0AAE6B6E001C01D92AF31B207E1F765
:1008800014E0C3E2D4E000E006C021970109802F04
:10089000FE010E943C4FC232D10780E00807A9F751
:1008A0000E945B270C94A5530C940000FC01A089C6
:1008B000B18982E08C93A485B5851C92A685B78505
:1008C0008FEC8C93108EA489B58986E08C93A289D5
:1008D000B3898C9180618C93A289B3898C91886053
:1008E0008C93A289B3898C9180688C930288F38958
:1008F000E02D80818F7D80830895CF93DF93EC017D
:10090000A091A60BB091A70B8091A50B8A9FF00137
:100910008B9FF00D11244A9F90014B9F300D5A9FE1
:10092000300D1124620F731F30E020E02E173F07B7
:10093000CCF4DE01A20FB31F9C91992389F0A90189
:10094000460F571F4E175F0744F4DA01A05AB64FFF
:100950009C93405F564FDA011C922F5F3F4FE6CFCA
:100960009F01FBCF81E080930909DF91CF9108952A
:10097000CF93DF93AB012091A60B3091A70BB90168
:1009800037FF02C06F5F7F4F75956795E091A50BAC
:10099000E29FD001E39FB00D1124F0E0E0E030E0F1
:1009A00020E0EA17FB0764F4EC01CE0FDF1FC881DB
:1009B000CC2321F02F5F3F4F3196F3CFFD01FCCFC9
:1009C00037FF02C02F5F3F4F35952795621B730B92
:1009D000DF91CF910C947D040F931F93CF93DF93FE
:1009E000C091FE0BEFEFFBE0CD3211F0EEEFFBE03C
:1009F0008F0120E030E0A901D801DD918D0180ED6B
:100A00008D0F8A3090F4AAE0B0E00E944B4F2D2F5A
:100A1000DD0F330B440B550B260F371F481F591F93
:100A20002053310941095109E7CFA4E6B0E00E9403
:100A30004B4FAB01BC01DF01819190ED980F9A30D3
:100A4000D0F38E3259F511968C91119790ED980F45
:100A50009A3020F5082E000C990BC0972AE0289FA9
:100A60008001299F100D1124012E000C220B330B45
:100A7000400F511F621F731F12968C9190ED980FBB
:100A80009A3060F4082E000C990BC097092E000CC8
:100A9000AA0BBB0B480F591F6A1F7B1FCD3239F4BD
:100AA00070956095509541955F4F6F4F7F4FCB018B
:100AB000BA01DF91CF911F910F9108954F925F92EC
:100AC0006F927F928F929F92AF92BF92CF92DF925E
:100AD000EF92FF921F93CF93DF93CEEFDBE0FE0107
:100AE000C12CD12C7601119180ED810F8A30A8F4B0
:100AF000AAE0B0E0A70196010E944B4FC12E110F52
:100B0000DD08EE08FF08C60ED71EE81EF91E80E3BA
:100B1000C81AD108E108F108E6CFC701B60124E6FA
:100B200030E040E050E00E94FB4E9B01AC0160EAE7
:100B300076E881E090E00E94D74E4B015C019E0177
:100B4000899190ED980F9A30D0F38E3221F5E9011A
:100B5000219680E1482E87E2582E612C712CA991B4
:100B600080ED8A0F8A30B8F40A2E000CBB0BD097A8
:100B7000A30192010E94564F860E971EA81EB91E11
:100B8000C301B2012AE030E040E050E00E94FB4E99
:100B900029013A01E4CFC701B60124E630E040E084
:100BA00050E00E94FB4E60E472E48FE090E00E940F
:100BB000D74E6B017C01C501B4016D5F7F4F8F4F34
:100BC0009F4F26E030E040E050E00E94FB4EC7011E
:100BD000B601620F731F841F951FDF91CF911F9184
:100BE000FF90EF90DF90CF90BF90AF909F908F904D
:100BF0007F906F905F904F900895DC01ED91FC9194
:100C00000190F081E02D1994AF92BF92CF92DF92C4
:100C1000EF92FF920F931F93CF93DF936C017B01B1
:100C20008B01040F151FEB015E01AE18BF08C01742
:100C3000D10759F06991D601ED91FC910190F081B5
:100C4000E02DC6011995892B79F7C501DF91CF9168
:100C50001F910F91FF90EF90DF90CF90BF90AF90DA
:100C60000895FC01538D448D252F30E0842F90E0B2
:100C7000821B930B541710F0CF9608950197089597
:100C8000FC01918D828D981761F0A28DAE0FBF2F60
:100C9000B11D5D968C91928D9F5F9F73928F90E0B6
:100CA00008958FEF9FEF0895FC01918D828D981725
:100CB00031F0828DE80FF11D858D90E008958FEF62
:100CC0009FEF0895FC01918D228D892F90E0805C2B
:100CD0009F4F821B91098F739927089581E59AE0B0
:100CE0000E94620621E0892B09F420E0822F0895FA
:100CF0008EEE9AE00E94620621E0892B09F420E042
:100D0000822F0895FC01A48DA80FB92FB11DA35AFD
:100D1000BF4F2C91848D90E001968F739927848F1B
:100D2000A689B7892C93A089B1898C91837080643E
:100D30008C93938D848D981306C00288F389E02DDF
:100D400080818F7D80830895EF92FF920F931F9390
:100D5000CF93DF93EC0181E0888F9B8D8C8D98136E
:100D60001AC0E889F989808185FF15C09FB7F8947A
:100D7000EE89FF896083E889F989808183708064C6
:100D800080839FBF81E090E0DF91CF911F910F9111
:100D9000FF90EF900895F62E0B8D10E00F5F1F4F20
:100DA0000F731127E02E8C8D8E110CC00FB607FC2F
:100DB000FACFE889F989808185FFF5CFCE010E94BD
:100DC0008206F1CFEB8DEC0FFD2FF11DE35AFF4FA3
:100DD000F0829FB7F8940B8FEA89FB89808180624B
:100DE000CFCFCF93DF93EC01888D8823B9F0AA8908
:100DF000BB89E889F9898C9185FD03C0808186FDD6
:100E00000DC00FB607FCF7CF8C9185FFF2CF808124
:100E100085FFEDCFCE010E948206E9CFDF91CF9111
:100E2000089580E090E0892B29F00E9478068111D6
:100E30000E94000080E090E0892B49F080E090E083
:100E4000892B29F00E94000081110E94000080E09F
:100E500090E0892B29F00E946E0681110E9400000B
:100E600080E090E0892B49F080E090E0892B29F028
:100E70000E94000081110C9400000895815082317D
:100E800008F05AC0E82FF0E08827E65BF84F8F4F54
:100E90000C943C4F6A076E075C07620766079C0765
:100EA000710777077B078107850789078F079307F6
:100EB0009C0797079D07A107809180008F778093FB
:100EC00080000895809180008F7DF9CF809180000F
:100ED000877FF5CF84B58F7784BD089584B58F7DE6
:100EE000FBCF8091B0008F778093B0000895809100
:100EF000B0008F7DF9CF809190008F778093900024
:100F00000895809190008F7DF9CF80919000877F28
:100F1000F5CF8091A0008F778093A00008958091F5
:100F2000A0008F7DF9CF8091A000877FF5CF8091C1
:100F300020018F77809320010895809120018F7D7B
:100F4000F9CF80912001877FF5CFCF93DF93282FB2
:100F500030E0F901E654FA4F8491F901EC5EFA4F62
:100F6000D491F901EC58FA4FC491CC23A1F081112E
:100F70000E943E07EC2FF0E0EE0FFF1FE650FB4F04
:100F8000A591B491EC91ED2381E090E009F480E02B
:100F9000DF91CF91089580E090E0FACF1F93CF9337
:100FA000DF93282F30E0F901E654FA4F8491F901DC
:100FB000EC5EFA4FD491F901EC58FA4FC491CC236E
:100FC000A9F0162F81110E943E07EC2FF0E0EE0FE2
:100FD000FF1FE65AFA4FA591B4918FB7F894EC91A0
:100FE000111108C0D095DE23DC938FBFDF91CF9124
:100FF0001F910895DE2BF8CF9091090289130DC03F
:10100000E3E4F8E0E4919FEF90930902E230E1F02D
:1010100038F4EE2381F0E13089F060E00C94CE07E3
:10102000E43049F110F1E530C1F7909173009D7FF4
:1010300090937300F2CF10926E00EFCF90916F00FB
:101040009D7F90936F00E9CF909170009D7F90936A
:10105000700091E09093B0009091B100987F9460FF
:101060009093B1001092B300D8CF909171009D7F02
:1010700090937100D2CF909172009D7F90937200F7
:10108000CCCFCF93DF9390E0FC01EC5EFA4F24913C
:101090008C589A4FFC0184918823D1F090E0880FFE
:1010A000991FFC01E052FB4FA591B491FC01E65A57
:1010B000FA4FC591D49161110EC09FB7F8948C91ED
:1010C000E22FE0958E238C932881E223E8839FBF53
:1010D000DF91CF9108958FB7F894EC91E22BEC93C8
:1010E0008FBFF6CF863308F0865320917B00982F70
:1010F0009870277F922B90937B00877080648093F9
:101100007C0080917A00806480937A0080917A00DC
:1011100086FDFCCF809178009091790008953FB7CB
:10112000F89480919A0790919B07A0919C07B091A9
:101130009D0726B5A89B05C02F3F19F00196A11D5C
:10114000B11D3FBFBA2FA92F982F8827BC01CD0111
:10115000620F711D811D911D42E0660F771F881F70
:10116000991F4A95D1F708958F929F92AF92BF929F
:10117000CF92DF92EF92FF924B015C010E948F08A9
:101180006B017C010E948F086C197D098E099F09F3
:10119000683E734081059105A8F321E0821A910809
:1011A000A108B10888EEC80E83E0D81EE11CF11C2E
:1011B00081149104A104B10429F7FF90EF90DF900E
:1011C000CF90BF90AF909F908F9008952FB7F894D5
:1011D0006091960770919707809198079091990771
:1011E0002FBF089560938A0770938B0780938C07B5
:1011F00090938D07645D7E4F8F4F9F4F609386075E
:1012000070938707809388079093890782E090E026
:1012100090938507809384070E94E6086093800777
:1012200070938107809382079093830708952F928C
:101230003F924F925F926F927F928F929F92AF9266
:10124000BF92CF92DF92EF92FF920F931F93CF93B3
:10125000DF9300D000D0CDB7DEB789839B836A834C
:101260007C835E834D83F90124E6E216F1040CF4DD
:1012700066C032EBE31A37E0F30AE092940700937A
:101280009307E0939207A981A0939007BA81B09346
:101290008F072D8120938E07AE2DB0E020E833E339
:1012A00041EE51E00E944B4F2B013C0122EB37E015
:1012B000FF2444E6A42EB12C50E9C52EDD24D3949E
:1012C000C901825B97408E159F05ECF13EE4E31A5D
:1012D00038EFF30AC70164E670E00E94E74E1C0194
:1012E000C70160E971E00E94E74E4C018CE1A82E35
:1012F00082E0B82ECC24C394D12C83E0E822FF24D2
:10130000C016D1060CF049C0B2E0CB16D104B1F53D
:10131000E114F10499F52114310419F481149104B4
:1013200069F520E8420E2BE3521E26E2621E711C74
:10133000BFEFCB1ADB0A2FEFA21AB20AE1CF8EE180
:10134000E80EF11C9ACFC90183709927892B99F473
:10135000C901B5010E94E74E892B31F4C901B601DC
:101360000E94E74E892B39F4A0E84A0EA1E55A1EE7
:10137000A1E06A1E711C2F5F3F4FA2CFD5018C9157
:10138000A82FB0E020E831E541E050E00E944B4F4B
:10139000460E571E681E791ECBCF2CE330E0AA8183
:1013A000BC810E94444FAD81BE816D01BB0FEE0830
:1013B000FF08C60ED71EE81EF91E20E13EE0A981F7
:1013C000BB810E94444FC60ED71EE81EF91EDF01E6
:1013D000119720E831E541E050E00E94564F6C0D36
:1013E0007D1D8E1D9F1D640D751D861D971D2696E6
:1013F0000FB6F894DEBF0FBECDBFDF91CF911F9126
:101400000F91FF90EF90DF90CF90BF90AF909F90A3
:101410008F907F906F905F904F903F902F900C94A3
:10142000F208CF92DF92EF92FF920F931F930E94E8
:10143000E6088B019C01C0908007D0908107E09066
:101440008207F090830760918A0770918B078091E3
:101450008C0790918D070C191D092E093F09083E34
:10146000134021053105E0F0DC01CB010196A11DFF
:10147000B11D80938A0790938B07A0938C07B0933C
:101480008D07B701A60148515C4F6F4F7F4F4093C6
:101490008007509381076093820770938307C7CFBB
:1014A0001F910F91FF90EF90DF90CF9008954F9292
:1014B0005F926F927F928F929F92AF92BF92CF92E4
:1014C000DF92EF92FF920F931F93CF93DF934B0125
:1014D0005C0180917C0790917D07A0917E07B0917F
:1014E0007F0788159905AA05BB0509F4C6C08CE3DA
:1014F000C82ED12CE12CF12CC501A70196010E9428
:10150000FB4E60938E07CA01B901A70196010E94A4
:10151000FB4E60938F07C501B40120E13EE040E03F
:1015200050E00E94FB4ECA01B90128E130E040E0E2
:1015300050E00E94FB4E60939007C501B40120E883
:1015400031E541E050E00E94FB4E69017A01CA0199
:10155000B9016C5F7F4F8F4F9F4F27E030E040E035
:1015600050E00E94FB4E6F5F60939107412C512C1D
:10157000320140E004E610E0C0E9D1E0242F30E081
:101580002E54384FF901E370FF273097F9F4C90161
:10159000B8010E94E74E892B31F4C901BE010E94B7
:1015A000E74E892B99F48EE691E0A0E0B0E0480E7A
:1015B000591E6A1E7B1ED301C201AA27BB27C8166B
:1015C000D906EA06FB0638F04F5FD8CF8DE691E0EA
:1015D000A0E0B0E0ECCF40939407C90164E670E06E
:1015E0000E94E74EEC01C90160E971E00E94E74EFC
:1015F000309721F42097D9F40097C9F04DE651E0D7
:1016000060E070E0441A550A660A770AC418D508E3
:10161000E608F708ACE1B2E020E0213069F4309749
:10162000E9F5209711F40097C9F54DE106C04EE6A3
:1016300051E060E070E0E6CF4C9150E070E060E097
:1016400031E0320FC416D506E606F70640F0C41A9C
:10165000D50AE60AF70A1196232F3C30F1F62F5FE0
:1016600020939307C394C092920780927C07909234
:101670007D07A0927E07B0927F07DF91CF911F91E7
:101680000F91FF90EF90DF90CF90BF90AF909F9021
:101690008F907F906F905F904F9008954CE1CDCFE9
:1016A0000E94110A0E94570A80918F0790E00895C6
:1016B0000E94110A0E94570A8091900790E00895B5
:1016C00020913007260F3327331F21323105ECF4E8
:1016D00020915607FC0190E080E0243069F082E020
:1016E0000895A09130072191AC01425F584FA40F9B
:1016F000B52FB11D2C930196861798F38091300772
:10170000680F6093300780E0089581E0089510929B
:10171000560781E0809358071092570761E084E1F3
:101720000E94CE0761E085E10E94CE07E9EBF0E080
:1017300080818E7F808380818D7F808388E4809309
:10174000B80085E48093BC000895CF93DF9391E0C7
:1017500090930D078823B9F0C091B800D091BA00DA
:101760008091BC008A7B8093BC0060E084E10E9491
:10177000CE0760E085E10E94CE070E94870BD093E0
:10178000BA00C093B800DF91CF91089508950895ED
:101790000895E091050780910407E81730F4F0E020
:1017A000EC51F94F808190E008958FEF9FEF0895FD
:1017B00090910507809104072FEF3FEF981748F4A9
:1017C000E92FF0E0EC51F94F208130E09F5F9093DA
:1017D0000507C90108958091040790910507891BA9
:1017E000990B0895CF92DF92EF92FF920F931F9380
:1017F000CF93DF937C01CB018A012091E306222362
:1018000089F0EB016B01C40ED51ECC15DD0569F026
:101810006991D701ED91FC910190F081E02DC70114
:101820001995F3CF642F0E94600BC801DF91CF910F
:101830001F910F91FF90EF90DF90CF900895CF937D
:10184000DF931F92CDB7DEB769832091E306222391
:10185000F9F020910607203258F021E030E0FC0139
:101860003383228390E080E00F90DF91CF91089541
:1018700080910707E82FF0E0ED53F94F99819083AD
:101880008F5F809307078093060781E090E0ECCF9D
:1018900061E0CE0101960E94600BF7CFCF92DF92FC
:1018A000EF92FF920F931F93CF93DF93FC01C481BC
:1018B00021E02093E306C093C2061092070710921E
:1018C00006078385682B8BE89BE00E941F0CD09154
:1018D0000607D13208F092C00E948F086B017C018C
:1018E00080915607811165C082E08093560781E0A0
:1018F000809358078FEF8093550710927A07D09303
:101900007907A3ECB6E0E9E5F7E080E0D81385C0FD
:1019100010927B0780917B07CC0FC82BC0937B076D
:1019200080915707813009F07CC0109257070E94C0
:101930008F086B017C0180917B078093BB008091B5
:10194000090790910A07A0910B07B0910C07892B0A
:101950008A2B8B2B99F00E948F0800910907109118
:101960000A0720910B0730910C076C197D098E092D
:101970009F090617170728073907E0F18091BC0077
:1019800083FDD9CF85EC8093BC000E948F086B014A
:101990007C0180915607823009F445C0809155073B
:1019A0008F3F61F180915507803241F18091550759
:1019B00025C08091090790910A07A0910B07B0916B
:1019C0000C07892B8A2B8B2B09F48ACF0E948F0856
:1019D0000091090710910A0720910B0730910C071D
:1019E0006C197D098E099F09061717072807390703
:1019F00008F076CF809108070E94A50B1092070788
:101A0000109206071092E306DF91CF911F910F917C
:101A1000FF90EF90DF90CF9008959D9191938F5F0D
:101A200075CF85EEB0CF8091090790910A07A091FC
:101A30000B07B0910C07892B8A2B8B2B09F4A9CFAC
:101A40000E948F080091090710910A0720910B0747
:101A500030910C076C197D098E099F09061717072D
:101A60002807390708F095CFC5CF089590E080E0AA
:101A70000895CF93DF93EC01FE016491662389F012
:101A80008091630880FF0BC080916108909162088B
:101A9000DC01ED91FC910190F081E02D19952196EA
:101AA000EBCFDF91CF91089560E086E00E94CE07F2
:101AB00061E087E00C94CE074F925F926F927F9225
:101AC0008F929F92AF92BF92CF92DF92EF92FF924E
:101AD000CF93DF9300D01F92CDB7DEB749015A01F3
:101AE00020E030E044EB52E40E943F4A6B017C016D
:101AF00020E030E044E353E4C501B4010E943F4AD2
:101B00004B015C0120E030E040EA51E40E94274BA9
:101B10000E94994B2B0181E4840DEAE7F6E0808373
:101B200020E030E040E251E4C701B6010E94274BBB
:101B30000E94994B69837A838B839C8389818F5B15
:101B400080937B0684E1849DB001859D700D1124F6
:101B5000072E000C880B990B0E94D14B9B01AC0106
:101B6000C501B4010E943E4A20E030E040E05FE35E
:101B70000E94F44C0E94994B605D60937C068AE061
:101B800029813A81829FB001839F700D1124072E15
:101B9000000C880B990B0E94D14B9B01AC01C70133
:101BA000B6010E943E4A0E94994B605D60937D069B
:101BB00020E030E040E05FE3C501B4010E94F44C56
:101BC0000E94994B660F771F072E000C880B990B0C
:101BD0000E94D14B9B01AC01C501B4010E943E4A59
:101BE0002BEA3AEA4AEA5DE30E94274B0E94994BAE
:101BF0006F5960937E06C701B6010E94994B072E6C
:101C0000000C880B990B0E94D14B9B01AC01C701C2
:101C1000B6010E943E4A2BEA3AEA4AE25DE30E949C
:101C2000274B0E94994B6F5960937F061092800654
:101C30008AE796E00F900F900F900F90DF91CF9171
:101C4000FF90EF90DF90CF90BF90AF909F908F90DC
:101C50007F906F905F904F90089580910708982F24
:101C60009D7F913069F0853059F08B3049F0982F85
:101C70009B7F923039F0877F843021F080E0089597
:101C800081E0089582E008954F925F926F927F9273
:101C90008F929F92AF92BF92CF92DF92EF92FF927C
:101CA000CF93DF93C82F0E94E608C0906A06D090B9
:101CB0006B06E0906C06F0906D066C197D098E093C
:101CC0009F09653671058105910518F4CC2309F447
:101CD000CDC086E30E947208EC019093BA0780930E
:101CE000B907C0902F08D09030080D2C000CEE08DA
:101CF000FF08C701B6010E94D14B4B015C01609106
:101D00000F0870911008072E000C880B990B0E9489
:101D1000D14B2B013C0160913108709132088091C8
:101D20003308909134086C0D7D1D8E1D9F1D0E94FF
:101D3000D14BA50194010E943E4A6B017C01BE017A
:101D4000DD0F880B990B0E94D14BA30192010E94D9
:101D50003E4A9B01AC01C701B6010E94F44C6B01E5
:101D60007C016091110870911208072E000C880BFD
:101D7000990B0E94D14BA30192010E943E4A9B0104
:101D8000AC01C701B6010E94274BA50194010E9436
:101D90003F4A4B015C018092080890920908A0928A
:101DA0000A08B0920B08C0902708D0902808E0904D
:101DB0002908F0902A0820E030E0A901C701B60107
:101DC0000E941D4B87FF12C0A7019601C701B601F3
:101DD0000E943F4AA50194010E943F4A609308086F
:101DE0007093090880930A0890930B08C090080824
:101DF000D0900908E0900A08F0900B0820E030E04D
:101E000044EB53E4C701B6010E94E74C87FD3DC097
:101E100020E030E044EB53E4C701B6010E94274BB9
:101E20000E94994B072E000C880B990B0E94D14BF6
:101E300020E030E044EB53E40E94F44C9B01AC0101
:101E4000C701B6010E943E4A60934208709343085E
:101E500080934408909345080E94E60860936A06C0
:101E600070936B0680936C0690936D06DF91CF9113
:101E7000FF90EF90DF90CF90BF90AF909F908F90AA
:101E80007F906F905F904F90089520E030E0A9011F
:101E9000C701B6010E941D4B87FF09C020E030E05A
:101EA00044EB53E4C701B6010E943F4ACDCFC09234
:101EB0004208D0924308E0924408F0924508CCCF03
:101EC00068EC70E080E090E00E94B40880916108C6
:101ED00090916208DC01ED91FC910084F185E02D88
:101EE0001995892B71F08091610890916208DC014D
:101EF000ED91FC910284F385E02D19958093F30711
:101F0000E5CF08958091610890916208DC01ED9120
:101F1000FC910084F185E02D1995892B99F380912E
:101F2000610890916208DC01ED91FC910084F185DB
:101F3000E02D19951816190674F480916108909196
:101F40006208DC01ED91FC910284F385E02D199586
:101F50008093F307E4CF08950F931F93CF938C01E1
:101F6000C62F0E944E0C6C2F6460C8010E944E0C5C
:101F70006C2F6B7FC8010E944E0C83EC90E00197A0
:101F8000F1F7CF911F910F9108950F931F93CF9366
:101F9000DF938C01D62FC42F607F642B0E94AC0F7F
:101FA00080E1D89FB00111246C2BC801DF91CF9143
:101FB0001F910F910C94AC0FCF93DF9300D000D002
:101FC0001F921F92CDB7DEB798E0E4E1F2E0DE01A8
:101FD000119601900D929A95E1F790919F0B9617AB
:101FE00010F46FEF690F262F30E0220F331F41E00E
:101FF00050E04C0F5D1F240F351FF9016081680F01
:10200000606840E087E99BE028960FB6F894DEBF51
:102010000FBECDBFDF91CF910C94C50FAF92BF9291
:10202000CF92DF92EF92FF920F931F93CF93DF93A4
:1020300060919D0B6D7F60939D0B686040E087E928
:102040009BE00E94C50F60E080E00E94DC0F80EB07
:10205000C82E89E0D82E90E1E92E99E0F92E01E012
:102060001AE0C0E6D9E090E09E0120563940609128
:10207000A60B7091A70B8091A50B869FA001879F4F
:10208000500D1124241735070CF047C0F601A0802D
:10209000B880AB1431F1911105C0C9010E94E74E1F
:1020A0000E94DC0FF701808180FF04C08091000A4C
:1020B00060E281116B2D87E99BE00E94FD0588811C
:1020C000F6018083F7018081F801808391E02196F9
:1020D000FFEFCF1ADF0A8FEFE81AF80A0F5F1F4FE2
:1020E000C3CFB090000A80910F098B15A1F0F801C1
:1020F000808180FFECCF911105C0C9010E94E74E9D
:102100000E94DC0F6A2DB11001C060E287E99BE0FC
:102110000E94FD05DBCF90E0DACF8091000A80932A
:102120000F09DF91CF911F910F91FF90EF90DF90FA
:10213000CF90BF90AF9008950F931F93CF93DF93ED
:1021400060919D0B6D7F60939D0B686040E087E917
:102150009BE00E94C50F60E080E00E94DC0FC0EBB6
:10216000D9E001E01AE0C80181509A406091A60BC5
:102170007091A70B4091A50B469F9001479F300D92
:10218000112482179307A4F40E94E74E0E94DC0FEB
:10219000F80181918F0180FF04C08091000A60E204
:1021A0008111688187E99BE00E94FD052196DBCFC4
:1021B000DF91CF911F910F9108950F931F93CF93AC
:1021C000DF9380910E09882369F10E94E60800914F
:1021D0000509109106092091070930910809601737
:1021E00071078207930708F44CC0E4EBF8E080E63F
:1021F00099E0C4E6D8E040E159E02191DC012D935B
:10220000CD012991DA012D93AD01B9E0E430FB074E
:10221000A1F70E940E1010920E09DF91CF911F912D
:102220000F91089580910909882359F10E94E608C9
:1022300000910A0910910B0920910C0930910D09A8
:10224000AB01BC01401B510B620B730B8091A30BC4
:102250009091A40B092E000CAA0BBB0B4817590731
:102260006A077B0770F00E940E100E94E6086093D8
:102270000A0970930B0980930C0990930D09109231
:10228000090980910409882339F00E940E101092E8
:10229000040910920909C1CF0E94E60800910A02C0
:1022A00010910B0220910C0230910D026017710702
:1022B0008207930708F4B1CF8091000A8823B1F018
:1022C0001092000A0E94E6086C507E4F8F4F9F4F7D
:1022D00060930A0270930B0280930C0290930D029C
:1022E000DF91CF911F910F910C949C1081E080930E
:1022F000000AE8CF41E00E94C50F81E090E0089518
:102300004F925F926F927F928F929F92AF92BF9205
:10231000CF92DF92EF92FF92CF93809107088F3098
:1023200079F48091B8078093B70761E086E00E9456
:10233000CE0760E087E00E94CE0783E08093070825
:1023400080910708803149F48091B8078093B707DE
:102350000E94540D84E0809307088091070887301D
:1023600009F5C1E0C093B70761E086E00E94CE079F
:1023700060E087E00E94CE070E94E6086093760640
:102380007093770680937806909379061092720680
:1023900010927306109274061092750610927106D0
:1023A000C0930708809107088830E1F481E08093AA
:1023B000B7070E94540D0E94E6086093760670935A
:1023C00077068093780690937906109272061092A1
:1023D000730610927406109275061092710682E0D0
:1023E00080930708809107088930A1F41092700645
:1023F0000E94E6080E94E6086093720670937306D6
:10240000809374069093750687EC80936F068BE03B
:1024100080930708809107088A30A1F41092700613
:102420000E94E6080E94E6086093720670937306A5
:10243000809374069093750687EC80936F068CE00A
:1024400080930708809107088D30A9F481E080937C
:1024500070060E94E6080E94E60860937206709378
:102460007306809374069093750687EC80936F06CD
:102470008CE080930708809107088E30A9F481E0F2
:10248000809370060E94E6080E94E6086093720638
:1024900070937306809374069093750687EC80930F
:1024A0006F068BE080930708C09107088FEF8C0FB1
:1024B0008230F0F40E94E608C0907606D09077064D
:1024C000E0907806F09079066C197D098E099F09D5
:1024D000603D77408105910508F4D8C083E0C130A4
:1024E00009F084E0809307088091B8078093B707CC
:1024F000C091070885EF8C0F823008F065C00E94FC
:10250000E608C0907206D0907306E0907406F090D2
:1025100075066C197D098E099F096A307105810560
:10252000910508F451C0F0906F066091B70770E014
:1025300090E080E00E94D14B4B015C016F2D70E078
:1025400090E080E00E94CF4B20E030E048E453E48C
:102550000E94274B9B01AC01C501B4010E94F44CC1
:102560000E94994B6093B7070E94E6086093720639
:10257000709373068093740690937506FF2019F08C
:10258000FA94F0926F0680916F0681111DC060E091
:1025900086E00E94CE0760E087E00E94CE0780912F
:1025A0007006882309F4C1C0CB3029F484E08093FD
:1025B000070810927006809107088C3029F483E098
:1025C0008093070810927006C09107088BEF8C0F5C
:1025D000823008F4AFC0CC2309F44AC080910608C9
:1025E000833009F045C0C090FE07D090FF07E0900F
:1025F0000008F09001084090080850900908609089
:102600000A0870900B08A7019601C301B2010E944D
:102610003E4A4B015C018C2F8D7F813019F0C53013
:1026200009F041C120E030E0A901C501B4010E94D8
:10263000E74C18160CF0D8C020E030E040E450E43D
:10264000C501B4010E941D4B87FDD9C0A3019201B1
:10265000C701B6010E941D4B87FF0AC020E030E091
:1026600040E051E4C501B4010E941D4B87FDC7C085
:10267000CF91FF90EF90DF90CF90BF90AF909F9061
:102680008F907F906F905F904F9008950E94E60822
:10269000C0907206D0907306E0907406F0907506B4
:1026A0006C197D098E099F096536710581059105B3
:1026B00008F41ECF6091B807623008F419CFC091BA
:1026C00071066150770B072E000C880B990B0E9446
:1026D000D14B6B017C016C2F70E090E080E00E9498
:1026E000CF4B20E030E048E951E40E94274B9B01AA
:1026F000AC01C701B6010E94F44C20E030E040E894
:102700005FE30E943F4A0E94A04B6093B7070E947C
:10271000E608609372067093730680937406909334
:102720007506CF5FC0937106E3CE10920708109232
:1027300006084ACF209108083091090840910A08FC
:1027400050910B086091FE077091FF07809100087F
:10275000909101080E943E4A2B013C0120E030E0AC
:10276000A9010E94E74C181624F077FA709477F8C4
:102770007094F0906F066F2D70E090E080E00E9402
:10278000CF4B20E030E048E453E40E94274B4B015C
:102790005C0120E030E040E251E40E94F44CA301EF
:1027A00092010E94E74C87FD16CF60916E0664513E
:1027B000770B072E000C880B990B0E94D14BA501BB
:1027C00094010E94F44C20E030E040EA51E40E9481
:1027D0003F4A0E94A04B6093B707FF2009F4FBCE4D
:1027E000FA94F0926F06FACE20E030E040E450EC2C
:1027F000C501B4010E94E74C18160CF027CF62E324
:1028000070E080E090E00E94B40880E00E94440EF6
:10281000409008085090090860900A0870900B08D2
:10282000A7019601C301B2010E943E4A4B015C011F
:1028300020E030E0A9010E94E74C1816BCF420E02B
:1028400030E040E450E4C501B4010E941D4B87FF15
:1028500017C060E086E00E94CE0760E087E00E943B
:10286000CE07109207081092060802CF20E030E051
:1028700040E450ECC501B4010E94E74C18164CF33B
:10288000A3019201C701B6010E941D4B87FFF0CE44
:1028900020E030E040E051E4C501B4010E941D4B4E
:1028A00087FDD7CFE5CE20E030E0A901C501B40116
:1028B0000E94E74C181614F520E030E040E450E4A4
:1028C000C501B4010E941D4B87FD22C0A3019201E6
:1028D000C701B6010E94E74C18160CF0C9CEA3013F
:1028E0009201C701B6010E943E4A20E030E040E07C
:1028F00051E40E941D4B87FFBBCE0AC020E030E0B0
:1029000040E450ECC501B4010E94E74C1816F4F6FF
:1029100062E370E080E090E00E94B40880E00E94F2
:10292000440E8090080890900908A0900A08B09082
:102930000B08A7019601C501B4010E943E4A2B0174
:102940003C0120E030E0A9010E94E74C1816F4F4A5
:1029500020E030E040E450E4C301B2010E941D4B8E
:1029600087FD77CFA5019401C701B6010E94E74C0E
:1029700018160CF07DCEA5019401C701B6010E9486
:102980003E4A20E030E040E051E488CF20E030E0F3
:1029900040E450ECC301B2010E94E74C18160CF45D
:1029A00058CFE0CFFB0101900020E9F73197AF014C
:1029B000461B570BDC01ED91FC910280F381E02D69
:1029C0001994EF92FF920F931F93CF93DF938C0193
:1029D0007B01D0E0C0E0F701EC0FFD1F649166239E
:1029E00061F0D801ED91FC910190F081E02DC801DA
:1029F0001995892B11F02196EECF6FE572E0C80191
:102A00000E94D2148C0F9D1FDF91CF911F910F91C7
:102A1000FF90EF900895CF93DF93EC01FE01649156
:102A20008091610890916208662369F020916308A3
:102A300020FF07C0DC01ED91FC910190F081E02DB9
:102A400019952196EBCF6FE572E0DF91CF910C9451
:102A5000D2148F929F92AF92BF92EF92FF920F93F8
:102A60001F93CF93DF93CDB7DEB7A1970FB6F8943E
:102A7000DEBF0FBECDBF7C01FA01CB0119A222300F
:102A800008F42AE08E010F5D1F4F822E912CB12C8D
:102A9000A12CBF01A50194010E94FB4EF901CA01BE
:102AA0006A300CF5605DD8016E938D01232B242BC9
:102AB000252B79F790E080E0109721F0BD01C70148
:102AC0000E94D214A1960FB6F894DEBF0FBECDBF00
:102AD000DF91CF911F910F91FF90EF90BF90AF903A
:102AE0009F908F900895695CDECFCF92DF92EF9236
:102AF000FF92CF93DF932091630820FF22C0C09103
:102B00006108D09162086C01990FEE08FF082AE075
:102B1000B701A601F7FE0CC06DE2CE010E94FD05D3
:102B200044275527BA014C195D096E097F092AE02F
:102B3000CE01DF91CF91FF90EF90DF90CF900C947A
:102B40002915DF91CF91FF90EF90DF90CF900895FE
:102B50002091630820FF09C0009739F0BC018091E3
:102B60006108909162080C94D2140895CF93DF937A
:102B70002091630820FF0FC0BC01C0916108D09173
:102B80006208CE010E94D2146FE572E0CE01DF919F
:102B9000CF910C94D214DF91CF9108956F927F92D0
:102BA0008F929F92AF92BF92CF92DF92EF92FF925D
:102BB0000F931F93CF93DF93CDB7DEB7C054D109E6
:102BC0000FB6F894DEBF0FBECDBF6C014B011AA249
:102BD00019A28EE1FE01B396DF01282F1D922A95DE
:102BE000E9F71A821982B097DF011D928A95E9F7F9
:102BF000F60101900020E9F7C6018E1B9F0B9C0196
:102C00002B5E3F4F79018E010F5D1F4F1216130689
:102C1000D4F4390175946794B12CA12C6A147B0407
:102C200091F0F80101900020E9F73197E01BF10BDA
:102C30007F9748F46DE074E0C8010E94AE503FEF0A
:102C4000A31AB30AEBCF44E150E0B601CE010196DE
:102C50000E94C050BE016F5F7F4FC8010E94AE50FE
:102C60001E141F040CF55701B594A794D12CC12C48
:102C7000AC14BD0491F0F80101900020E9F7319700
:102C8000E01BF10B7F9748F46DE074E0C8010E94EF
:102C9000AE508FEFC81AD80AEBCFE0FE05C06DE04A
:102CA00074E0C8010E94AE50B401C8010E94B8048B
:102CB000C05CDF4F0FB6F894DEBF0FBECDBFDF9113
:102CC000CF911F910F91FF90EF90DF90CF90BF9029
:102CD000AF909F908F907F906F9008952F923F922A
:102CE0004F925F926F927F928F929F92AF92BF921C
:102CF000CF92DF92EF92FF920F931F93CF93DF93C8
:102D000000D0CDB7DEB79B838A831B018A017C018B
:102D10006C0126E0C20ED11CF70181917F01082EC3
:102D2000000C990B0E94A650F70131978083CE14B6
:102D3000DF0491F7EA81FB8184818154883120F49A
:102D400085818154883128F08DE4EA81FB81848378
:102D50008583EA81FB818181082E000C990B8154C7
:102D600091092AE0289FB001299F700D1124072E98
:102D7000000C880B990B0E94D14B4B015C01EA813E
:102D8000FB816381605369836581062E000C770B9C
:102D900061547109072E000C880B990B0E94D14BCE
:102DA0002BEA3AEA4AE25DE30E94F44C2BEA3AEA63
:102DB0004AEA5CE30E943F4A6B017C01EA81FB81A5
:102DC0008081082E000C990B8154910924E1289FE1
:102DD000B001299F700D1124072E000C880B990B50
:102DE0000E94D14B2B013C01EA81FB816281660F7D
:102DF000605670E090E080E00E94D14B9B01AC01F6
:102E0000C301B2010E943F4A2B013C01EA81FB81D0
:102E10006481062E000C770B61547109072E000C9B
:102E2000880B990B0E94D14B2BEA3AEA4AEA5DE300
:102E30000E94F44C2BEA3AEA4AE25DE30E943F4AE0
:102E40009B01AC01C301B2010E943F4A20E030E087
:102E500044E353E40E943E4AF80160837183828315
:102E60009383F9816F2F70E090E080E00E94D14B56
:102E7000A50194010E943F4AA70196010E943F4A82
:102E800020E030E044EB52E40E943E4AF1016083CE
:102E90007183828393830F900F900F90DF91CF9176
:102EA0001F910F91FF90EF90DF90CF90BF90AF9068
:102EB0009F908F907F906F905F904F903F902F905A
:102EC00008950F931F93CF93DF93CDB7DEB760972D
:102ED0000FB6F894DEBF0FBECDBF242F1A82198221
:102EE000FE0133963EE0DF011D923A95E9F78E012F
:102EF0000F5F1F4F40E00E9481478091630880FF71
:102F000007C0B80180916108909162080E94D214B4
:102F100060960FB6F894DEBF0FBECDBFDF91CF91A4
:102F20001F910F9108951F93CF93DF934091110C40
:102F30005091120C6091130C7091140C4F5F5F4F05
:102F40006F4F7F4F4093110C5093120C6093130CF2
:102F50007093140C843209F493C2E0910F0C853203
:102F600054F48A3019F08D3009F099C2D82FEF301F
:102F700068F0C0E0CBC08A32C9F38C3209F08FC24E
:102F80009091FC0B98279093FC0BF0CF80910E0C46
:102F9000F0E0E250F44F1082C091FD0BCC2309F415
:102FA0003BC18091FE0B282F082E000C330B9FEBAA
:102FB000980F963008F0BCC0275331092295207F26
:102FC0003091FF0B832F032E000C990B4FEB430F17
:102FD000463008F0B6C0C797280F8091FC0B281325
:102FE00011C1C091100CCC2321F28091150C90914D
:102FF000160C01969093160C8093150C8091F00B93
:103000009091F10BA091F20BB091F30B8093EC0B2C
:103010009093ED0BA093EE0BB093EF0B8091F80B18
:103020009091F90BA091FA0BB091FB0B8093F40BEC
:103030009093F50BA093F60BB093F70B80910D0CCA
:10304000882309F486C0813009F060C08091AC0B00
:103050009091AD0BA091AE0BB091AF0B8093A80BEC
:103060009093A90BA093AA0BB093AB0B8091B40BD8
:103070009091B50BA091B60BB091B70B8093B00BAC
:103080009093B10BA093B20BB093B30B8091BC0B98
:103090009091BD0BA091BE0BB091BF0B8093B80B6C
:1030A0009093B90BA093BA0BB093BB0B8091C40B58
:1030B0009091C50BA091C60BB091C70B8093C00B2C
:1030C0009093C10BA093C20BB093C30B8091D40B10
:1030D0009091D50BA091D60BB091D70B8093D00BCC
:1030E0009093D10BA093D20BB093D30B8091DC0BB8
:1030F0009091DD0BA091DE0BB091DF0B8093D80B8C
:103100009093D90BA093DA0BB093DB0B80910E0C4C
:103110008F5F80930E0C10920F0C81E0DA3209F071
:1031200080E08093FD0B8C2FDF91CF911F9108954C
:103130008156863018F42755310940CF2053310984
:103140003DCF3156363018F48755910945CFC09799
:1031500043CF8091CC0B9091CD0BA091CE0BB09131
:10316000CF0B8093C80B9093C90BA093CA0BB0935D
:10317000CB0B8091AC0B9091AD0BA091AE0BB091AD
:10318000AF0B8093A80B9093A90BA093AA0BB093BD
:10319000AB0B8091BC0B9091BD0BA091BE0BB0917D
:1031A000BF0B8093B80B9093B90BA093BA0BB0935D
:1031B000BB0B8091C40B9091C50BA091C60BB09135
:1031C000C70B8093C00B9093C10BA093C20BB0931D
:1031D000C30B8091EA0B9091EB0B9093E90B8093DA
:1031E000E80B8091E40B9091E50BA091E60BB09178
:1031F000E70B8093E00B9093E10BA093E20BB0936D
:10320000E30B84CF8091170C9091180C019690934A
:10321000180C8093170CADCE81111BC0AEEFBBE034
:1032200042E652E09D01F90181919F01882309F452
:103230004AC1FA019191AF018917A9F3E8E6F2E0DA
:103240008D91882309F443C191918917C9F382E0D4
:103250003BC1E0910D0CE23009F48BCE9091FE0B56
:10326000992309F486CE20E2E29FF0011124E82B95
:103270003197E932F10508F049CF8827ED5BF64E2A
:103280008F4F0C943C4F8919A419B919D419DF191F
:10329000191A201A2A1A351A8618861886188618B6
:1032A000861886188618861886188618861886182E
:1032B000861886188618861886188618861886181E
:1032C00086188618861889199E19A419B919D4194F
:1032D000DF19FA19051A6C19EEEFFBE020E030E077
:1032E000A901119180ED810F8A3008F099C0AAE000
:1032F000B0E00E944B4F212F110F330B440B550BA5
:10330000260F371F481F591F205331094109510902
:10331000E8CF0E94EC046093AC0B7093AD0B8093EC
:10332000AE0B9093AF0B0E94E6086093F00B709386
:10333000F10B8093F20B9093F30BE8CE81E0913484
:1033400009F47BC080E079C00E945E056093BC0BED
:103350007093BD0B8093BE0B9093BF0B0E94E60849
:103360006093F80B7093F90B8093FA0B9093FB0B1F
:10337000CDCE933509F0FDCD8091BC0B9091BD0B66
:10338000A091BE0BB091BF0BB095A0959095819583
:103390009F4FAF4FBF4F8093BC0B9093BD0BA0933B
:1033A000BE0BB093BF0BB2CE0E945E056093C40B00
:1033B0007093C50B8093C60B9093C70BA7CE973520
:1033C00009F0D7CD8091C40B9091C50BA091C60B8D
:1033D000B091C70BB095A095909581959F4FAF4F39
:1033E000BF4F8093C40B9093C50BA093C60BB093B3
:1033F000C70B8CCE0E94EC046093D40B7093D50B5A
:103400008093D60B9093D70B81CE0E94EC046093EF
:10341000DC0B7093DD0B8093DE0B9093DF0B76CE8D
:103420002093B40B3093B50B4093B60B5093B70B6E
:103430006DCE81E091330CF485CF8093100C66CE75
:103440008EEF9BE00E949F4799279093EB0B809310
:10345000EA0B5CCE0E94EC046093E40B7093E50BE6
:103460008093E60B9093E70B51CE0E94EC0460939F
:10347000CC0B7093CD0B8093CE0B9093CF0B46CE9D
:1034800010920F0C10920E0C1092FC0B82E08093A5
:103490000D0C1092FD0B1092100CC0E044CEEE30DB
:1034A00040F491E09E0F90930F0CF0E0E250F44F47
:1034B0008083C091FD0BC111F0CF9091FC0B892747
:1034C0008093FC0B30CE81E080930D0C1FCE1092C8
:1034D0000D0C1CCE0F931F93CF93DF93CDB7DEB7A8
:1034E00060970FB6F894DEBF0FBECDBF1A82198267
:1034F000FE0133968EE0DF011D928A95E9F70E9466
:10350000110A0E94570A6091940770E06E54784F38
:10351000072E000C880B990B0E94D14B8E010F5F78
:103520001F4F20E040E00E948147B80182EA96E008
:103530000E94B9506EE672E082EA96E00E94AE50B8
:103540000E94110A0E94570A809193078A3030F432
:103550006DE476E082EA96E00E94AE500E94110A85
:103560000E94570A6091930770E090E080E00E940B
:10357000D14B8E010F5F1F4F20E040E00E9481473A
:10358000B80182EA96E00E94AE506EE672E082EAEE
:1035900096E00E94AE500E94110A0E94570A809144
:1035A00092078A3030F46DE476E082EA96E00E9479
:1035B000AE500E94110A0E94570A6091920770E073
:1035C00090E080E00E94D14B8E010F5F1F4F20E002
:1035D00040E00E948147B80182EA96E00E94AE5026
:1035E0006DE074E082EA96E00E94AE500E94580BB3
:1035F0000A9734F46DE476E082EA96E00E94AE50D9
:103600000E94580BBC01990F880B990B0E94D14B5B
:103610008E010F5F1F4F20E040E00E948147B801FC
:1036200082EA96E00E94AE5069E774E082EA96E092
:103630000E94AE500E94500B0A9734F46DE476E07D
:1036400082EA96E00E94AE500E94500BBC01990F96
:10365000880B990B0E94D14B8E010F5F1F4F20E00A
:1036600040E00E948147B80182EA96E00E94AE5095
:1036700069E774E082EA96E00E94AE500E94110A67
:103680000E94570A80918E078A3030F46DE476E00C
:1036900082EA96E00E94AE500E94110A0E94570AE8
:1036A00060918E0770E090E080E00E94D14B8E0127
:1036B0000F5F1F4F20E040E00E948147B80182EA7F
:1036C00096E00E94AE5066E475E082EA96E00E94C1
:1036D000AE5082EA96E060960FB6F894DEBF0FBE59
:1036E000CDBFDF91CF911F910F910895CF92DF92BF
:1036F000EF92FF920F931F93CF93DF93CDB7DEB777
:1037000060970FB6F894DEBF0FBECDBF1A82198244
:10371000FE0133968EE0DF011D928A95E9F70E9443
:10372000110A6B017C0120E030E041E655E4609134
:1037300036087091370880913808909139080E94B6
:10374000F44C0E94A04BC60ED71EE81EF91EC701FE
:10375000B6010E94570A6091940770E06E54784F4A
:10376000072E000C880B990B0E94D14B8E010F5F26
:103770001F4F20E040E00E948147B80182E896E0B8
:103780000E94B9506EE672E082E896E00E94AE5068
:10379000C701B6010E94570A809193078A3030F41E
:1037A0006DE476E082E896E00E94AE50C701B60173
:1037B0000E94570A6091930770E090E080E00E94B9
:1037C000D14B8E010F5F1F4F20E040E00E948147E8
:1037D000B80182E896E00E94AE506EE672E082E8A0
:1037E00096E00E94AE50C701B6010E94570A809130
:1037F00092078A3030F46DE476E082E896E00E9429
:10380000AE50C701B6010E94570A6091920770E05E
:1038100090E080E00E94D14B8E010F5F1F4F20E0AF
:1038200040E00E948147B80182E896E00E94AE50D5
:103830006DE074E082E896E00E94AE50C701B601E8
:103840000E94570A809190078A3030F46DE476E048
:1038500082E896E00E94AE50C701B6010E94570A66
:103860006091900770E090E080E00E94D14B8E0163
:103870000F5F1F4F20E040E00E948147B80182E8BF
:1038800096E00E94AE5069E774E082E896E00E94FC
:10389000AE50C701B6010E94570A80918F078A3047
:1038A00030F46DE476E082E896E00E94AE50C70105
:1038B000B6010E94570A60918F0770E090E080E0A7
:1038C0000E94D14B8E010F5F1F4F20E040E00E940D
:1038D0008147B80182E896E00E94AE5069E774E043
:1038E00082E896E00E94AE50C701B6010E94570AD6
:1038F00080918E078A3030F46DE476E082E896E0BD
:103900000E94AE50C701B6010E94570A60918E070F
:1039100070E090E080E00E94D14B8E010F5F1F4F5E
:1039200020E040E00E948147B80182E896E00E94D2
:10393000AE5020E030E0A901609136087091370860
:1039400080913808909139080E941D4B811106C062
:1039500066E475E082E896E00E94AE5082E896E068
:1039600060960FB6F894DEBF0FBECDBFDF91CF914A
:103970001F910F91FF90EF90DF90CF90089585ED0C
:103980008093BC008091090790910A07A0910B07D2
:10399000B0910C070796A11DB11D23E0B695A79520
:1039A000979587952A95D1F72091BC0024FD03C0F7
:1039B0001092560708954091090750910A076091A7
:1039C0000B0770910C07452B462B472B69F300978B
:1039D000A105B10541F02AE22A95F1F700C001974F
:1039E000A109B109E1CF809108070C94A50B2F9292
:1039F0003F924F925F926F927F928F929F92AF927F
:103A0000BF92CF92DF92EF92FF920F931F93CF93CB
:103A1000DF93CDB7DEB7E8970FB6F894DEBF0FBEE1
:103A2000CDBF89EA92E00E94A81582EB92E00E9445
:103A3000A81580EC92E00E94A81520E030E0A901D2
:103A40006091360870913708809138089091390854
:103A50000E941D4B9E012F5F3F4F7901AE014D5DCE
:103A60005F4F1A01882309F442C00E94761BBC01F3
:103A7000C7010E94B950C7010E94A81583EC92E0CB
:103A80000E94A81520E030E0A901609136087091ED
:103A9000370880913808909139080E94E74C181631
:103AA00024F487EC92E00E94A815409036085090CC
:103AB00037086090380870903908C301B2010E943D
:103AC000994B5B01072E000C880B990B0E94D14B80
:103AD0009B01AC01C301B2010E941D4B811194C036
:103AE000C5010E94751581EC92E00E94A8150E9404
:103AF0006A1ABC01C7010E94B950C7010E94A815EB
:103B000081EC92E00E94A81580914F08823009F460
:103B1000ABC008F095C0882309F49CC0813009F43B
:103B20009EC0C4010E94A81581EC92E00E94A815D5
:103B3000609105027091060280910702909108023F
:103B4000870124E040E00E948147C7010E94A81538
:103B50008DE094E00E94A81560910102709102022C
:103B6000809103029091040224E040E00E9481478A
:103B7000C7010E94A8158DE094E00E94A81520912D
:103B800001023091020240910302509104026091BF
:103B900005027091060280910702909108020E942E
:103BA0005C0D0E94A81580EC92E00E94A81589EC9B
:103BB00092E00E94A81580ED92E00E94A81582EC88
:103BC00092E00E94B61582ED92E00E94A815E09165
:103BD0000708E13108F056C0F0E08827ED50F24EBA
:103BE0008F4F0C943C4F3E1EF920FC20FF200221F9
:103BF000052108210B210E211121142117211A2141
:103C00001D212021232126211AA219A28EE0D101F3
:103C10001D928A95E9F78E010F5D1F4F22E040E06B
:103C2000C301B2010E9481478091630880FF5BCF8E
:103C3000B80180916108909162080E94D21453CF1C
:103C40008330B9F0843009F06CCF86E8882E82E0AA
:103C5000982E67CF49E7842E42E0942E62CF30E75A
:103C6000832E32E0932E5DCF20EA822E22E0922E28
:103C700058CF95E9892E92E0992E53CF87ED92E0A7
:103C80000E94A81580EB93E00E94A8158091060879
:103C9000813009F4E3C208F4DCC2823009F4E1C2E5
:103CA000833009F4E1C286EE93E00E94A81560918A
:103CB000420870914308809144089091450840E083
:103CC0000E9461178CEE93E00E94A815609108088D
:103CD0007091090880910A0890910B0840E00E94B9
:103CE000611780910708882309F44EC086EF93E09E
:103CF0000E94A81560910208709103088091040841
:103D00009091050840E00E94611780E094E00E94D5
:103D1000A8156091FE077091FF07809100089091AF
:103D2000010840E00E9461178FE094E00E94A8150E
:103D30004090F4075090F5076090F6077090F707F1
:103D40000E94E6082091630820FF1EC0B0EC4B0ED5
:103D5000B4ED5B1EB1E06B1E711CA3019201261B2A
:103D6000370B480B590BCA01B90128EE33E040E08C
:103D700050E00E94FB4EBA01A9012AE0809161083F
:103D8000909162080E9429158CE194E00E94A81588
:103D90006091B9077091BA07072E000C880B990B38
:103DA0000E94D14B870120E040E00E948147C7017B
:103DB0000E94A81586E294E00E94A81560910F0861
:103DC00070911008072E000C880B990B0E94D14BA4
:103DD00020E040E00E948147C7010E94A8158EE6BE
:103DE00092E00E94A8156091110870911208072EA8
:103DF000000C880B990B0E94D14B20E040E00E9400
:103E00008147C7010E94A81587ED94E00E94390DF3
:103E100080912F08909130080E94751580EC94E0F5
:103E20000E94390D609131087091320880913308F9
:103E3000909134080E94D14B40E00E94611780EBC2
:103E400094E00E94390D80912F08909130080E94D3
:103E500075158EE692E00E94A81560912F0870916A
:103E60003008072E000C880B990B00913108109137
:103E700032082091330830913408600F711F821F7F
:103E8000931F0E94D14B40E00E9461178FE294E0A3
:103E90000E94A8158091B80790E00E94751580E4F3
:103EA00094E00E94A8158091B70790E00E947515D4
:103EB00020E030E047E054E4609108087091090880
:103EC00080910A0890910B080E94E74C181624F480
:103ED00087EA94E00E94390D8DE994E00E94390D43
:103EE00060912708709128088091290890912A08EC
:103EF000870122E040E00E948147C7010E94A81587
:103F000082EC92E00E94B6151AA219A28AE0D101B1
:103F10001D928A95E9F78BE494E00E94A8156091C0
:103F2000E80B7091E90B90E080E00E94CF4B8E018E
:103F30000F5D1F4F20E040E00E948147C8010E94B2
:103F4000A8154090B80B5090B90B6090BA0B7090C8
:103F5000BB0B2091C00B3091C10B4091C20B509113
:103F6000C30B2DAB3EAB4FAB58AF8090F40B909092
:103F7000F50BA090F60BB090F70B3FEF831693066E
:103F8000A306B30681F00E94E6080091F40B10919D
:103F9000F50B2091F60B3091F70B4B015C01801A69
:103FA000910AA20AB30A4FEF441649EC54064AE9B3
:103FB00064064BE3740609F45AC1C301B2010E94BE
:103FC000D14B20E034E244E759E40E94274B69AB2F
:103FD0007AAB8BAB9CAB6DA97EA98FA998AD0E94E3
:103FE000D14B20E034E244E759E40E94274B2B01F7
:103FF0003C018DE594E00E94A81544E069A97AA9E6
:104000008BA99CA90E94611784E694E00E94A815E0
:1040100044E0C301B2010E9461178CE694E00E9463
:10402000A8156091C80B7091C90B8091CA0B909133
:10403000CB0B24E630E040E050E00E941D4FCA0167
:10404000B9010E94D14B40E00E9461178BE794E0D8
:104050000E94A815C501B4010E94CF4B8E010F5DCF
:104060001F4F20E040E00E948147C8010E94A81530
:104070004090110C5090120C6090130C7090140C26
:104080008090150C9090160CA090170CB090180C06
:1040900089E894E00E94A815C301B2010E94CF4BA9
:1040A00020E040E00E948147C8010E94A81587E9EE
:1040B00094E00E94A815B40190E080E00E94CF4BEC
:1040C00020E040E00E948147C8010E94A81589EACB
:1040D00094E00E94A81591E0A916B10411F4B12C46
:1040E000A12CB50190E080E00E94CF4B8E010F5DC6
:1040F0001F4F20E040E00E948147C8010E94A815A0
:1041000082EC92E00E94B61584E994E00E94390D99
:1041100080914E08811104C08FE894E00E94390D0F
:1041200089E894E00E940B1584E090E00E94814FA2
:104130008C01009711F00E941D508DB69EB6B12CD7
:10414000A12C012E000C220B330B801A910AA20A1B
:10415000B30ABF92AF929F928F928CEB94E09F93A1
:104160008F93FF92EF920E94CF50A4EF8A1AA1E0A2
:104170009A0AA108B1080FB6F894DEBF0FBECDBFF2
:10418000FDE18F16F5E29F06A104B10458F083E724
:1041900094E00E94390DC7010E94A8158CE694E0B6
:1041A0000E940B1580EC94E00E94B6150E94E60870
:1041B0006093460870934708809348089093490895
:1041C000E8960FB6F894DEBF0FBECDBFDF91CF915A
:1041D0001F910F91FF90EF90DF90CF90BF90AF9025
:1041E0009F908F907F906F905F904F903F902F9017
:1041F000089587EE92E044CD80E093E041CD80E9E0
:1042000093E03ECD85EA93E03BCD80E293E038CD6C
:104210008EE393E035CD8CED92E032CD85EF92E0E8
:104220002FCD8FE093E02CCD8DE293E029CD8AE174
:1042300093E026CD88E393E023CD8CE493E020CD7A
:1042400088E693E01DCD85E893E01ACD8AE993E0F6
:1042500017CD8EE692E00E94A81525CD85EB93E060
:10426000FACF8EEB93E0F7CF80ED93E0F4CF80E0D0
:1042700090E0AAE7B4E489AB9AABABABBCAB2C0142
:104280003D01B7CE0F931F93CF93DF938BE78093BE
:104290000C0810920D080CE018E0D0E0C0E0F80126
:1042A00061918F01CE010E94304A2196C633D1051B
:1042B000B1F710924E08DF91CF911F910F910895A1
:1042C000ECE0F8E021E030E0348323838FEF93E0EB
:1042D000968385833087278392878187809108081A
:1042E00090910908A0910A08B0910B0883879487E0
:1042F000A587B687138A148A158A168A178A108E9C
:10430000118E128E138E148E158E168E178E10A28D
:1043100011A212A284EB90E094A383A382EC91E01B
:10432000A0E0B0E085A396A3A7A3B0A711A612A60C
:1043300013A614A615A616A610AA17A611AA1786C4
:10434000108A118A128A0C9442214F925F926F92C6
:104350007F928F929F92AF92BF92CF92DF92EF9215
:10436000FF920F931F93CF93DF938EEE9AE090937B
:104370006208809361080E94560481E59AE00E94D9
:104380005604109205071092040710920707109226
:1043900006070E94870B86EC9BE090932F07809383
:1043A0002E0787EC9BE09093330780933207B4EE9F
:1043B000EB2EB7E0FB2E08E010E02FE030E050E0FD
:1043C00040E070E060E090E080E00E9417090CE0BF
:1043D00018E0D0E0C0E0CE010E94284AD8018D93B9
:1043E0008D012196C633D105B1F780910C088B372A
:1043F00011F00E94602161E086E00E94410861E0C6
:1044000087E00E94410860E086E00E94CE0760E0FD
:1044100087E00E94CE0760E086E30E9441088DEFAE
:104420008093B8078093B70780E00E94440E709095
:10443000A50BB1E0B71528F480919C0B88608093A0
:104440009C0B70929F0B62E370E080E090E00E9412
:10445000B4086091A20B87E99BE00E944E0C68EEC5
:1044600073E080E090E00E94B40860E387E99BE09D
:104470000E94AC0FCBE4D6E4CE010197F1F760E3E4
:1044800087E99BE00E94AC0F2197F1F760E387E991
:104490009BE00E94AC0F83E592E00197F1F760E2A8
:1044A00087E99BE00E94AC0F60919C0B606240E04A
:1044B00087E99BE00E94C50F84E080939D0B40E05C
:1044C0006CE087E99BE00E94C50F40E061E087E96E
:1044D0009BE00E94C50FCBE3DFE1CE010197F1F72E
:1044E00082E080939E0B40E066E087E99BE00E94BB
:1044F000C50F40E062E087E99BE00E94C50F21976D
:10450000F1F788E08093A20B60E087E99BE00E94CE
:104510004E0CC0EBD9E080E6E82E89E0F82E94EB53
:10452000C92E98E0D92E01E01AE020E1822E29E080
:10453000922E34E6A32E38E0B32E2501C401980153
:10454000A601B701FE01A0E26A2E6192DB016D9225
:10455000BD01DA016D92AD01D9011D929D01DC0111
:104560001D92CD01D2011D922D01BAE0E030FB0772
:1045700061F740E061E087E99BE00E94C50F8BE3B3
:104580009FE10197F1F790E28991F60181936F0124
:10459000D7019D937D01F80181918F01D5018D9304
:1045A0005D01F40111924F01FAE0C030DF0761F7BD
:1045B000C1E0C0930E090E94E6086854744F8F4F03
:1045C0009F4F6093050970930609809307099093A4
:1045D0000809C093040984E0781224C070E060E008
:1045E00084EC94E00E94B80461E070E089EC94E00F
:1045F0000E94B80462E070E082EB92E00E94B8048E
:10460000DF91CF911F910F91FF90EF90DF90CF90AE
:10461000BF90AF909F908F907F906F905F904F90E2
:104620000C94DD107694C72DD0E0BE016150710965
:1046300084EC94E00E94B804BE0189EC94E00E94EE
:10464000B804BE016F5F7F4FD7CF1F920F920FB696
:104650000F9211240BB60F922F933F934F935F93BA
:104660006F937F938F939F93AF93BF93EF93FF933A
:1046700080915D0890915E08A0915F08B0916008FC
:10468000892B8A2B8B2BE1F190915C08E0915A08E1
:10469000F0915B0880818927808380915D089091EB
:1046A0005E08A0915F08B0916008181619061A06F6
:1046B0001B069CF480915D0890915E08A0915F08B4
:1046C000B09160080197A109B10980935D089093AA
:1046D0005E08A0935F08B0936008FF91EF91BF91CF
:1046E000AF919F918F917F916F915F914F913F918A
:1046F0002F910F900BBE0F900FBE0F901F9018952B
:10470000809109020E94FC07E8CF1F920F920FB61A
:104710000F9211240BB60F922F933F934F935F93F9
:104720006F937F938F939F93AF93BF93EF93FF9379
:1047300081E59AE00E948206FF91EF91BF91AF91CF
:104740009F918F917F916F915F914F913F912F91A9
:104750000F900BBE0F900FBE0F901F9018951F92D9
:104760000F920FB60F9211240BB60F922F938F93C7
:104770009F93EF93FF93E091610AF091620A808129
:10478000E091670AF091680A82FD1DC090818091D6
:104790006A0A8F5F8F7320916B0A821741F0E09154
:1047A0006A0AF0E0EF5AF54F958F80936A0AFF91FD
:1047B000EF919F918F912F910F900BBE0F900FBE95
:1047C0000F901F9018958081F2CF1F920F920FB615
:1047D0000F9211240BB60F922F933F934F935F9339
:1047E0006F937F938F939F93AF93BF93EF93FF93B9
:1047F0008EEE9AE00E948206FF91EF91BF91AF91F9
:104800009F918F917F916F915F914F913F912F91E8
:104810000F900BBE0F900FBE0F901F9018951F9218
:104820000F920FB60F9211240BB60F922F938F9306
:104830009F93EF93FF93E091FE0AF091FF0A80812E
:10484000E091040BF091050B82FD1DC090818091D9
:10485000070B8F5F8F732091080B821741F0E09157
:10486000070BF0E0E251F54F958F8093070BFF9116
:10487000EF919F918F912F910F900BBE0F900FBED4
:104880000F901F9018958081F2CF1F920F920FB654
:104890000F9211242F933F938F939F93AF93BF93C6
:1048A0008091960790919707A0919807B0919907EA
:1048B0003091950723E0230F2D3758F50196A11D60
:1048C000B11D209395078093960790939707A09327
:1048D0009807B093990780919A0790919B07A091B0
:1048E0009C07B0919D070196A11DB11D80939A0769
:1048F00090939B07A0939C07B0939D07BF91AF91A6
:104900009F918F913F912F910F900FBE0F901F900D
:10491000189526E8230F0296A11DB11DD2CF1F9234
:104920000F920FB60F9211240BB60F922F933F9355
:104930004F935F936F937F938F939F93AF93BF93A7
:10494000EF93FF938091B900887F803609F44DC0C2
:1049500008F040C0883209F4A9C028F5803109F474
:104960009DC0C8F4882309F4FBC0883009F496C0C0
:10497000FF91EF91BF91AF919F918F917F916F9137
:104980005F914F913F912F910F900BBE0F900FBEF3
:104990000F901F901895883109F488C0803241F734
:1049A0008093550714C0803409F49DC040F48033CF
:1049B000B9F38833E9F68093550785ECB0C08035AC
:1049C00009F485C0883509F496C0883489F60E94B8
:1049D000BF1CCECF883909F48CC038F5883729F050
:1049E00050F4883611F0803719F683E0809356072B
:1049F0001092540757C0883809F47BC0803919F0E9
:104A0000803809F0B5CF80915407803208F071C02A
:104A1000E091540781E08E0F809354078091BB0092
:104A2000F0E0EC5CF84F80833DC0803B39F0E0F46F
:104A3000803A09F479C0883A09F09ACF84E08093EB
:104A400056071092310710923007E0912E07F0912F
:104A50002F0719958091300781110FC081E0809355
:104A6000300710920E0709C0803C09F4A6CF883C9D
:104A700009F4A3CF883B09F07BCFE091310781E0B7
:104A80008E0F80933107F0E0E25FF84F80818093D2
:104A9000BB00909131078091300729C080917B073E
:104AA0008093BB0085EC8093BC0062CF90917A0725
:104AB00080917907981758F5E0917A0781E08E0F79
:104AC00080937A07F0E0E75AF84F8081E9CFE091D0
:104AD0007A0781E08E0F80937A078091BB00F0E027
:104AE000E75AF84F808390917A0780917907981759
:104AF000C8F285E8D8CFE0917A0781E08E0F8093E5
:104B00007A078091BB00F0E0E75AF84F80838091EC
:104B1000580781115CCF81E08093570784EA809326
:104B2000BC001092560724CF85EC8093BC001092F5
:104B3000560780915407803230F4E0915407F0E03A
:104B4000EC5CF84F10826091540770E0E0913207FE
:104B5000F091330784E397E019951092540708CF3A
:104B60001092550734CF4F925F926F927F928F923F
:104B70009F92AF92BF92CF92DF92EF92FF920F93EC
:104B80001F93CF93DF93CDB7DEB764970FB6F8943A
:104B9000DEBF0FBECDBF29013A01E982FA820B8345
:104BA0001C8325E33AEF4EE85CE30E94F44C6D83EE
:104BB0007E838F83988725E33AEF4EE85CE3C80154
:104BC000B7010E94F44C69877A878B879C87A30181
:104BD0009201C601B5010E943E4A25E33AEF4EE834
:104BE0005CE30E94F44C2B013C010E94B14D6D87A7
:104BF0007E878F87988B69857A858B859C850E94B7
:104C0000224B69837A838B839C836D817E818F8124
:104C100098850E94224B698B7A8B8B8B9C8B698544
:104C20007A858B859C850E94B14D4B015C016D811D
:104C30007E818F8198850E94B14D6D837E838F83A5
:104C40009887C301B2010E94224B2B013C01A501B0
:104C5000940169897A898B899C890E94F44C6B0143
:104C60007C012D813E814F81588569817A818B81BC
:104C70009C810E94F44CA30192010E94F44C9B0180
:104C8000AC01C701B6010E943E4A6B017C0129813B
:104C90003A814B815C816D857E858F8598890E94E4
:104CA000F44CA70196010E94BE4A21EE3EE245E681
:104CB00052E40E94F44C0E94994BCB0188599E4FBC
:104CC00068E671E00E94E74EBC01990F880B990BD2
:104CD0000E94D14B64960FB6F894DEBF0FBECDBFD5
:104CE000DF91CF911F910F91FF90EF90DF90CF90C8
:104CF000BF90AF909F908F907F906F905F904F90FC
:104D00000895E1E5FAE01382128288EE93E0A0E0D4
:104D1000B0E084839583A683B78323E332E03183B5
:104D2000208345ED50E05587448744ED50E0578798
:104D3000468740ED50E0518B408B41ED50E0538B66
:104D4000428B42ED50E0558B448B46ED50E0578B43
:104D5000468B118E128E138E148EEEEEFAE01382B5
:104D6000128284839583A683B7833183208325ECC5
:104D700030E03587248724EC30E03787268720EC25
:104D800030E0318B208B21EC30E0338B228B22EC16
:104D900030E0358B248B26EC30E0378B268B118E60
:104DA000128E138E148EEBE8FBE013821282848342
:104DB0009583A683B78385E492E091838083E7E9B6
:104DC000FBE01382128287E592E09183808387E281
:104DD000848380E1818722E02287138684E190E04A
:104DE0009093A70B8093A60B84E08093A50B88EE8D
:104DF00093E09093A40B8093A30BE8EAFBE04FEFC2
:104E00005FEFBA01408351836283738310861186FA
:104E1000128613868FEF99ECAAE9BBE3808B918B06
:104E2000A28BB38B808F918FA28FB38F80A391A31E
:104E3000A2A3B3A380A791A7A2A7B3A780AB91AB6E
:104E4000A2ABB3AB40AF51AF62AF73AF8FEF90E0A7
:104E50009093E90B8093E80B4093EC0B5093ED0B90
:104E60006093EE0B7093EF0B4093F40B5093F50BA4
:104E70006093F60B7093F70B1092FC0B1092FD0BE6
:104E800020930D0C10920E0C10920F0C1092100C1F
:104E90001092110C1092120C1092130C1092140C10
:104EA0001092160C1092150C1092180C1092170CF0
:104EB0001092FE0B0895CF93DF93CDB7DEB7C35E9C
:104EC000D1090FB6F894DEBF0FBECDBF789484B57C
:104ED000826084BD84B5816084BD85B5826085BDF6
:104EE00085B5816085BD80916E00816080936E0084
:104EF0001092810080918100826080938100809176
:104F00008100816080938100809180008160809326
:104F100080008091B10084608093B1008091B000E6
:104F200081608093B00080919100826080939100B5
:104F300080919100816080939100809190008160C8
:104F4000809390008091A10082608093A100809165
:104F5000A10081608093A1008091A0008160809376
:104F6000A000809121018260809321018091210124
:104F700081608093210180912001816080932001D4
:104F800080917A00846080937A0080917A008260B8
:104F900080937A0080917A00816080937A0080917A
:104FA0007A00806880937A001092C1000E94A52147
:104FB0009E012D5F3F4FC653DF4F39832883CA5C64
:104FC000D04045E650E04C0F5D1F4E5F5F4FC6522C
:104FD000DF4F59834883CA5DD040CE018B559F4F28
:104FE000C453DF4F99838883CC5CD040DC01129698
:104FF000C452DF4FB983A883CC5DD040E5E8F0E030
:10500000EC0FFD1F3296C252DF4FF983E883CE5D6D
:10501000D0401A82198282E6C653DF4FA881B98137
:10502000CA5CD0401D928A95E9F780916108909101
:105030006208DC01ED91FC910084F185E02D199569
:10504000892B09F43BC28091610890916208DC01D0
:10505000ED91FC910284F385E02D1995182F809332
:10506000F3070E94E6088FE9810F8A3118F4105285
:105070001093F3076091F3076A30A1F06D3091F05F
:105080008091F1079091F207FC01E154F84F6083A1
:1050900001969093F2078093F1076C3519F481E043
:1050A0008093BE078091BE07882359F080916108E4
:1050B00090916208DC01ED91FC910190F081E02D6E
:1050C00019958091F3078D3009F0F8C11091BF0751
:1050D0001C3521F01F3211F00C94233E1092BE07B4
:1050E0006FE572E080916108909162080E94D2148D
:1050F0008090F1079090F20762EC72E0CE01019689
:105100000E94B950A7961FAE1EAEA79782E1C65265
:10511000DF4FE881F981CA5DD04011928A95E9F7A5
:10512000E091C007EB52EE3208F0B3C1F0E08827FF
:10513000E356F74D8F4F0C943C4F412E492A492A94
:10514000492A492A492A492A492A492A492A492AC7
:10515000492A492A492A492A492A492A492A492AB7
:10516000492A612E492A3F29492A6C2C7F2DB42DCA
:10517000492A492AC02D0529CB283B2CC82D492A6C
:10518000492A702C492AC32D492A492A492A492AE1
:10519000FD2C492AF52D01EC17E0B12CC12CD12CA6
:1051A00076019AE0A92EC8018F5B97408815990572
:1051B0000CF032C3F80161918F016E3209F429C3FA
:1051C0006053770B072E000C880B990B0E94D14B74
:1051D0002B013C01BB2009F40DC36B2D70E090E066
:1051E00080E00E94CF4B9B01AC01C301B2010E9441
:1051F000274B9B01AC01C701B6010E943F4A6B01DE
:105200007C01BA9CB02C1124CECF01EC17E0B12C5C
:10521000C12CD12C76018AE0A82EC8018F5B974063
:10522000881599050CF0F9C0D8016D918D016E3289
:1052300009F4F0C06053770B072E000C880B990B14
:105240000E94D14B2B013C01BB2009F4D4C06B2D33
:1052500070E090E080E00E94CF4B9B01AC01C30165
:10526000B2010E94274B9B01AC01C701B6010E940D
:105270003F4A6B017C01BA9CB02C1124CECF840133
:105280000150110994012154384F5901312C412CFE
:10529000512C32014394C12CD12C760102301105DE
:1052A00014F1F501A2915F01AE32D9F0A053BB0B0E
:1052B000A30192010E94564F0E94D14B9B01AC0169
:1052C000C701B6010E943F4A6B017C01AAE0B0E031
:1052D000A30192010E944B4F2B013C010150110987
:1052E000DDCF302EFBCF3320D9F0B4016319710923
:1052F00061507109072E000C880B990B0E94D14B4D
:105300009B01AC0160E070E080E291E40E94614D9D
:105310009B01AC01C701B6010E94274B6B017C01C8
:1053200020E030E0A901C701B6010E94E74C87FDEB
:10533000CCC220E030E044EB53E4C701B6010E9448
:105340001D4B18160CF4C1C21092270810922808A1
:105350001092290810922A0881E00E94440E2091A0
:1053600008083091090840910A0850910B08C701BC
:10537000B6010E943E4A4B015C0180922708909240
:105380002808A0922908B0922A0860912F087091ED
:105390003008072E000C880B990B0E94D14B2B0173
:1053A0003C0120E030E0A901C501B4010E94E74CB6
:1053B000181624F0B7FAB094B7F8B094A501940188
:1053C000C301B2010E943F4A0E94994B709330087A
:1053D00060932F0881E080934E0863E777E0CE0169
:1053E00001960E94C8478E010B591F4F22E040E0F2
:1053F000C701B60147C020E030E040E251E4C701F8
:10540000B6010E94F44CA30192010E943F4A6B0135
:105410007C0103CFAAE0BA2E00CF6BE577E0CE0186
:1054200001960E94C84720E030E0A901C701B601FB
:105430000E94E74C181634F06FE477E0B3E08B1667
:1054400091046CF0C701B6010E94994B709330082B
:1054500060932F0881E080934E0863E577E0CE01EA
:1054600001960E94BD4760912F0870913008072E69
:10547000000C880B990B0E94D14B8E010B591F4FCA
:1054800020E040E00E948147B801CE0101960E94D1
:10549000AE500091610810916208BE016F5F7F4FAE
:1054A000C8010E94D2146FE572E0C8010E94D214B4
:1054B0001092F2071092F1071092BF078091BD077A
:1054C00011E0882311F40C94804084E20E94931729
:1054D0001092BD0781E08093BC0780E00E94440EDB
:1054E00080910608813089F48091FC07823011F4A4
:1054F0000C945B4210F00C94AA40882311F40C9495
:10550000BE40813011F40C94C6400E9480110E946C
:10551000E6080091F4071091F5072091F607309105
:10552000F707601B710B820B930B613C744D81403C
:10553000910590F080910708882371F088E08093AE
:10554000FC071092F8071092F9071092FA071092D0
:10555000FB0781E08093060880E00E94440E809162
:10556000FD07882349F180E00E94A507019721F5F6
:1055700080E00E94A5070197F9F468EC70E080E0F4
:1055800090E00E94B40880E00E94A5070197A1F472
:1055900080E00E94A507019779F41092FC07109211
:1055A000F8071092F9071092FA071092FB0781E0B2
:1055B000809306081092FD07CB55DF4F19821882A1
:1055C000C55AD0408EE1C452DF4FA881B981CC5D6D
:1055D000D040E82F1D92EA95E9F7CB57DF4F1982AB
:1055E0001882C558D040C252DF4FA881B981CE5D24
:1055F000D0401D928A95E9F7CB53DF4F1882C55CE6
:10560000D040C953DF4F1882C75CD040C853DF4F2A
:105610001882C85CD040C753DF4F1882C95CD040A5
:10562000E0E6F9E0A0E1B9E080EB99E020E2219327
:105630001D928E179F07D9F781E080930909C090CA
:105640004208D0904308E0904408F0904508C70114
:10565000B6010E94994B6D35B1E07B0714F00C94B4
:1056600044436734E1E07E0714F00C940C4360334C
:10567000F1E07F0714F00C9410436A3121E07207C7
:1056800014F00C941443633031E0730714F00C945D
:1056900018436D3E710514F00C941C43663D710572
:1056A00014F00C942043603C710514F00C942443D6
:1056B000693A710514F00C9428436339710514F0AC
:1056C0000C942C436C37710514F00C9430436636FF
:1056D000710514F00C9434436F34710514F00C947C
:1056E00038436933710514F00C943C436232710500
:1056F00014F00C9440436C30710514F40C94444342
:105700006BE075E0CE018B559F4F0E94B95070E061
:1057100060E0CE018B559F4F0E94CE156FE576E07D
:10572000CE018B559F4F0E94B95080913D0881302A
:1057300011F40C94484310F0823049F48E010B5759
:105740001F4F20E041E0C701B6010E9481478091D0
:105750003D088230B9F420E030E047E054E4609145
:1057600008087091090880910A0890910B080E941E
:10577000E74C18163CF467EC72E0CE018B559F4F56
:105780000E94AE50BE016B577F4FCE018B559F4F8D
:105790000E94AE5068E676E0CE018B559F4F0E9486
:1057A000AE5061E070E0CE018B559F4F0E94CE1548
:1057B000B0900708B1100C9457430E94580B0A97F9
:1057C00014F40C9424440E94580BBC01990F880BCC
:1057D000990B0E94D14B8E010B571F4F20E040E0E8
:1057E0000E948147B801CE018B559F4F0E94B9504E
:1057F0000C94404420E030E040E251E4C701B6019F
:105800000E94F44CA30192010E943F4A6B017C016B
:10581000CACCFAE0BF2EC7CC62E377E0CE01019696
:105820000E94C84720E030E0A901C701B6010E94EC
:10583000E74C66E277E018168CF4C701B6010E94C7
:10584000994B60933108709332088093330890939A
:10585000340881E080934E086AE277E0CE01019639
:105860000E94BD47609131087091320880913308E1
:105870009091340800CEF2E08F16910489F41091D3
:105880003508123010F566E175E0CE0101960E94F0
:10589000B9506AED74E01111F8CD64EE74E0F5CD05
:1058A0008091C107803311F40C94A346813369F4CD
:1058B00011E023E08216910434F31093350881E05F
:1058C00080934E08E0CF10E0F8CF6FE075E0CE0196
:1058D00001960E94B950DDCD0E94761BBC01F7CF26
:1058E0008091C1078053990B48EE53E0849F70016B
:1058F000859FF00C949FF00C11248091C20754E610
:10590000859FE00CF11C1124C701805C92417C0151
:105910008091C3078053990B2AE0289FA001299FFB
:10592000500D1124E40EF51E8091C4078053990B8D
:10593000E80EF91E40E090E18916910441F480914F
:10594000CD074091CE074051829F400D1124C701E1
:10595000855E9740C19708F049C08091C5079AE0DD
:105960000091C607899F000D11248FEE800F8C30A7
:1059700008F03CC08091C7072091C807899F200D7F
:1059800011248FEE820F8F3188F53091C9078091F5
:10599000CA078051399F800D1124883138F5309124
:1059A000CB076091CC076051399F600D11246C3397
:1059B000E8F44C33D8F4AEE08A16910421F0B0E15B
:1059C0008B16910499F4005110E0205130E050E022
:1059D00070E090E00E94170960E275E0CE01019648
:1059E0000E94B9500E94761BBC014FCD65E077E064
:1059F000CE0101960E94C8474CCD84010150110987
:105A0000F401E154F84F5F01312C212C412C512C31
:105A100032014394C12CD12C7601023011053CF1A6
:105A2000F501A2915F01AD32F9F0AE32D9F0A05389
:105A3000BB0BA30192010E94564F0E94D14B9B01C8
:105A4000AC01C701B6010E943F4A6B017C01AAE08C
:105A5000B0E0A30192010E944B4F2B013C01015089
:105A60001109DBCF202EFBCF33243394F8CF222033
:105A7000D9F0B4016219710961507109072E000C47
:105A8000880B990B0E94D14B9B01AC0160E070E048
:105A900080E291E40E94614D9B01AC01C701B60117
:105AA0000E94274B6B017C01332021F0F7FAF09420
:105AB000F7F8F09420E030E040EC51ECC701B6017B
:105AC0000E94E74C87FD18C020E030E040EC51E434
:105AD000C701B6010E941D4B181674F0C09236081B
