:100000000C94C9030C94FA030C94FA030C94FA03AD
:100010000C94FA030C94FA030C94FA030C94FA036C
:100020000C94FA030C94FA030C94FA030C94FA035C
:100030000C94FA030C940F270C94FA030C94FA0313
:100040000C94FA030C94FA030C94FA030C94FA033C
:100050000C94FA030C94FA030C94FA030C94CF2733
:100060000C94FA030C9499270C946F270C94FA03C0
:100070000C94FA030C94FA030C94FA030C94FA030C
:100080000C94FA030C94FA030C94FA030C94FA03FC
:100090000C94FA030C94FA030C94FA030C941928A8
:1000A0000C94FA030C94FA030C94FA030C94FA03DC
:1000B0000C94FA030C94FA030C94FA030C94FA03CC
:1000C0000C94FA030C94FA030C94FA030C94FA03BC
:1000D0000C94FA030C94FA030C94FA030C94FA03AC
:1000E0000C94FA03084AD73B3BCE016E84BCBFFD9B
:1000F000C12F3D6C74319ABD56833DDA3D00C77FF8
:1001000011BED9E4BB4C3E916BAAAABE0000008090
:100110003F05A84CCDB2D44EB93836A9020C50B91F
:10012000918688083CA6AAAA2ABE000000803F0744
:10013000634236B79BD8A71A39685618AEBAAB5582
:100140008C1D3CB7CC5763BD6DEDFD753EF6177247
:1001500031BF000000803F08000000BE9224491219
:100160003EABAAAA2ABECDCCCC4C3E00000080BE3D
:10017000ABAAAAAA3E00000000BF000000803F001A
:1001800000000000084178D3BB4387D1133D190E0E
:100190003CC3BD4282AD2B3E68EC8276BED98FE176
:1001A000A93E4C80EFFFBE01C4FF7F3F000000006E
:1001B00000000C94CC050C94AC210C9481340C946C
:1001C0004B050C94372F0C94C82D0C94BA050C9445
:1001D000FA050C94C0050C9487340C94B7070C9462
:1001E00042210C94F5050C94C6040C946B2B0C94D2
:1001F00093210C94A12E0C9425090C940B2A0C9499
:10020000CA210C94C42F0C94D5050C94B6210C94DF
:10021000DF050C9451210C94D9050C94990C0C9485
:1002200047210C948A340C94B9070C94D4210C9473
:1002300068040C947F210C94B8040C947E340C94C4
:100240007B340C9469340C94B6070C94ED050C9433
:1002500063340C94152E0C94C8050C946F340C94D4
:100260000F080C948D2F0C94E2070C94C8070C9483
:10027000FE040C94022F0C94932E0C9472340C9464
:100280008D340C94C0210C945B210C94FF050C94CC
:10029000E7050C9426090C943C2E0C94EB2F0C943F
:1002A000A4040C943A210C9484340C946C340C9473
:1002B00075210C94B8070C9489210C9475320C9418
:1002C00075340C94E3050C94DB070C94FB050C943B
:1002D000F1050C94A2210C9478340C94532E0C94B8
:1002E000CF050C9465210C9495040C94C4050C94D2
:1002F0007A2E0C9460340C946D210C94663400407A
:100300007A10F35A00A0724E18090010A5D4E80024
:1003100000E87648170000E40B54020000CA9A3B3C
:10032000000000E1F50500008096980000004042C2
:100330000F000000A0860100000010270000000050
:10034000E803000000006400000000000A00000054
:1003500000000100000000002C76D888DC674F0800
:1003600023DFC1DFAE59E1B1B796E5E3E453C63A06
:10037000E651997696E8E6C28426EB898C9B62ED7D
:10038000407C6FFCEFBC9C9F40F2BAA56FA5F49037
:10039000055A2AF75C936B6CF9676DC11BFCE0E4AE
:1003A0000D47FEF520E6B500D0ED902E0300943504
:1003B00077050080841E080000204E0A000000C857
:1003C0000C333333330F986E12831141EF8D2114A8
:1003D000893BE65516CFFEE6DB18D1844B381BF778
:1003E0007C1D901DA4BBE424203284725E22810017
:1003F000C9F124ECA1E53D270000210024002700DD
:100400002A002D0030003300010100000401070123
:100410000A01000020002300260029002C002F00E4
:100420003200000100000301060109013F3E0020E7
:1004300043656E746572003F3E004D6F6465203405
:10044000353020646567726565004D6F64652033E3
:10045000363020646567726565003F3E003F3E00B0
:100460005370656564205831005370656564205889
:1004700032005370656564205833005370656564BD
:100480002058340057726F746520746F206D656D4D
:100490006F727900526F7461746520746F20667595
:1004A0006C6C2043435720616E642073656E64203A
:1004B0006B65797374726F6B652E2E2E00526F749C
:1004C00061746520746F2066756C6C2043572061E1
:1004D0006E642073656E64206B65797374726F6BE4
:1004E000652E2E2E00622066726565005741524EC1
:1004F000494E473A204C6F77206D656D6F72793A9F
:1005000020004449525459004E4F545F0009434F54
:100510004E4649475F0020204F66667365743A0077
:10052000204F5645524C41500020205261775F4188
:100530007A5F52616E67653A002020526F74617471
:10054000696F6E5F4361706162696C6974793A00CA
:10055000202053746172743A0001021020200808B0
:100560001020401020408002010201080402010115
:1005700002040810204080804020100804020180FE
:100580000402018040201008040201080402010155
:10059000020408102040800102040810204080005E
:1005A000002200250028002B002E0031003400021C
:1005B000010000050108010B0105050505070508F7
:1005C000080808020202020A0A08080404040401D6
:1005D00001010101010101030303030303030304F8
:1005E0000707070C0C0C0C0C0C0C0C020202020688
:1005F000060606060606060B0B0B0B0B0B0B0B0277
:1006000000000A0B02090C0D0E080703040100008C
:1006100000000000000000000000000000000000DA
:100620000000000000000000000000001211100097
:1006300000000000000000000000000000000000BA
:10064000000000000000417A696D757468204469FB
:1006500073706C6179204D6F64653A205261772028
:100660004465677265657300417A696D75746820C9
:10067000446973706C6179204D6F64653A202B4F2B
:100680007665726C617000417A696D75746820449A
:100690006973706C6179204D6F64653A204E6F729A
:1006A0006D616C00436C65617265642063616C69A7
:1006B00062726174696F6E206F6666736574730031
:1006C00053657474696E677320736176656420691D
:1006D0006E20454550524F4D2C20726573657474E1
:1006E000696E6720756E697420696E2035207365A8
:1006F000636F6E64732E2E2E00496E697469616C8F
:10070000697A656420656570726F6D2C20726573FF
:10071000657474696E6720756E697420696E203522
:10072000207365636F6E64732E2E2E006973200034
:1007300073657420746F2000417A696D7574682048
:10074000726F746174696F6E206361706162696C4D
:1007500069747920006973200073657420746F20B8
:1007600000417A696D757468207374617274696E82
:100770006720706F696E742000417A696D757468C6
:100780002063616C6962726174656420746F20001B
:100790000B2A11241FBECFEFD1E2DEBFCDBF00E098
:1007A0000CBF15E0A0E0B2E0E0E3F1E800E00BBF31
:1007B00002C007900D92A236B107D9F729E0A2E650
:1007C000B5E001C01D92A53AB207E1F713E0C9EC0C
:1007D000D3E000E006C021970109802FFE010E94AE
:1007E000343CC83CD10780E00807A9F70E94622A80
:1007F0000C9496400C940000EF92FF920F931F937D
:10080000CF93DF93C0919F09D091A009AE01D7FF8C
:1008100002C04F5F5F4F5595479520919E092C9FD1
:1008200070012D9FF00C1124B0E0A0E030E020E03A
:10083000AE15BF056CF48C010A0F1B1FF801108167
:10084000112321F02F5F3F4F1196F2CFD701FCCF3C
:1008500037FF02C02F5F3F4F35952795421B530B43
:10086000C69F9001C79F300DD69F300D1124420FB7
:10087000531F30E020E02E153F05CCF4DC01A20F21
:10088000B31FAC91AA2389F0B901640F751F6E15CF
:100890007F0544F4EB01CD50D84FA8836D55784FB8
:1008A000FB0110822F5F3F4FE6CF9701FBCF81E026
:1008B00080939C07DF91CF911F910F91FF90EF9054
:1008C0000895DC01ED91FC910190F081E02D1994E7
:1008D000AF92BF92CF92DF92EF92FF920F931F934E
:1008E000CF93DF936C017B018B01040F151FEB018C
:1008F0005E01AE18BF08C017D10759F06991D60143
:10090000ED91FC910190F081E02DC6011995892BA4
:1009100079F7C501DF91CF911F910F91FF90EF9073
:10092000DF90CF90BF90AF900895FC01538D448D20
:10093000252F30E0842F90E0821B930B541710F08A
:10094000CF96089501970895FC01918D828D981797
:1009500061F0A28DAE0FBF2FB11D5D968C91928D6F
:100960009F5F9F73928F90E008958FEF9FEF0895A0
:10097000FC01918D828D981731F0828DE80FF11D69
:10098000858D90E008958FEF9FEF0895FC01918D84
:10099000228D892F90E0805C9F4F821B91098F737D
:1009A0009927089587EE98E00E94C60421E0892BDC
:1009B00009F420E0822F0895FC01A48DA80FB92F1F
:1009C000B11DA35ABF4F2C91848D90E001968F7377
:1009D0009927848FA689B7892C93A089B1898C9196
:1009E000837080648C93938D848D981306C00288E5
:1009F000F389E02D80818F7D80830895EF92FF92AF
:100A00000F931F93CF93DF93EC0181E0888F9B8D31
:100A10008C8D98131AC0E889F989808185FF15C0EB
:100A20009FB7F894EE89FF896083E889F98980810E
:100A30008370806480839FBF81E090E0DF91CF91DD
:100A40001F910F91FF90EF900895F62E0B8D10E0FF
:100A50000F5F1F4F0F731127E02E8C8D8E110CC06E
:100A60000FB607FCFACFE889F989808185FFF5CFB9
:100A7000CE010E94DC04F1CFEB8DEC0FFD2FF11DB8
:100A8000E35AFF4FF0829FB7F8940B8FEA89FB89F6
:100A900080818062CFCFCF93DF93EC01888D882354
:100AA000B9F0AA89BB89E889F9898C9185FD03C0D1
:100AB000808186FD0DC00FB607FCF7CF8C9185FFB6
:100AC000F2CF808185FFEDCFCE010E94DC04E9CF1B
:100AD000DF91CF91089580E090E0892B29F00E946A
:100AE000D20481110E94000080E090E0892B49F03F
:100AF00080E090E0892B29F00E94000081110E9483
:100B0000000080E090E0892B49F080E090E0892BA4
:100B100029F00E94000081110E94000080E090E016
:100B2000892B49F080E090E0892B29F00E94000099
:100B300081110C94000008958150823108F05AC050
:100B4000E82FF0E08827E855FA4F8F4F0C94343C9B
:100B5000C805CC05BA05C005C405FA05CF05D505FD
:100B6000D905DF05E305E705ED05F105FA05F5050E
:100B7000FB05FF05809180008F77809380000895AA
:100B8000809180008F7DF9CF80918000877FF5CFA5
:100B900084B58F7784BD089584B58F7DFBCF809118
:100BA000B0008F778093B00008958091B0008F7D62
:100BB000F9CF809190008F77809390000895809175
:100BC00090008F7DF9CF80919000877FF5CF809145
:100BD000A0008F778093A00008958091A0008F7D62
:100BE000F9CF8091A000877FF5CF809120018F778A
:100BF000809320010895809120018F7DF9CF80910D
:100C00002001877FF5CFCF93DF93282F30E0F901C4
:100C1000E050FA4F8491F901E75AFA4FD491F90163
:100C2000E754FA4FC491CC23A1F081110E949C0596
:100C3000EC2FF0E0EE0FFF1FEE5EFB4FA591B4919D
:100C4000EC91ED2381E090E009F480E0DF91CF9119
:100C5000089580E090E0FACF1F93CF93DF93282F81
:100C600030E0F901E050FA4F8491F901E75AFA4F68
:100C7000D491F901E754FA4FC491CC23A9F0162F6F
:100C800081110E949C05EC2FF0E0EE0FFF1FE15652
:100C9000FA4FA591B4918FB7F894EC91111108C057
:100CA000D095DE23DC938FBFDF91CF911F91089504
:100CB000DE2BF8CF9091000289130DC0EFEFF5E025
:100CC000E4919FEF90930002E230E1F038F4EE23DC
:100CD00081F0E13089F060E00C942C06E43049F1B9
:100CE00010F1E530C1F7909173009D7F90937300F0
:100CF000F2CF10926E00EFCF90916F009D7F909396
:100D00006F00E9CF909170009D7F9093700091E00B
:100D10009093B0009091B100987F94609093B1004F
:100D20001092B300D8CF909171009D7F9093710085
:100D3000D2CF909172009D7F90937200CCCFCF93D1
:100D4000DF9390E0FC01E75AFA4F249187549A4FC1
:100D5000FC0184918823D1F090E0880F991FFC0159
:100D6000E850FC4FA591B491FC01E156FA4FC591B2
:100D7000D49161110EC09FB7F8948C91E22FE09549
:100D80008E238C932881E223E8839FBFDF91CF914C
:100D900008958FB7F894EC91E22BEC938FBFF6CFC8
:100DA000863308F0865320917B00982F9870277F18
:100DB000922B90937B008770806480937C0080915D
:100DC0007A00806480937A0080917A0086FDFCCF5F
:100DD000809178009091790008953FB7F8948091C0
:100DE000310690913206A0913306B091340626B5B3
:100DF000A89B05C02F3F19F00196A11DB11D3FBF53
:100E0000BA2FA92F982F8827BC01CD01620F711D21
:100E1000811D911D42E0660F771F881F991F4A951B
:100E2000D1F708958F929F92AF92BF92CF92DF92A7
:100E3000EF92FF924B015C010E94ED066B017C0179
:100E40000E94ED066C197D098E099F09683E73406A
:100E500081059105A8F321E0821A9108A108B10843
:100E600088EEC80E83E0D81EE11CF11C81149104A9
:100E7000A104B10429F7FF90EF90DF90CF90BF90CD
:100E8000AF909F908F9008952FB7F89460912D06A2
:100E900070912E0680912F06909130062FBF0895F5
:100EA0002091E005260F3327331F21323105ECF462
:100EB00020910606FC0190E080E0243069F082E099
:100EC0000895A091E0052191AC0142545A4FA40F1E
:100ED000B52FB11D2C930196861798F38091E005EC
:100EE000680F6093E00580E0089581E00895109216
:100EF000060681E0809308061092070661E084E10F
:100F00000E942C0661E085E10E942C06E9EBF0E0EE
:100F100080818E7F808380818D7F808388E4809331
:100F2000B80085E48093BC000895CF93DF9391E0EF
:100F30009093BD058823B9F0C091B800D091BA0054
:100F40008091BC008A7B8093BC0060E084E10E94B9
:100F50002C0660E085E10E942C060E947707D09362
:100F6000BA00C093B800DF91CF9108950895089515
:100F70000895E091B5058091B405E81730F4F0E0EC
:100F8000EC56FA4F808190E008958FEF9FEF08951F
:100F90009091B5058091B4052FEF3FEF981748F475
:100FA000E92FF0E0EC56FA4F208130E09F5F9093FC
:100FB000B505C90108958091B4059091B505891BC7
:100FC000990B0895CF92DF92EF92FF920F931F93A8
:100FD000CF93DF937C01CB018A01209193052223DB
:100FE00089F0EB016B01C40ED51ECC15DD0569F04F
:100FF0006991D701ED91FC910190F081E02DC7013D
:101000001995F3CF642F0E945007C801DF91CF914B
:101010001F910F91FF90EF90DF90CF900895CF93A5
:10102000DF931F92CDB7DEB769832091930522230A
:10103000F9F02091B605203258F021E030E0FC01B3
:101040003383228390E080E00F90DF91CF91089569
:101050008091B705E82FF0E0ED58FA4F9981908321
:101060008F5F8093B7058093B60581E090E0ECCF69
:1010700061E0CE0101960E945007F7CFCF92DF9238
:10108000EF92FF920F931F93CF93DF93FC01C481E4
:1010900021E020939305C09372051092B70510923A
:1010A000B6058385682B84E899E00E940F08D091EB
:1010B000B605D13208F092C00E94ED066B017C01AA
:1010C00080910606811165C082E08093060681E06A
:1010D000809308068FEF8093050610922A06D0931E
:1010E0002906A3E7B5E0E9E0F6E080E0D81385C083
:1010F00010922B0680912B06CC0FC82BC0932B0689
:1011000080910706813009F07CC0109207060E948A
:10111000ED066B017C0180912B068093BB008091D2
:10112000B9059091BA05A091BB05B091BC05892B7A
:101130008A2B8B2B99F00E94ED060091B905109136
:10114000BA052091BB053091BC056C197D098E094B
:101150009F090617170728073907E0F18091BC009F
:1011600083FDD9CF85EC8093BC000E94ED066B0116
:101170007C0180910606823009F445C08091050605
:101180008F3F61F180910506803241F18091050623
:1011900025C08091B9059091BA05A091BB05B09189
:1011A000BC05892B8A2B8B2B09F48ACF0E94ED0674
:1011B0000091B9051091BA052091BB053091BC058D
:1011C0006C197D098E099F0906171707280739072B
:1011D00008F076CF8091B8050E9495071092B70568
:1011E0001092B60510929305DF91CF911F910F9148
:1011F000FF90EF90DF90CF9008959D9191938F5F36
:1012000075CF85EEB0CF8091B9059091BA05A091C8
:10121000BB05B091BC05892B8A2B8B2B09F4A9CF78
:101220000E94ED060091B9051091BA052091BB0509
:101230003091BC056C197D098E099F0906171707A7
:101240002807390708F095CFC5CF089590E080E0D2
:101250000895CF93DF93EC01FE016491662389F03A
:101260008091E60880FF0BC08091E4089091E5082A
:10127000DC01ED91FC910190F081E02D1995219612
:10128000EBCFDF91CF91089560E086E00E942C06BD
:1012900061E087E00C942C068091B006982F9D7F2A
:1012A000913069F0853059F08B3049F0982F9B7F51
:1012B000923039F0877F843021F080E0089581E01A
:1012C000089582E008954F925F926F927F928F927D
:1012D0009F92AF92BF92CF92DF92EF92FF92CF9305
:1012E000DF93C82F0E944407C0906205D090630529
:1012F000E0906405F09065056C197D098E099F09E1
:10130000653671058105910518F4CC2309F4CDC02B
:1013100086E30E94D006EC019093AF068093AE0660
:10132000C090E406D090E5060D2C000CEE08FF08F6
:10133000C701B6010E94D9384B015C016091C40617
:101340007091C506072E000C880B990B0E94D938A6
:101350002B013C016091E6067091E7068091E8065A
:101360009091E9066C0D7D1D8E1D9F1D0E94D93840
:10137000A50194010E9446376B017C01BE01DD0F7F
:10138000880B990B0E94D938A30192010E9446371D
:101390009B01AC01C701B6010E94FC396B017C01C5
:1013A0006091C6067091C706072E000C880B990B3A
:1013B0000E94D938A30192010E9446379B01AC01DB
:1013C000C701B6010E942F38A50194010E9447373A
:1013D0004B015C018092BD069092BE06A092BF06B2
:1013E000B092C006C090DC06D090DD06E090DE062C
:1013F000F090DF0620E030E0A901C701B6010E94AD
:10140000253887FF12C0A7019601C701B6010E94C7
:101410004737A50194010E9447376093BD0670933A
:10142000BE068093BF069093C006C090BD06D090C4
:10143000BE06E090BF06F090C00620E030E044EB2E
:1014400053E4C701B6010E94EF3987FD3DC020E09B
:1014500030E044EB53E4C701B6010E942F380E94EC
:10146000A138072E000C880B990B0E94D93820E078
:1014700030E044EB53E40E94FC399B01AC01C7010E
:10148000B6010E9446376093B7067093B806809302
:10149000B9069093BA060E94440760936205709360
:1014A00063058093640590936505DF91CF91FF906C
:1014B000EF90DF90CF90BF90AF909F908F907F90F4
:1014C0006F905F904F90089520E030E0A901C70130
:1014D000B6010E94253887FF09C020E030E044EBC8
:1014E00053E4C701B6010E944737CDCFC092B7067B
:1014F000D092B806E092B906F092BA06CCCF68EC6A
:1015000070E080E090E00E9412078091E4089091E2
:10151000E508DC01ED91FC910084F185E02D199541
:10152000892B71F08091E4089091E508DC01ED9140
:10153000FC910284F385E02D199580933806E5CF60
:1015400008958091E4089091E508DC01ED91FC910B
:101550000084F185E02D1995892B99F38091E40899
:101560009091E508DC01ED91FC910084F185E02D7E
:1015700019951816190674F48091E4089091E508FD
:10158000DC01ED91FC910284F385E02D19958093A7
:101590003806E4CF08950F931F93CF938C01C62F85
:1015A0000E943E086C2F6460C8010E943E086C2FA8
:1015B0006B7FC8010E943E0883EC90E00197F1F731
:1015C000CF911F910F9108950F931F93CF93DF93A6
:1015D0008C01D62FC42F607F642B0E94CB0A80E140
:1015E000D89FB00111246C2BC801DF91CF911F91BE
:1015F0000F910C94CB0ACF93DF9300D000D01F92B1
:101600001F92CDB7DEB798E0ECE0F2E0DE01119674
:1016100001900D929A95E1F790919809961710F420
:101620006FEF690F262F30E0220F331F41E050E0AB
:101630004C0F5D1F240F351FF9016081680F606832
:1016400040E080E999E028960FB6F894DEBF0FBE1F
:10165000CDBFDF91CF910C94E40AAF92BF92CF92AD
:10166000DF92EF92FF920F931F93CF93DF936091DE
:1016700096096D7F60939609686040E080E999E083
:101680000E94E40A60E080E00E94FB0A83E4C82E26
:1016900088E0D82E93EAE92E97E0F92E04E918E0C5
:1016A000C3EFD7E090E09E01235F374060919F0930
:1016B0007091A00980919E09869FA001879F500D7F
:1016C0001124241735070CF047C0F601A080B8801C
:1016D000AB1431F1911105C0C9010E94DF3B0E949A
:1016E000FB0AF701808180FF04C08091930860E2CB
:1016F00081116B2D80E999E00E9461048881F601D7
:101700008083F7018081F801808391E02196FFEFCB
:10171000CF1ADF0A8FEFE81AF80A0F5F1F4FC3CF07
:10172000B09093088091A2078B15A1F0F8018081F9
:1017300080FFECCF911105C0C9010E94DF3B0E94E0
:10174000FB0A6A2DB11001C060E280E999E00E94B5
:101750006104DBCF90E0DACF809193088093A207F9
:10176000DF91CF911F910F91FF90EF90DF90CF907D
:10177000BF90AF9008950F931F93CF93DF93609125
:1017800096096D7F60939609686040E080E999E072
:101790000E94E40A60E080E00E94FB0AC3E4D8E013
:1017A00004E918E0C8018459984060919F0970913C
:1017B000A00940919E09469F9001479F300D11243A
:1017C00082179307A4F40E94DF3B0E94FB0AF801F2
:1017D00081918F0180FF04C08091930860E28111A4
:1017E000688180E999E00E9461042196DBCFDF9156
:1017F000CF911F910F9108950F931F93CF93DF9374
:101800008091A107882369F10E94440700919807FD
:101810001091990720919A0730919B0760177107E3
:101820008207930708F44CC0E7E4F7E083EF97E002
:10183000C7EFD6E043EA57E02191DC012D93CD01BB
:101840002991DA012D93AD01B7E0E739FB07A1F744
:101850000E942D0B1092A107DF91CF911F910F9144
:10186000089580919C07882359F10E9444070091B4
:101870009D0710919E0720919F073091A007AB0113
:10188000BC01401B510B620B730B80919C09909122
:101890009D09092E000CAA0BBB0B481759076A07B4
:1018A0007B0770F00E942D0B0E94440760939D07F8
:1018B00070939E0780939F079093A00710929C07B8
:1018C00080919707882339F00E942D0B109297077B
:1018D00010929C07C1CF0E94440700910202109110
:1018E00003022091040230910502601771078207FC
:1018F000930708F4B1CF809193088823B1F0109238
:1019000093080E9444076C507E4F8F4F9F4F609307
:101910000202709303028093040290930502DF9108
:10192000CF911F910F910C94BB0B81E08093930892
:10193000E8CF41E00E94E40A81E090E008954F92F0
:101940005F926F927F928F929F92AF92BF92CF924F
:10195000DF92EF92FF92CF938091B0068F3079F4AF
:1019600080913B0680933A0661E086E00E942C0657
:1019700060E087E00E942C0683E08093B0068091AF
:10198000B006803149F480913B0680933A060E946C
:10199000440984E08093B0068091B006873009F551
:1019A000C1E0C0933A0661E086E00E942C0660E048
:1019B00087E00E942C060E94440760936E05709396
:1019C0006F05809370059093710510926A051092CF
:1019D0006B0510926C0510926D0510926905C0930D
:1019E000B0068091B0068830E1F481E080933A0639
:1019F0000E9444090E94440760936E0570936F052E
:101A0000809370059093710510926A0510926B0592
:101A100010926C0510926D051092690582E080931A
:101A2000B0068091B0068930A1F4109268050E943A
:101A300044070E94440760936A0570936B05809386
:101A40006C0590936D0587EC809367058BE0809320
:101A5000B0068091B0068A30A1F4109268050E9409
:101A600044070E94440760936A0570936B05809356
:101A70006C0590936D0587EC809367058CE08093EF
:101A8000B0068091B0068D30A9F481E0809368059E
:101A90000E9444070E94440760936A0570936B0597
:101AA00080936C0590936D0587EC809367058CE0BF
:101AB0008093B0068091B0068E30A9F481E08093C7
:101AC00068050E9444070E94440760936A0570936A
:101AD0006B0580936C0590936D0587EC809367058B
:101AE0008BE08093B006C091B0068FEF8C0F8230F0
:101AF000F0F40E944407C0906E05D0906F05E0900E
:101B00007005F09071056C197D098E099F09603D83
:101B100077408105910508F4D8C083E0C13009F011
:101B200084E08093B00680913B0680933A06C09192
:101B3000B00685EF8C0F823008F065C00E94440724
:101B4000C0906A05D0906B05E0906C05F0906D0533
:101B50006C197D098E099F096A307105810591050F
:101B600008F451C0F090670560913A0670E090E08B
:101B700080E00E94D9384B015C016F2D70E090E04D
:101B800080E00E94D73820E030E048E453E40E942F
:101B90002F389B01AC01C501B4010E94FC390E94A1
:101BA000A13860933A060E94440760936A057093D7
:101BB0006B0580936C0590936D05FF2019F0FA94E6
:101BC000F09267058091670581111DC060E086E095
:101BD0000E942C0660E087E00E942C068091680538
:101BE000882309F4C1C0CB3029F484E08093B00687
:101BF000109268058091B0068C3029F483E08093C0
:101C0000B00610926805C091B0068BEF8C0F823041
:101C100008F4AFC0CC2309F44AC08091B1068330E8
:101C200009F045C0C0904006D0904106E0904206C1
:101C3000F09043064090BD065090BE066090BF06EF
:101C40007090C006A7019601C301B2010E944637F9
:101C50004B015C018C2F8D7F813019F0C53009F06C
:101C600041C120E030E0A901C501B4010E94EF3973
:101C700018160CF0D8C020E030E040E450E4C50174
:101C8000B4010E94253887FDD9C0A3019201C70184
:101C9000B6010E94253887FF0AC020E030E040E00E
:101CA00051E4C501B4010E94253887FDC7C0CF911A
:101CB000FF90EF90DF90CF90BF90AF909F908F906C
:101CC0007F906F905F904F9008950E944407C0905E
:101CD0006A05D0906B05E0906C05F0906D056C196D
:101CE0007D098E099F09653671058105910508F406
:101CF0001ECF60913B06623008F419CFC091690590
:101D00006150770B072E000C880B990B0E94D93875
:101D10006B017C016C2F70E090E080E00E94D7386E
:101D200020E030E048E951E40E942F389B01AC01EB
:101D3000C701B6010E94FC3920E030E040E85FE3D3
:101D40000E9447370E94A83860933A060E944407D1
:101D500060936A0570936B0580936C0590936D0595
:101D6000CF5FC0936905E3CE1092B0061092B10622
:101D70004ACF2091BD063091BE064091BF065091DA
:101D8000C006609140067091410680914206909194
:101D900043060E9446372B013C0120E030E0A901B8
:101DA0000E94EF39181624F077FA709477F870943F
:101DB000F09067056F2D70E090E080E00E94D738CA
:101DC00020E030E048E453E40E942F384B015C01EE
:101DD00020E030E040E251E40E94FC39A30192018E
:101DE0000E94EF3987FD16CF609166056451770B2D
:101DF000072E000C880B990B0E94D938A50194017D
:101E00000E94FC3920E030E040EA51E40E9447376C
:101E10000E94A83860933A06FF2009F4FBCEFA949A
:101E2000F0926705FACE20E030E040E450ECC501C6
:101E3000B4010E94EF3918160CF027CF62E370E06E
:101E400080E090E00E94120780E00E9463094090C9
:101E5000BD065090BE066090BF067090C006A701F8
:101E60009601C301B2010E9446374B015C0120E09C
:101E700030E0A9010E94EF391816BCF420E030E0F0
:101E800040E450E4C501B4010E94253887FF17C023
:101E900060E086E00E942C0660E087E00E942C064D
:101EA0001092B0061092B10602CF20E030E040E47C
:101EB00050ECC501B4010E94EF3918164CF3A30190
:101EC0009201C701B6010E94253887FFF0CE20E0BD
:101ED00030E040E051E4C501B4010E94253887FD9F
:101EE000D7CFE5CE20E030E0A901C501B4010E94C2
:101EF000EF39181614F520E030E040E450E4C50155
:101F0000B4010E94253887FD22C0A3019201C701B8
:101F1000B6010E94EF3918160CF0C9CEA301920148
:101F2000C701B6010E94463720E030E040E051E4AE
:101F30000E94253887FFBBCE0AC020E030E040E495
:101F400050ECC501B4010E94EF391816F4F662E3B3
:101F500070E080E090E00E94120780E00E94630938
:101F60008090BD069090BE06A090BF06B090C006BF
:101F7000A7019601C501B4010E9446372B013C011F
:101F800020E030E0A9010E94EF391816F4F420E0B7
:101F900030E040E450E4C301B2010E94253887FDDF
:101FA00077CFA5019401C701B6010E94EF39181639
:101FB0000CF07DCEA5019401C701B6010E94463701
:101FC00020E030E040E051E488CF20E030E040E421
:101FD00050ECC301B2010E94EF3918160CF458CF2F
:101FE000E0CFFB0101900020E9F73197AF01461BDC
:101FF000570BDC01ED91FC910280F381E02D1994E7
:10200000EF92FF920F931F93CF93DF938C017B018D
:10201000D0E0C0E0F701EC0FFD1F6491662361F092
:10202000D801ED91FC910190F081E02DC801199546
:10203000892B11F02196EECF6BE472E0C8010E946B
:10204000F10F8C0F9D1FDF91CF911F910F91FF908A
:10205000EF900895CF93DF93EC01FE01649180919E
:10206000E4089091E508662369F02091E60820FFD6
:1020700007C0DC01ED91FC910190F081E02D1995F4
:102080002196EBCF6BE472E0DF91CF910C94F10FCE
:102090008F929F92AF92BF92EF92FF920F931F93F6
:1020A000CF93DF93CDB7DEB7A1970FB6F894DEBF1D
:1020B0000FBECDBF7C01FA01CB0119A2223008F47A
:1020C0002AE08E010F5D1F4F822E912CB12CA12C86
:1020D000BF01A50194010E94F33BF901CA016A30D6
:1020E0000CF5605DD8016E938D01232B242B252BDD
:1020F00079F790E080E0109721F0BD01C7010E94C0
:10210000F10FA1960FB6F894DEBF0FBECDBFDF91E1
:10211000CF911F910F91FF90EF90BF90AF909F9044
:102120008F900895695CDECFCF92DF92EF92FF929D
:10213000CF93DF932091E60820FF22C0C091E408EE
:10214000D091E5086C01990FEE08FF082AE0B7016D
:10215000A601F7FE0CC06DE2CE010E946104442787
:102160005527BA014C195D096E097F092AE0CE0195
:10217000DF91CF91FF90EF90DF90CF900C944810BB
:10218000DF91CF91FF90EF90DF90CF9008950F9364
:102190001F93CF93DF93CDB7DEB760970FB6F89458
:1021A000DEBF0FBECDBF1A821982FE0133962EE02C
:1021B000DF011D922A95E9F78E010F5F1F4F20E086
:1021C00040E00E94AF348091E60880FF07C0B8016C
:1021D0008091E4089091E5080E94F10F60960FB697
:1021E000F894DEBF0FBECDBFDF91CF911F910F914D
:1021F00008952091E60820FF07C0BC018091E40803
:102200009091E5080C94F10F0895CF93DF932091FE
:10221000E60820FF0FC0BC01C091E408D091E5089A
:10222000CE010E94F10F6BE472E0CE01DF91CF91FD
:102230000C94F10FDF91CF9108956F927F928F925E
:102240009F92AF92BF92CF92DF92EF92FF920F9345
:102250001F93CF93DF93CDB7DEB7C054D1090FB62C
:10226000F894DEBF0FBECDBF6C014B011AA219A2BC
:102270008EE1FE01B396DF01282F1D922A95E9F722
:102280001A821982B097DF011D928A95E9F7F6014B
:1022900001900020E9F7C6018E1B9F0B9C012B5E6D
:1022A0003F4F79018E010F5D1F4F12161306D4F4B4
:1022B000390175946794B12CA12C6A147B0491F0B8
:1022C000F80101900020E9F73197E01BF10B7F97AF
:1022D00048F46BE175E0C8010E949F3D3FEFA31AEF
:1022E000B30AEBCF44E150E0B601CE0101960E9463
:1022F000B13DBE016F5F7F4FC8010E949F3D1E141C
:102300001F040CF55701B594A794D12CC12CAC1423
:10231000BD0491F0F80101900020E9F73197E01B2E
:10232000F10B7F9748F46BE175E0C8010E949F3D77
:102330008FEFC81AD80AEBCFE0FE05C06BE175E05D
:10234000C8010E949F3DB401C8010E94FC03C05C0B
:10235000DF4F0FB6F894DEBF0FBECDBFDF91CF9138
:102360001F910F91FF90EF90DF90CF90BF90AF90B3
:102370009F908F907F906F9008952F923F924F92F1
:102380005F926F927F928F929F92AF92BF92CF9205
:10239000DF92EF92FF920F931F93CF93DF9300D0C2
:1023A000CDB7DEB79B838A831B018A017C016C0158
:1023B00026E0C20ED11CF70181917F01082E000C8E
:1023C000990B0E94973DF70131978083CE14DF046B
:1023D00091F7EA81FB8184818154883120F48581E1
:1023E0008154883128F08DE4EA81FB8184838583E0
:1023F000EA81FB818181082E000C990B815491099F
:102400002AE0289FB001299F700D1124072E000C8F
:10241000880B990B0E94D9384B015C01EA81FB8142
:102420006381605369836581062E000C770B6154CC
:102430007109072E000C880B990B0E94D9382BEAE2
:102440003AEA4AE25DE30E94FC392BEA3AEA4AEAB8
:102450005CE30E9447376B017C01EA81FB8180814C
:10246000082E000C990B8154910924E1289FB0019A
:10247000299F700D1124072E000C880B990B0E94C8
:10248000D9382B013C01EA81FB816281660F6056DD
:1024900070E090E080E00E94D9389B01AC01C3015C
:1024A000B2010E9447372B013C01EA81FB81648124
:1024B000062E000C770B61547109072E000C880B57
:1024C000990B0E94D9382BEA3AEA4AEA5DE30E9466
:1024D000FC392BEA3AEA4AE25DE30E9447379B0166
:1024E000AC01C301B2010E94473720E030E044E371
:1024F00053E40E944637F80160837183828393839B
:10250000F9816F2F70E090E080E00E94D938A5013A
:1025100094010E944737A70196010E94473720E0A7
:1025200030E044EB52E40E944637F101608371834E
:10253000828393830F900F900F90DF91CF911F9123
:102540000F91FF90EF90DF90CF90BF90AF909F9052
:102550008F907F906F905F904F903F902F90089555
:1025600085ED8093BC008091B9059091BA05A0914A
:10257000BB05B091BC050796A11DB11D23E0B69522
:10258000A795979587952A95D1F72091BC0024FDB2
:1025900003C01092060608954091B9055091BA05FE
:1025A0006091BB057091BC05452B462B472B69F309
:1025B0000097A105B10541F02AE22A95F1F700C084
:1025C0000197A109B109E1CF8091B8050C94950755
:1025D0000F931F93CF93DF938BE78093C1061092E5
:1025E000C20601EC16E0D0E0C0E0F80161918F0175
:1025F000CE010E9438372196C633D105B1F710922B
:10260000BC06DF91CF911F910F910895E1ECF6E0A8
:1026100021E030E0348323838FEF93E0968385833A
:1026200030872783928781878091BD069091BE066F
:10263000A091BF06B091C00683879487A587B6870F
:10264000138A148A158A168A178A108E118E128E92
:10265000138E148E158E168E178E10A211A212A232
:1026600084EB90E094A383A382EC91E0A0E0B0E03F
:1026700085A396A3A7A3B0A711A612A613A614A676
:1026800015A616A610AA17A611AA1786108A118ACF
:10269000128A0C94E8122F923F924F925F926F929F
:1026A0007F928F929F92AF92BF92CF92DF92EF92E2
:1026B000FF920F931F93CF93DF93CDB7DEB7A89709
:1026C0000FB6F894DEBF0FBECDBF9E8F8D8F4B012E
:1026D0006EEC73E0C4010E94AA3D1A821982FE01C9
:1026E000339682E1DF011D928A95E9F780917D069C
:1026F000883409F499C2A0F5813409F4E4C000F5E6
:102700008B3209F4EFC28F3309F40BC380E0A89633
:102710000FB6F894DEBF0FBECDBFDF91CF911F91F2
:102720000F91FF90EF90DF90CF90BF90AF909F9070
:102730008F907F906F905F904F903F902F90089573
:10274000843409F43BC2853409F70E94061369EF0B
:1027500076E0C4010E94D83481E08093BB06D6CFD6
:102760008B3409F4FDC108F041C0893409F46FC00D
:102770008A3461F60EE716E0B12CC12CD12C76011B
:10278000FAE0AF2EC8018C5796402D8D3E8D8217F2
:1027900093070CF0B8C1D8016D918D016E3209F428
:1027A000AFC16053770B072E000C880B990B0E946A
:1027B000D9382B013C01BB2009F493C16B2D70E08B
:1027C00090E080E00E94D7389B01AC01C301B201C8
:1027D0000E942F389B01AC01C701B6010E94473708
:1027E0006B017C01BA9CB02C1124CCCF813509F44B
:1027F0001EC2883509F425C28C3409F087CFC090F9
:10280000B706D090B806E090B906F090BA0620E07E
:1028100030E044E353E4C701B6010E94253811E0DB
:102820001093B60620E030E044E353E487FF04C28F
:10283000C701B6010E9447376093B2067093B30692
:102840008093B4069093B5061093B1065FCF0EE760
:1028500016E0B12CC12CD12C7601EAE0AE2EC801D5
:102860008C5796402D8D3E8D821793070CF005C135
:10287000D8016D918D016E3209F4FCC06053770B65
:10288000072E000C880B990B0E94D9382B013C01B4
:10289000BB2009F4E0C06B2D70E090E080E00E9466
:1028A000D7389B01AC01C301B2010E942F389B01B4
:1028B000AC01C701B6010E9447376B017C01BA9C8D
:1028C000B02C1124CCCF0D8D1E8D01501109ED8D32
:1028D000FE8DE458F94F5F01312C412C512C32010F
:1028E0004394C12CD12C76010230110514F1F5016D
:1028F000A2915F01AE32D9F0A053BB0BA3019201AC
:102900000E94473C0E94D9389B01AC01C701B60127
:102910000E9447376B017C01AAE0B0E0A30192015D
:102920000E943C3C2B013C0101501109DDCF302EAF
:10293000FBCF3320E1F06D8D7E8D631971096150FD
:102940007109072E000C880B990B0E94D9389B0146
:10295000AC0160E070E080E291E40E94693A9B0182
:10296000AC01C701B6010E942F386B017C0120E049
:1029700030E0A901C701B6010E94EF3987FD18C1F7
:1029800020E030E044EB53E4C701B6010E94253853
:1029900018160CF40DC11092DC061092DD06109290
:1029A000DE061092DF0681E00E9463092091BD06D9
:1029B0003091BE064091BF065091C006C701B601D6
:1029C0000E9446372B013C014092DC065092DD0606
:1029D0006092DE067092DF066091E4067091E50673
:1029E000072E000C880B990B0E94D9386D8F7E8FB3
:1029F0008F8F98A320E030E0A901C301B2010E94AB
:102A0000EF39181624F077FA709477F87094A301D0
:102A100092016D8D7E8D8F8D98A10E9447370E9407
:102A2000A1387093E5066093E40681E08093BC06CC
:102A300069E777E0C4010E94D8348E010F5F1F4F11
:102A400022E040E0C701B6010E94AF34B801C401E2
:102A50000E949F3D5BCE20E030E040E251E4C701A0
:102A6000B6010E94FC39A30192010E9447376B0115
:102A70007C01F5CE6AE0B62EF2CE61E677E0C401C5
:102A80000E94D83420E030E0A901C701B6010E94BD
:102A9000EF39181634F0ED8DFE8D65E577E033974C
:102AA0006CF0C701B6010E94A1387093E5066093EF
:102AB000E40681E08093BC0669E577E0C4010E94EA
:102AC000CD346091E4067091E506072E000C880B6A
:102AD000990B0E94D9388E010F5F1F4F20E040E014
:102AE000B3CF20E030E040E251E4C701B6010E94DC
:102AF000FC39A30192010E9447376B017C0142CE51
:102B00005AE0B52E3FCE68E377E0C4010E94D83486
:102B100020E030E0A901C701B6010E94EF396CE264
:102B200077E018168CF4C701B6010E94A1386093B3
:102B3000E6067093E7068093E8069093E90681E045
:102B40008093BC0660E377E0C4010E94CD346091BD
:102B5000E6067091E7068091E8069091E906B9CF04
:102B6000ED8DFE8D329781F41091EA06123000F55A
:102B700068E672E0C4010E94AA3D6EE472E01111A1
:102B800066CF68E572E063CF80917E06803311F4F2
:102B90000C94F424813361F42D8D3E8D11E02330AB
:102BA000310534F31093EA0681E08093BC06E0CF50
:102BB00061E672E0C4010E94AA3DA8CD8091E608BA
:102BC00080FF1BC08E7F8093E6084D8D5E8D8091C7
:102BD0007E0680534330510569F08D8D9E8D04979C
:102BE00071F490917E0680917F068051AAE09A9FB1
:102BF000800D11248093010289CD8160E4CFED8D99
:102C0000FE8D83E03597B1F790917E068091800626
:102C1000805DF4E69F9F800D112490917F062AE04D
:102C2000929F800D1124E6CF0E94BB0B6FCD0E94B6
:102C3000E81260EC76E08DCDC701B6010E94463700
:102C4000FBCD80917E0690E00E94973DC09709F0F1
:102C500046C06091E4067091E506072E000C880BD3
:102C6000990B0E94D9382B013C01C090DC06D09012
:102C7000DD06E090DE06F090DF0620E030E0A901FE
:102C8000C701B6010E94EF39181624F0F7FAF09444
:102C9000F7F8F094A7019601C301B2010E944637EC
:102CA0000E94A1387093E5066093E4061092DC065A
:102CB0001092DD061092DE061092DF061092E006FA
:102CC0001092E1061092E2061092E30681E08093F2
:102CD000BC0664EA76E0C4010E94D83417CD62E7EE
:102CE00072E068CF8091F206823059F41092F206B9
:102CF00067E876E0C4010E94D83481E08093BC0686
:102D000005CD813031F482E08093F20668E676E00A
:102D1000F1CF8111F2CF81E08093F20666E476E094
:102D2000E9CF65E772E0C4010E94AA3D80917E066A
:102D30004D8D5E8D4430510509F035C2863409F061
:102D40006FC080917F06833509F06AC06AE772E040
:102D5000C4010E94AA3DC090BD06D090BE06E0907E
:102D6000BF06F090C00620E030E048EC52E4C70116
:102D7000B6010E94253887FF05C064EA73E0C401EC
:102D80000E949F3D20E030E040E251E4C701B601DF
:102D90000E94253887FF05C064EA73E0C4010E94E1
:102DA0009F3D8E010F5F1F4F26E040E0C701B60137
:102DB0000E94AF34B801C4010E949F3D61E872E0F7
:102DC000C4010E949F3D61E872E0C4010E949F3DE2
:102DD0006091B00670E090E080E00E94D73820E07B
:102DE00040E00E94AF34B801C4010E949F3D61E8F9
:102DF00072E0C4010E949F3D61E872E0C4010E943C
:102E00009F3D61E872E0C4010E949F3D61E872E06D
:102E1000C4010E949F3D63E872E0C4010E949F3D8F
:102E200080917E068134E1F580917F068A35C1F577
:102E300065E872E0C4010E94AA3DC090BD06D09032
:102E4000BE06E090BF06F090C00620E030E048ECFF
:102E500052E4C701B6010E94253887FF05C064EA25
:102E600073E0C4010E949F3D20E030E040E251E465
:102E7000C701B6010E94253887FF05C064EA73E0E8
:102E8000C4010E949F3D8E010F5F1F4F26E040E06E
:102E9000C701B6010E94AF34B801C4010E949F3D32
:102EA00080917E06853449F480917F068C3429F424
:102EB0006CE872E0C4010E94AA3D80917E068134D4
:102EC000D9F480917F068335B9F463E972E0C401D7
:102ED0000E94AA3D6091B00670E090E080E00E9400
:102EE000D7388E010F5F1F4F20E040E00E94AF34C3
:102EF000B801C4010E949F3D80917E06853449F44B
:102F000080917F06833529F46AE972E0C4010E944A
:102F1000AA3D80917E06803549F480917F068734F2
:102F200029F461EA72E0C4010E94AA3D80917E0604
:102F30008235B9F480917F068C3499F484E08093D3
:102F4000B6061092B2061092B3061092B406109212
:102F5000B50681E08093B10668EA72E0C4010E9480
:102F6000AA3D80917E068235B9F480917F06823534
:102F700099F483E08093B6061092B2061092B306DD
:102F80001092B4061092B50681E08093B1066FEA04
:102F900072E0C4010E94AA3D80917E06823549F408
:102FA00080917F06853529F466EB72E0C4010E94AA
:102FB000AA3D80917E06823549F480917F06843453
:102FC00029F46DEB72E0C4010E94AA3D80917E0657
:102FD0008335B1F480917F06813491F41092B60666
:102FE0001092B2061092B3061092B4061092B50673
:102FF00081E08093B10664EC72E0C4010E94AA3DB6
:1030000080917E06833549F480917F06853429F4CA
:103010006BEC72E0C4010E94AA3D80917E0683356C
:10302000B1F480917F06833591F41092B606109228
:10303000B2061092B3061092B4061092B50681E063
:103040008093B10662ED72E0C4010E94AA3D8091B6
:103050007E06833449F480917F068C3429F469ED2F
:1030600072E0C4010E94AA3D80917E06823509F07B
:1030700087C080917F06823419F481E08093BB067B
:1030800080917E068134B1F480917F068F3491F473
:1030900081E00E9463098091AE069091AF06909303
:1030A000C5068093C4060E94E81265EF72E0C40171
:1030B0000E94AA3D80917E068134B1F480917F0602
:1030C000863491F481E00E9463098091AE0690916C
:1030D000AF069093C7068093C6060E94E8126CEF75
:1030E00072E0C4010E94AA3D80917E06873409F0F7
:1030F00088C380917F06813409F083C300E816E01D
:10310000712C612CC12CD12C76014AE0B42EC8015F
:103110008C579640ED8DFE8D8E179F070CF087C261
:10312000D8016D918D016E3209F47DC26053770B29
:10313000072E000C880B990B0E94D9381B012C011B
:103140006114710409F460C2B301072C000C880BF0
:10315000990B0E94D9389B01AC01C201B1010E94B8
:103160002F389B01AC01C701B6010E9447376B01A4
:103170007C01F301BE9E3001BF9E700C1124C7CFAD
:10318000833409F07DCF80917F06863509F078CFB2
:1031900060EE72E0C4010E94AA3D67EE72E0C401D5
:1031A0000E949F3D6DCFAD8DBE8D169709F09CCFCF
:1031B000843481F580917F068F3461F5F09080062C
:1031C00000ED0F0D0A3038F08F2D90E00E94973DF2
:1031D00081349105F9F41091810680ED810F8A30D8
:1031E000C8F48F2D90E00E94973D8134910509F03D
:1031F000D6C110E0073028F4E02FF0E0EC5EFD4F80
:10320000108163E073E0C4010E94AA3D61E0812F58
:103210000E949F0680917E068434A1F5E0907F068F
:103220008E2D8B7F883471F5F090800680ED8F0DA8
:103230008A3038F08F2D90E00E94973D81349105BF
:1032400009F51091810600ED010F0A30D8F48F2D99
:1032500090E00E94973D8134910509F0A6C180E07D
:10326000073028F4E02FF0E0EC5EFD4F8081F8E4B9
:10327000EF12A2C161E00E942C066AE073E0C40173
:103280000E94AA3D80917E06843479F580917F0664
:10329000893459F5F090800680ED8F0D8A3038F032
:1032A0008F2D90E00E94973D81349105F1F41091AB
:1032B000810600ED010F0A30C0F48F2D90E00E94CE
:1032C000973D8134910509F07DC180E0073028F4F5
:1032D000E02FF0E0EC5EFD4F808160E00E949F06F1
:1032E00068E173E0C4010E94AA3D80917E068434A7
:1032F000A1F580917F06803581F5F090800680ED04
:103300008F0D8A3038F08F2D90E00E94973D8134E8
:10331000910519F51091810600ED010F0A30E8F4CE
:103320008F2D90E00E94973D8134910509F051C1A5
:1033300010E0073028F4E02FF0E0EC5EFD4F108144
:1033400060E0812F0E949F0661E0812F0E942C0681
:103350006FE173E0C4010E94AA3D80917E0684342F
:1033600009F062C080917F06823509F05DC0F0905F
:10337000800680ED8F0D8A3040F08F2D90E00E9406
:10338000973D8134910509F04FC01091810600ED01
:10339000010F0A3008F048C08F2D90E00E94973D41
:1033A0008134910509F01BC180E0073028F4E02F3B
:1033B000F0E0EC5EFD4F80810E940306F82E66E28D
:1033C00073E0C4010E94AA3D609180066053770BB0
:1033D000072E000C880B990B0E94D9388E010F5FC5
:1033E0001F4F20E040E00E94AF34B801C4010E94AA
:1033F0009F3D609181066053770B072E000C880B70
:10340000990B0E94D93820E040E00E94AF34B80107
:10341000C4010E949F3D63EF72E0F11002C064EAB4
:1034200073E0C4010E949F3D80917E06813409F0C3
:1034300093C080917F06823509F08EC0F09080069F
:1034400080ED8F0D8A3040F08F2D90E00E94973DE7
:103450008134910509F080C01091810600ED010FC3
:103460000A3008F079C08F2D90E00E94973D81349A
:10347000910509F0BBC080E0073028F4E02FF0E0B0
:10348000EC5EFD4F80810E94D0067C016DE273E00E
:10349000C4010E94AA3D0091800610E0C8010E946C
:1034A000973D67E473E08134910589F0B80160537A
:1034B0007109072E000C880B990B0E94D9388E01D8
:1034C0000F5F1F4F20E040E00E94AF34B801C401FD
:1034D0000E949F3D609181066053770B072E000C80
:1034E000880B990B0E94D9388E010F5F1F4F20E087
:1034F00040E00E94AF34B801C4010E949F3D88EEB5
:10350000E81683E0F806BCF464EA73E0C4010E94A4
:103510009F3D94E6E916F10474F464EA73E0C40193
:103520000E949F3DAAE0EA16F1042CF464EA73E0DD
:10353000C4010E949F3DB701FF0C880B990B0E94AC
:10354000D9388E010F5F1F4F20E040E00E94AF345A
:10355000B801C4010E949F3D80917E068E3409F01F
:10356000C3CD80917F06843509F0BECD10918006D1
:10357000812F90E00E94973DE09181068134910572
:1035800009F03BC0E05380E0E73020F4F0E0EC5E6F
:10359000FD4F80810E945A0664E373E0A2CD105172
:1035A000BAE0FB9E100D11242CCE80EF810FEAE0D3
:1035B000FE9E800D11245BCE60E00E942C0661E12E
:1035C00073E05DCE80EF810F2AE0F29E800D112422
:1035D00084CE10513AE0F39E100D1124B1CE80EF4D
:1035E000810F4AE0F49E800D1124E6CE80EF810F1A
:1035F0005AE0F59E800D112446CF80EF8E0FBAE081
:103600001B9F800D1124C6CF20E030E040E251E442
:10361000C701B6010E94FC39A20191010E944737FF
:103620006B017C0174CD3AE0632E712C70CD20E0EB
:1036300030E0A901C701B6010E94EF3987FDDEC065
:1036400020E030E841EE53E4C701B6010E9425387E
:1036500087FFD4C081E08093B606C092B206D092B4
:10366000B306E092B406F092B5068093B1066BE320
:1036700073E0C4010E94AA3D80917E06873459F40C
:1036800080917F06853411F00C94022569E473E083
:10369000C4010E94AA3D2D8D3E8D2830310511F0C8
:1036A0000C94062580917E06833411F00C940D2530
:1036B00080917F06873411F00C940D2560E573E04E
:1036C000C4010E94AA3D8091800689838091810671
:1036D0008A83809182068B83809183068C838D8D73
:1036E0009E8D0A9709F090C0809184068D83809109
:1036F00085068E83198E1A8E1B8E1C8E1D8A1E8A3D
:103700001F8A188EAE014B5E5F4FBE01675E7F4F12
:10371000CE0101960E94BD11C98CDA8CEB8CFC8C19
:1037200020E030E0A901C701B6010E94253867E515
:1037300073E087FD02C069E573E0C4010E949F3D0C
:1037400020E030E0A901C701B6010E94EF39181648
:1037500024F0F7FAF094F7F8F0948E010F5F1F4F02
:1037600026E040E0C701B6010E94AF34B801C401B1
:103770000E949F3D6BE175E0C4010E949F3DCD8892
:10378000DE88EF88F88C20E030E0A901C701B6019F
:103790000E94253867E573E087FD02C069E573E0A4
:1037A000C4010E949F3D20E030E048EC52E4C70194
:1037B000B6010E94253887FF05C064EA73E0C401A2
:1037C0000E949F3D20E030E0A901C701B6010E94A0
:1037D000EF39181624F0F7FAF094F7F8F0948E0108
:1037E0000F5F1F4F26E040E0C701B6010E94AF34D3
:1037F000B801C4010E949F3D0C940D2562E473E062
:1038000038CF712C612C38CF1D8274CF20E030E08E
:1038100040E251E4C601B5010E94FC3929A13AA158
:103820004BA15CA10E9447375B016C010C942325DE
:103830006E3209F44DC06D3209F44FC06053770BFE
:10384000072E000C880B990B0E94D93869A37AA324
:103850008BA39CA36114710401F1B301072C000C2C
:10386000880B990B0E94D9389B01AC0169A17AA100
:103870008BA19CA10E942F389B01AC01C201B10118
:103880000E9447371B012C01AAE0C301A89F300109
:10389000A99F700C11240C94232520E030E040E215
:1038A00051E4C201B1010E94FC3929A13AA14BA106
:1038B0005CA10E9447371B012C010C942325FF2497
:1038C000F394712C612C0C942325EF2C0C9423255C
:1038D0002AE0622E712C0C942325B1E0BDA30C9438
:1038E000232520E030E0A901C201B1010E94EF3997
:1038F00087FD56C020E030E044EB52E4C201B10144
:103900000E94253818160CF44BC020E030E0A901C5
:10391000C601B5010E94EF3987FD42C020E030E0CA
:1039200044E353E4C601B5010E9425381816C4F1DA
:10393000EDA1EE2321F057FA509457F85094EE2061
:1039400021F0D7FAD094D7F8D0946BE573E0C40196
:103950000E94AA3D8201710125E03CE247E952EC58
:1039600061E57FE883E292E40E943D296B017C01DE
:103970008E010F5F1F4F20E040E00E94AF34B8017E
:10398000C4010E949F3D81E08093B606C092B206BA
:10399000D092B306E092B406F092B5068093B106D9
:1039A0008D8D9E8D8D7F089709F010C180917E06C8
:1039B000873409F08BC080917F06843509F086C07A
:1039C000809180068983809181068A838091820616
:1039D0008B83809183068C832D8D3E8D2A3031051B
:1039E00009F04EC1809184068D83809185068E8377
:1039F000198E1A8E1B8E1C8E1D8A1E8A1F8A188E87
:103A0000AE014B5E5F4FBE01675E7F4FCE010196F8
:103A10000E94BD11298C3A8C4B8C5C8C20E030E0EC
:103A200044EB52ECC201B1010E94EF3987FD4EC058
:103A300020E030E044EB52E4C201B1010E9425389D
:103A400018160CF443C0AD88BE88CF88D88C20E00F
:103A500030E044E353ECC601B5010E94EF3987FD25
:103A600035C020E030E044E353E4C601B5010E94D4
:103A7000253818165CF162E673E0C4010E94AA3D85
:103A80008201710125E03CE247E952EC61E57FE803
:103A900083E292E40E943D296B017C018E010F5F5D
:103AA0001F4F20E040E00E94AF34B801C4010E94E3
:103AB0009F3D81E08093B606C092B206D092B306D5
:103AC000E092B406F092B5068093B10680917E062E
:103AD000823409F08CC180917F06873409F07BC065
:103AE000809180068983809181068A8380918206F5
:103AF0008B83809183068C834D8D5E8D4A3051057A
:103B000009F0C0C0809184068D83809185068E83E4
:103B1000198E1A8E1B8E1C8E1D8A1E8A1F8A188E65
:103B2000AE014B5E5F4FBE01675E7F4FCE010196D7
:103B30000E94BD11298C3A8C4B8C5C8C20E030E0CB
:103B400044EB52ECC201B1010E94EF3987FD3EC047
:103B500020E030E044EB52E4C201B1010E9425387C
:103B60001816A4F1AD88BE88CF88D88C20E030E04C
:103B700044E353ECC601B5010E94EF3987FD26C02E
:103B800020E030E044E353E4C601B5010E9425384B
:103B90001816E4F069E673E0C4010E94AA3D8201B0
:103BA000710125E03CE247E952EC61E57FE883E200
:103BB00092E40E943D298E010F5F1F4F20E040E0FC
:103BC0000E94AF34B801C4010E949F3D80917E06DF
:103BD000823409F00CC180917F06833409F007C15B
:103BE00000E816E0E12C1DA2F12CA12CB12C6501FE
:103BF00015012601C8018C579640AD8DBE8D8A17E0
:103C00009B070CF0A5C0F80161918F01603209F4A7
:103C100091C0FF2009F449C06E3209F492C06D32A0
:103C200009F48DC06053770B072E000C880B990B9D
:103C30000E94D93869A37AA38BA39CA36114710451
:103C400019F1B301072C000C880B990B0E94D9388D
:103C50009B01AC0169A17AA18BA19CA10E942F3884
:103C60009B01AC01C601B5010E9447375B016C01A5
:103C70004AE09301429F3001439F700C1124BACF58
:103C80001D82B6CE1D8244CF20E030E040E251E4F8
:103C9000C601B5010E94FC3929A13AA14BA15CA142
:103CA0000E9447375B016C01A5CF6E3209F449C011
:103CB0006D3209F44AC06053770B072E000C880B55
:103CC000990B0E94D93869A37AA38BA39CA3611492
:103CD0007104F9F0B301072C000C880B990B0E94BA
:103CE000D9389B01AC0169A17AA18BA19CA10E944A
:103CF0002F389B01AC01C201B1010E9447371B0163
:103D00002C01AAE0C301A89F3001A99F700C1124C7
:103D100071CF20E030E040E251E4C201B1010E94E5
:103D2000FC3929A13AA14BA15CA10E9447371B0194
:103D30002C0160CFFF24F394712C612C5BCFEF2C0E
:103D400059CF9AE0692E712C55CFB1E0BDA352CF67
:103D500020E030E0A901C201B1010E94EF3987FDE6
:103D600046C020E030E044EB52E4C201B1010E94C1
:103D700025381816E4F120E030E0A901C601B501AC
:103D80000E94EF3987FD33C020E030E044E353E484
:103D9000C601B5010E94253818164CF1EDA1EE239D
:103DA00021F057FA509457F85094EE2021F0D7FAAA
:103DB000D094D7F8D09460E773E0C4010E94AA3D84
:103DC0008201710125E03CE247E952EC61E57FE8C0
:103DD00083E292E40E943D298E010F5F1F4F20E095
:103DE00040E00E94AF34B801C4010E949F3D809121
:103DF0007E06833409F0ADC180917F06833411F0D3
:103E00000C94861300E816E0A12C19A2B12CC12C49
:103E1000D12C760116012701C8018C5796402D8DB3
:103E20003E8D821793070CF0A1C0D8016D918D01D2
:103E3000603209F48DC0BB2009F445C06E3209F42C
:103E40008EC06D3209F489C06053770B072E000CC9
:103E5000880B990B0E94D9386DA37EA38FA398A7D6
:103E600061147104F9F0B301072C000C880B990B55
:103E70000E94D9389B01AC016DA17EA18FA198A5AC
:103E80000E942F389B01AC01C701B6010E94473741
:103E90006B017C012AE0F3012E9F30012F9F700CF3
:103EA0001124BACF20E030E040E251E4C701B6016E
:103EB0000E94FC392DA13EA14FA158A50E94473771
:103EC0006B017C01A9CF6E3209F449C06D3209F44F
:103ED0004AC06053770B072E000C880B990B0E9489
:103EE000D9386DA37EA38FA398A761147104F9F04C
:103EF000B301072C000C880B990B0E94D9389B0149
:103F0000AC016DA17EA18FA198A50E942F389B01C5
:103F1000AC01C201B1010E9447371B012C018AE0AC
:103F2000A301849F3001859F700C112475CF20E080
:103F300030E040E251E4C201B1010E94FC392DA100
:103F40003EA14FA158A50E9447371B012C0164CF09
:103F5000BB24B394712C612C5FCFAB2C5DCF8AE076
:103F6000682E712C59CF91E099A356CF20E030E014
:103F7000A901C201B1010E94EF3987FF02C00C9470
:103F8000861320E030E044EB52E4C201B1010E940C
:103F90002538181614F40C94861320E030E0A9019B
:103FA000C701B6010E94EF3987FF02C00C94861347
:103FB00020E030E044E353E4C701B6010E94253815
:103FC000181614F40C948613A9A1AA2321F057FA09
:103FD000509457F85094AA2021F0F7FAF094F7F88B
:103FE000F0946BE573E0C4010E94AA3D20E030E04C
:103FF00044EB52E4C201B1010E9447372B013C015E
:1040000020E030E044E353E4C701B6010E944737A3
:104010006B017C0120E030E040EA51E40E942F383F
:104020000E94A1386DA37EA38FA398A78DA18F5B5B
:104030008093740620E030E040E251E4C301B20115
:104040000E942F380E94A13869A37AA38BA39CA356
:1040500089A18F5B8093750684E1EDA1FEA18E9FFF
:10406000B0018F9F700D1124072E000C880B990B47
:104070000E94D9389B01AC01C701B6010E944637A6
:1040800020E030E040E05FE30E94FC390E94A1386C
:10409000605D609376068AE029A13AA1829FB00113
:1040A000839F700D1124072E000C880B990B0E9422
:1040B000D9389B01AC01C301B2010E9446370E946E
:1040C000A138605D6093770620E030E040E05FE378
:1040D000C701B6010E94FC390E94A138660F771F04
:1040E000072E000C880B990B0E94D9389B01AC015C
:1040F000C701B6010E9446372BEA3AEA4AEA5DE375
:104100000E942F380E94A1386F5960937806C3012E
:10411000B2010E94A138072E000C880B990B0E9457
:10412000D9389B01AC01C301B2010E9446372BEA8A
:104130003AEA4AE25DE30E942F380E94A1386F59A3
:104140006093790610927A0664E776E0C4010E94D3
:104150009F3D4D8D5E8D4930510509F02AC18091FA
:104160007E06813411F00C94861380917F0687358A
:1041700011F00C948613F090800680ED8F0D8A303C
:1041800048F08F2D90E00E94973D8134910511F009
:104190000C9486130091810610ED100F1A3010F068
:1041A0000C9486138F2D90E00E94973D81349105E9
:1041B00099F5F12C173028F4E12FF0E0EC5EFD4F7B
:1041C000F080809182068053990B24E6289F80011D
:1041D000299F100D1124809183069AE0899F000D7C
:1041E000111D1124005E1140809184068053990BAB
:1041F000080F191F0F3F110519F010F00C948613CA
:1042000061E08F2D0E949F060115110561F460E0A9
:104210008F2D0E942C0632C000515AE0F59E000DF1
:104220001124F02ECECF0F3F110511F461E0F0CF35
:10423000EF2DF0E0E050FA4FE491E150E23108F068
:10424000B3C0F0E08827E85DFE4D8F4F0C94343CFE
:104250003A214221472151215B21D42165216D2141
:1042600075217F2189219321A221AC21D421B6215E
:10427000C021CA2184B5806884BD07BD67E773E0AB
:104280000C94DA1584B5806284BD08BDF7CF8091A7
:1042900080008068809380001093890000938800DC
:1042A000EDCF8091800080628093800010938B001E
:1042B00000938A00E3CF8091800088608093800023
:1042C00010938D0000938C00D9CF8091B00080684E
:1042D0008093B0000093B300D1CF8091B000806292
:1042E0008093B0000093B400C9CF809190008068A3
:1042F000809390001093990000939800BFCF809115
:10430000900080628093900010939B0000939A002D
:10431000B5CF8091900088608093900010939D00AD
:1043200000939C00ABCF8091A00080688093A00098
:104330008091A0008F7B8093A0001093A900009330
:10434000A8009CCF8091A00080628093A000109371
:10435000AB000093AA0092CF8091A0008860809368
:10436000A0001093AD000093AC0088CF8091200195
:1043700080688093200110932901009328017ECF4B
:104380008091200180628093200110932B01009383
:104390002A0174CF809120018860809320011093BE
:1043A0002D0100932C016ACF003811050CF03ECF8F
:1043B0002ECFAD8DBE8D1A9711F00C94861380917F
:1043C0007E06843411F00C94861380917F06843528
:1043D00011F00C948613F090800680ED8F0D8A30DA
:1043E00048F08F2D90E00E94973D8134910511F0A7
:1043F0000C9486130091810610ED100F1A3010F006
:104400000C9486138F2D90E00E94973D8134910586
:1044100009F03FC080E0173028F4E12FF0E0EC5EB7
:10442000FD4F8081409182064053550B68EE73E04A
:10443000469F9001479F300D569F300D112490915B
:104440008306E4E69E9F200D311D11249091840681
:10445000FAE09F9F200D311D1124205A3441E09035
:1044600085064E2D4053550B7A01E20EF31E50E1A6
:10447000E51657E2F50610F00C94861390910002B1
:10448000981771F09F3F09F4AEC06EE773E00C948B
:10449000DA1580EF800FBAE0FB9E800D1124C2CFA9
:1044A000EFEFF5E0149117FDF0CF61E00E949F0659
:1044B000112369F0712C612C60E072E18AE790E0D1
:1044C000A30197010E94153C123009F0E2C1670177
:1044D000F12CE12C60E072E18AE790E0A7019601FF
:1044E0000E94153C29013A0160E472E48FE090E0FB
:1044F000A70196010E94153CBA01A901415051093A
:1045000061097109123009F058C14F3F5105610529
:10451000710509F00CF4ACC160E970ED83E090E046
:10452000A70196010E94153CBA01A9014150510909
:104530006109710983E04F3F51056105710509F07B
:104540000CF497C168E478EE81E090E0A701960151
:104550000E94153CBA01A901415051096109710934
:1045600084E04F3F51056105710509F00CF481C1EC
:1045700064E274EF80E090E0A70196010E94153C90
:10458000BA01A901415051096109710985E04F3F04
:1045900051056105710509F008F46BC162E17AE724
:1045A00080E090E0A70196010E94153CBA01A901A4
:1045B000415051096109710986E04F3F510561057C
:1045C000710509F00CF455C1B301A2018AE075959B
:1045D0006795579547958A95D1F7415051096109DB
:1045E000710987E046C180930002EFEFF5E0149176
:1045F000912F1F3F09F449CF123009F473C058F4CA
:10460000112391F1113009F44BC097FD3ECF61E0C9
:104610000E949F064FCF143009F4ADC008F488C043
:10462000153099F7109220011092210190912101EB
:1046300098609093210190912101916090932101C4
:10464000282F30E0F901E754FA4FE491F0E0EE0F43
:10465000FF1FE156FA4F45915491F901E75AFA4F7D
:10466000E491E093540621CF14BC15BC94B592603C
:1046700094BD95B5916095BD282F30E0F901E754C0
:10468000FA4FE491F0E0EE0FFF1FE156FA4F45912B
:104690005491F901E75AFA4FE491E0935B0605CF94
:1046A0001092800010928100909181009860909308
:1046B000810090918100916090938100282F30E0DB
:1046C000F901E754FA4FE491F0E0EE0FFF1FE156D5
:1046D000FA4F45915491F901E75AFA4FE491E0936A
:1046E0005A06E3CE1092B0001092B1009091B00043
:1046F00092609093B0009091B10091609093B1005E
:10470000282F30E0F901E754FA4FE491F0E0EE0F82
:10471000FF1FE156FA4F459154915093590640932B
:104720005806F901E75AFA4FE491E0935706BDCED7
:104730001092900010929100909191009860909347
:10474000910090919100916090939100282F30E01A
:10475000F901E754FA4FE491F0E0EE0FFF1FE15644
:10476000FA4F45915491F901E75AFA4FE491E093D9
:10477000560613E09ACE1092A0001092A1009091DC
:10478000A10098609093A1009091A10091609093F6
:10479000A100282F30E0F901E754FA4FE491F0E04E
:1047A000EE0FFF1FE156FA4F45915491F901E75A78
:1047B000FA4FE491E093550678CE4F3F51056105DD
:1047C0007105E9F1E4F168E478EE81E090E0A70199
:1047D00096010E94153CBA01A90141505109610995
:1047E000710984E01111D3CE93E04F3F510561056B
:1047F000710541F13CF162E17AE780E090E0A701C8
:1048000096010E94153CBA01A90141505109610964
:10481000710994E04F3F51056105710599F094F0DD
:10482000B301A2019AE075956795579547959A95BA
:10483000D1F7415051096109710995E003C0111187
:1048400017C092E085B5887F892B85BD47BD8FEF66
:104850009FEFDC018093700690937106A09372061F
:10486000B093730680916E00826080936E000DCECF
:1048700082E09091B100987F892B8093B100123033
:1048800009F49FC00CF096C0112301F3113029F1F7
:10489000FCCDBA01A901415051096109710991E0AA
:1048A0004115510581E0680771057CF068E478EEF8
:1048B00081E090E0A30197010E94153CBA01A90193
:1048C000415051096109710993E01130D9F4809187
:1048D0008100887F892B80938100509389004093C9
:1048E00088008FEF9FEFDC0180936C0690936D063C
:1048F000A0936E06B0936F0680916F0082608093E4
:104900006F00C3CD1330D9F480919100887F892B3B
:104910008093910050939900409398008FEF9FEF00
:10492000DC018093640690936506A0936606B093BD
:10493000670680917100826080937100A6CD14306B
:10494000D9F48091A100887F892B8093A100509396
:10495000A9004093A8008FEF9FEFDC0180936006D1
:1049600090936106A0936206B093630680917200F3
:1049700082608093720089CD153009F080CF8091DC
:104980002101887F892B8093210150932901409335
:1049900028018FEF9FEFDC0180935C0690935D060A
:1049A000A0935E06B0935F0680917300826080934F
:1049B00073006BCD143059F20CF4ACCF153029F3E1
:1049C00064CD4093B3008FEF9FEFDC0180936806C6
:1049D00090936906A0936A06B0936B06809170006D
:1049E00082608093700051CDAD8DBE8D10E0139725
:1049F00014F00C94D21568E672E0C4010E94AA3D3E
:104A00000C94C115ED8DFE8D389769F04D8D5E8D3E
:104A10004A30510511F40C94521B80917E06873464
:104A200011F00C94D01C80917F06833411F00C940B
:104A3000D01C00E816E0E12C1DA2F12CA12CB12C19
:104A4000650115012601C8018C579640AD8DBE8DBC
:104A50008A179B0714F00C94711CF80161918F0167
:104A6000603211F40C945F1CFF2011F40C94181C9C
:104A70006E3211F40C94681C6D3211F40C94651CA8
:104A80006053770B072E000C880B990B0E94D938C6
:104A900069A37AA38BA39CA36114710411F40C94F1
:104AA000061CB301072C000C880B990B0E94D93807
:104AB0009B01AC0169A17AA18BA19CA10E942F3816
:104AC0009B01AC01C601B5010E9447375B016C0137
:104AD0004AE09301429F3001439F700C1124B3CFF1
:104AE0004F925F926F927F928F929F92AF92BF92FE
:104AF000CF92DF92EF92FF920F931F93CF93DF93AA
:104B000087EE98E09093E5088093E408E091F70839
:104B1000F091F80882E08083E091F308F091F408C6
:104B20001082E091F508F091F6088FEC80831092E6
:104B3000FF08E091FB08F091FC0886E08083E0919B
:104B4000F908F091FA08808180618083E091F9088A
:104B5000F091FA08808188608083E091F908F091F3
:104B6000FA08808180688083E091F908F091FA0862
:104B700080818F7D80831092B5051092B4051092CC
:104B8000B7051092B6050E94770786EB97E09093E1
:104B9000DF058093DE0587EB97E09093E305809334
:104BA000E20501EC16E0D0E0C0E0CE010E94303713
:104BB000D8018D938D012196C633D105B1F780912F
:104BC000C1068B3711F00E94061361E086E00E9457
:104BD0009F0661E087E00E949F0660E086E00E94F9
:104BE0002C0660E087E00E942C0660E086E30E94CD
:104BF0009F068DEF80933B0680933A0680E00E94EB
:104C0000630970909E09B1E0B71528F48091950969
:104C10008860809395097092980962E370E080E063
:104C200090E00E94120760919B0980E999E00E9440
:104C30003E0868EE73E080E090E00E94120760E3B7
:104C400080E999E00E94CB0ACBE4D6E4CE0101973B
:104C5000F1F760E380E999E00E94CB0A2197F1F730
:104C600060E380E999E00E94CB0A83E592E0019736
:104C7000F1F760E280E999E00E94CB0A6091950922
:104C8000606240E080E999E00E94E40A84E0809359
:104C9000960940E06CE080E999E00E94E40A40E077
:104CA00061E080E999E00E94E40ACBE3DFE1CE0114
:104CB0000197F1F782E08093970940E066E080E990
:104CC00099E00E94E40A40E062E080E999E00E94F5
:104CD000E40A2197F1F788E080939B0960E080E97E
:104CE00099E00E943E08C3E4D8E083EFE82E87E015
:104CF000F82E97E4C92E97E0D92E04E918E023EAAC
:104D0000822E27E0922E37EFA32E36E0B32E250118
:104D1000C4019801A601B701FE01A0E26A2E6192CA
:104D2000DB016D92BD01DA016D92AD01D9011D92D9
:104D30009D01DC011D92CD01D2011D922D01B8E033
:104D4000E339FB0761F740E061E080E999E00E9408
:104D5000E40A8BE39FE10197F1F790E28991F60174
:104D600081936F01D7019D937D01F80181918F019E
:104D7000D5018D935D01F40111924F01F8E0C33923
:104D8000DF0761F7C1E0C093A1070E9444076854A0
:104D9000744F8F4F9F4F609398077093990780933C
:104DA0009A0790939B07C093970784E0781224C0DA
:104DB00070E060E085E893E00E94FC0361E070E051
:104DC0008AE893E00E94FC0362E070E087EE92E0E4
:104DD0000E94FC03DF91CF911F910F91FF90EF9004
:104DE000DF90CF90BF90AF909F908F907F906F900B
:104DF0005F904F900C94FC0B7694C72DD0E0BE01D1
:104E00006150710985E893E00E94FC03BE018AE8C5
:104E100093E00E94FC03BE016F5F7F4FD7CF1F92CC
:104E20000F920FB60F9211240BB60F922F933F9350
:104E30004F935F936F937F938F939F93AF93BF93A2
:104E4000EF93FF938091680690916906A0916A069E
:104E5000B0916B06892B8A2B8B2BE1F19091570631
:104E6000E0915806F09159068081892780838091CE
:104E7000680690916906A0916A06B0916B061816B3
:104E800019061A061B069CF4809168069091690623
:104E9000A0916A06B0916B060197A109B1098093B0
:104EA000680690936906A0936A06B0936B06FF911B
:104EB000EF91BF91AF919F918F917F916F915F9192
:104EC0004F913F912F910F900BBE0F900FBE0F90FF
:104ED0001F901895809100020E945A06E8CF1F92F9
:104EE0000F920FB60F9211240BB60F922F933F9390
:104EF0004F935F936F937F938F939F93AF93BF93E2
:104F0000EF93FF9387EE98E00E94DC04FF91EF910E
:104F1000BF91AF919F918F917F916F915F914F91D1
:104F20003F912F910F900BBE0F900FBE0F901F90CF
:104F300018951F920F920FB60F9211240BB60F9275
:104F40002F938F939F93EF93FF93E091F708F09146
:104F5000F8088081E091FD08F091FE0882FD1DC0F7
:104F60009081809100098F5F8F73209101098217D2
:104F700041F0E0910009F0E0E951F74F958F8093FF
:104F80000009FF91EF919F918F912F910F900BBE90
:104F90000F900FBE0F901F9018958081F2CF1F9237
:104FA0000F920FB60F9211242F933F938F939F93DD
:104FB000AF93BF9380912D0690912E06A0912F065E
:104FC000B091300630912C0623E0230F2D3758F591
:104FD0000196A11DB11D20932C0680932D06909360
:104FE0002E06A0932F06B093300680913106909143
:104FF0003206A0913306B09134060196A11DB11D71
:105000008093310690933206A0933306B093340612
:10501000BF91AF919F918F913F912F910F900FBEB4
:105020000F901F90189526E8230F0296A11DB11D21
:10503000D2CF1F920F920FB60F9211240BB60F9280
:105040002F933F934F935F936F937F938F939F9390
:10505000AF93BF93EF93FF938091B900887F803621
:1050600009F44DC008F040C0883209F4A9C028F501
:10507000803109F49DC0C8F4882309F4FBC088304E
:1050800009F496C0FF91EF91BF91AF919F918F91DD
:105090007F916F915F914F913F912F910F900BBE38
:1050A0000F900FBE0F901F901895883109F488C09B
:1050B000803241F78093050614C0803409F49DC006
:1050C00040F48033B9F38833E9F68093050685EC24
:1050D000B0C0803509F485C0883509F496C088349D
:1050E00089F60E94B012CECF883909F48CC038F509
:1050F000883729F050F4883611F0803719F683E0AC
:10510000809306061092040657C0883809F47BC0C5
:10511000803919F0803809F0B5CF809104068032CB
:1051200008F071C0E091040681E08E0F80930406C0
:105130008091BB00F0E0EC51FA4F80833DC0803B92
:1051400039F0E0F4803A09F479C0883A09F09ACF4E
:1051500084E0809306061092E1051092E005E0914C
:10516000DE05F091DF0519958091E00581110FC0F2
:1051700081E08093E0051092BE0509C0803C09F4EF
:10518000A6CF883C09F4A3CF883B09F07BCFE09100
:10519000E10581E08E0F8093E105F0E0E254FA4FE3
:1051A00080818093BB009091E1058091E00529C04A
:1051B00080912B068093BB0085EC8093BC0062CF6E
:1051C00090912A0680912906981758F5E0912A06B1
:1051D00081E08E0F80932A06F0E0E75FF94F80812F
:1051E000E9CFE0912A0681E08E0F80932A06809114
:1051F000BB00F0E0E75FF94F808390912A06809131
:1052000029069817C8F285E8D8CFE0912A0681E0F0
:105210008E0F80932A068091BB00F0E0E75FF94F84
:1052200080838091080681115CCF81E0809307061E
:1052300084EA8093BC001092060624CF85EC80930C
:10524000BC001092060680910406803230F4E09192
:105250000406F0E0EC51FA4F10826091040670E011
:10526000E091E205F091E30584EE95E01995109246
:10527000040608CF1092050634CF4F925F926F92CA
:105280007F928F929F92AF92BF92CF92DF92EF92D6
:10529000FF920F931F93CF93DF93CDB7DEB7649741
:1052A0000FB6F894DEBF0FBECDBF29013A01E982E7
:1052B000FA820B831C8325E33AEF4EE85CE30E94FD
:1052C000FC396D837E838F83988725E33AEF4EE820
:1052D0005CE3C801B7010E94FC3969877A878B8734
:1052E0009C87A3019201C601B5010E94463725E3C0
:1052F0003AEF4EE85CE30E94FC392B013C010E942E
:10530000B93A6D877E878F87988B69857A858B857B
:105310009C850E942A3869837A838B839C836D8164
:105320007E818F8198850E942A38698B7A8B8B8B3E
:105330009C8B69857A858B859C850E94B93A4B0147
:105340005C016D817E818F8198850E94B93A6D8361
:105350007E838F839887C301B2010E942A382B0174
:105360003C01A501940169897A898B899C890E94F5
:10537000FC396B017C012D813E814F81588569810B
:105380007A818B819C810E94FC39A30192010E9449
:10539000FC399B01AC01C701B6010E9446376B0185
:1053A0007C0129813A814B815C816D857E858F8569
:1053B00098890E94FC39A70196010E94C63721EE08
:1053C0003EE245E652E40E94FC390E94A138CB013E
:1053D00088599E4F68E671E00E94DF3BBC01990F3F
:1053E000880B990B0E94D93864960FB6F894DEBFEB
:1053F0000FBECDBFDF91CF911F910F91FF90EF9026
:10540000DF90CF90BF90AF909F908F907F906F90E4
:105410005F904F900895E7EEF8E01382128288EED5
:1054200093E0A0E0B0E084839583A683B7832FE167
:1054300032E03183208325EC30E03587248724EC6B
:1054400030E03787268720EC30E0318B208B21EC51
:1054500030E0338B228B22EC30E0358B248B26EC32
:1054600030E0378B268B118E128E138E148EE4E86B
:10547000F9E01382128284839583A683B78381E344
:1054800092E091838083E0E9F9E01382128283E461
:1054900092E09183808387E2848380E1818782E048
:1054A0008287138684E190E09093A00980939F09FE
:1054B00084E080939E0988EE93E090939D09809309
:1054C0009C090895CF93DF93CDB7DEB7C059D109BA
:1054D0000FB6F894DEBF0FBECDBF789484B582605E
:1054E00084BD84B5816084BD85B5826085BD85B588
:1054F000816085BD80916E00816080936E00109206
:105500008100809181008260809381008091810080
:105510008160809381008091800081608093800011
:105520008091B10084608093B1008091B00081606F
:105530008093B0008091910082608093910080916F
:1055400091008160809391008091900081608093B0
:1055500090008091A10082608093A1008091A100C1
:1055600081608093A1008091A00081608093A00061
:1055700080912101826080932101809121018160CD
:10558000809321018091200181608093200180918E
:105590007A00846080937A0080917A0082608093A0
:1055A0007A0080917A00816080937A0080917A00FD
:1055B000806880937A001092C1000E9470259E013D
:1055C0002D5F3F4FCB57DF4F39832883C558D040DD
:1055D000AE014F5F5F4F1A0185E690E08C0F9D1F73
:1055E0000296C157DF4F99838883CF58D0401A82E3
:1055F000198282E6CB57DF4FA881B981C558D040C8
:105600001D928A95E9F78091E4089091E508DC0104
:10561000ED91FC910084F185E02D1995892B09F419
:105620006DC08091E4089091E508DC01ED91FC915A
:105630000284F385E02D1995182F809338060E9477
:1056400044078FE9810F8A3118F4105210933806FD
:10565000609138066A30A1F06D3091F08091360685
:1056600090913706FC01E458F94F608301969093BE
:105670003706809336066C3519F4B1E0B0933506E1
:1056800080913506882359F08091E4089091E508CF
:10569000DC01ED91FC910190F081E02D1995809154
:1056A00038068D3059F510917C061C3519F01F32E3
:1056B00009F031C2109235066BE472E08091E40883
:1056C0009091E5080E94F10FB1018091360690910A
:1056D00037060E944B130091E4081091E508B101D0
:1056E000C8010E94F10F6BE472E0C8010E94F10F43
:1056F000109237061092360610927C0680E00E94C7
:1057000063098091B106813069F48091B6068230D8
:1057100009F414C608F062C4882309F472C4813005
:1057200009F476C40E949F0C0E94440700913C0635
:1057300010913D0620913E0630913F06601B710B93
:10574000820B930B613C744D8140910590F08091E8
:10575000B006882371F088E08093B6061092B206F6
:105760001092B3061092B4061092B50641E0409331
:10577000B10680E00E94630980913906882349F1CF
:1057800080E00E940306019721F580E00E94030655
:105790000197F9F468EC70E080E090E00E94120755
:1057A00080E00E9403060197A1F480E00E940306B6
:1057B000019779F41092B6061092B2061092B306D1
:1057C0001092B4061092B50651E05093B1061092B3
:1057D0003906A7961FAE1EAEA7978EE1C157DF4FC1
:1057E000A881B981CF58D040E82F1D92EA95E9F7FA
:1057F0001A821982CB57DF4FA881B981C558D04092
:105800001D928A95E9F7E3EFF7E0A3EAB7E080E2BB
:1058100081931D9223E438E02E173F07C9F731E04A
:1058200030939C0768EB73E0CE018B599F4F0E9429
:10583000AA3D8091F206813009F430C610F0823022
:1058400069F46091B7067091B8068091B90690919D
:10585000BA06810120E041E00E94AF348091F20657
:105860008230B9F420E030E047E054E46091BD06B6
:105870007091BE068091BF069091C0060E94EF39DC
:1058800018163CF469E573E0CE018B599F4F0E94D6
:105890009F3DB101CE018B599F4F0E949F3D61EC0E
:1058A00073E0CE018B599F4F0E949F3D61E070E0F5
:1058B000CE018B599F4F0E941D1168EB73E0CE0102
:1058C0008B599F4F0E94AA3D8091F206813009F4C6
:1058D000EEC510F0823069F46091B7067091B80699
:1058E0008091B9069091BA06810120E041E00E94C2
:1058F000AF348091F2068230B9F420E030E047E026
:1059000054E46091BD067091BE068091BF069091EF
:10591000C0060E94EF3918163CF469E573E0CE0129
:105920008B599F4F0E949F3DB101CE018B599F4FD4
:105930000E949F3D61EC73E0CE018B599F4F0E9406
:105940009F3D70E060E0CE018B599F4F0E941D117A
:105950008091B006882309F45DC01091B1060E94C1
:105960004C09133009F0B5C56BEB74E0813011F0D0
:105970006AEB74E0CE018B599F4F0E94AA3D6BE108
:1059800075E0CE018B599F4F0E949F3D8091F2069A
:10599000813009F495C510F0823069F460914406B5
:1059A000709145068091460690914706810120E05E
:1059B00041E00E94AF348091F2068230B9F420E0D9
:1059C00030E047E054E46091BD067091BE068091DE
:1059D000BF069091C0060E94EF3918163CF469E5A5
:1059E00073E0CE018B599F4F0E949F3DB101CE01C4
:1059F0008B599F4F0E949F3D61EC73E0CE018B5904
:105A00009F4F0E949F3D70E060E0CE018B599F4FF9
:105A10000E941D110E9444070E94FC0B0E94440733
:105A2000009148061091490620914A0630914B0694
:105A3000AB01BC01401B510B620B730B20910102A7
:105A4000A8EEB3E02A9FC0012B9F900D1124092ED0
:105A5000000CAA0BBB0B481759076A077B0708F411
:105A6000E0C68091E608882309F4DBC683EC93E066
:105A70000E94F91087EE92E00E94F9108CEC93E0FE
:105A80000E94F9100E94440728EE33E040E050E005
:105A90000E94F33BCA01B9010E94D738810120E07E
:105AA00040E00E94AF348FEC93E00E94F910C101F6
:105AB0000E94F9108CEC93E00E94F91087ED93E0BE
:105AC0000E94F9108EED93E00E94F9108EEC93E0A5
:105AD0000E94051180EE93E00E94F910E091B0065B
