:100000000C947B040C94AC040C94AC040C94AC04E1
:100010000C94AC040C94AC040C94AC040C94AC04A0
:100020000C94AC040C94AC040C94AC040C94AC0490
:100030000C94AC040C94BF470C94AC040C94AC042A
:100040000C94AC040C94AC040C94AC040C94AC0470
:100050000C94AC040C94AC040C94AC040C94DF48E9
:100060000C94AC040C94A9480C947F480C94AC04F8
:100070000C94AC040C94AC040C94AC040C94AC0440
:100080000C94AC040C94AC040C94AC040C94AC0430
:100090000C94AC040C94AC040C94AC040C9429495E
:1000A0000C94AC040C94AC040C94AC040C94AC0410
:1000B0000C94AC040C94AC040C94AC040C94AC0400
:1000C0000C94AC040C94AC040C94AC040C9449480F
:1000D0000C941F480C94AC040C94AC040C94AC0429
:1000E0000C94AC04084AD73B3BCE016E84BCBFFDE8
:1000F000C12F3D6C74319ABD56833DDA3D00C77FF8
:1001000011BED9E4BB4C3E916BAAAABE0000008090
:100110003F05A84CCDB2D44EB93836A9020C50B91F
:10012000918688083CA6AAAA2ABE000000803F0744
:10013000634236B79BD8A71A39685618AEBAAB5582
:100140008C1D3CB7CC5763BD6DEDFD753EF6177247
:1001500031BF000000803F08000000BE9224491219
:100160003EABAAAA2ABECDCCCC4C3E00000080BE3D
:10017000ABAAAAAA3E00000000BF000000803F001A
:1001800000000000084178D3BB4387D1133D190E0E
:100190003CC3BD4282AD2B3E68EC8276BED98FE176
:1001A000A93E4C80EFFFBE01C4FF7F3F000000006E
:1001B00000000C9444280C948C1E0C94DF070C94C3
:1001C000C3410C94C3200C94550E0C9417310C941D
:1001D000D5410C94D62F0C9464060C9470300C947A
:1001E000CE070C9412120C94A1200C94F7130C94CB
:1001F000BF350C94251F0C94A8060C9459070C9439
:100200003C420C9471350C943D250C9428420C947E
:100210009F590C941A280C941E420C943D0D0C947A
:100220004A1F0C94BC060C94A8590C94CA060C9452
:10023000D8540C941F290C94E9070C94372F0C9474
:1002400091060C94530D0C948A590C9406320C941C
:100250006F2F0C94FB2C0C94C4070C9490590C94A5
:1002600028250C94B9300C94CD410C94E9290C94B8
:10027000842F0C94B9410C94AE590C94C9310C9450
:10028000F1410C948D590C94A5330C94D2070C9425
:1002900005080C94A2410C9422120C9409080C94A9
:1002A000FC200C94AB590C941A240C944D330C94F0
:1002B0009C590C940C230C94551F0C94AF410C9436
:1002C000401F0C94FF1E0C9475200C94952F0C94D9
:1002D00032420C941A1F0C94CA070C94D91E0C9429
:1002E000B40D0C9414420C94320E0C946D290C94A1
:1002F00020120C946E2D0C9458060C945A200C94D9
:10030000FB070C94F1070C943B300C94B8250C942B
:1003100099590C9431350C94420E0C94AC0D0C94FC
:10032000ED070C94FB410C943F2A0C94DE350C94A1
:10033000391F0C94F92D0C943C350C9425180C9411
:10034000F41E0C94D9070C94DD410C94A61D0C945A
:10035000E7410C94270D0C9481590C9425120C94B0
:10036000D6330C949D250C943F350C9404080C94C2
:10037000F3340C945E0D0C94142A0C9423270C94E3
:10038000CC260C94C40D0C94FB270C946D340C9467
:10039000750D0C945C0E0C940A420C94BE1E0C94C9
:1003A000F7070C9496590C94FF070C94890E0C9443
:1003B000FD220C94C41E0C945E280C94D92F0C942E
:1003C000A2590C94B00D0C9499060C94F0300C9436
:1003D000310E0C941B4B0C9487590C9416120C94F0
:1003E00084590C9444350C9493590C94AA410C9460
:1003F00043320C94DB2E0C945C060C9426120C9465
:10040000D2330C94BD2F0C94D6070C943D290C9438
:100410000C070C94330E0C94A5590C94E3070C9420
:10042000A91E00407A10F35A00A0724E180900105D
:10043000A5D4E80000E87648170000E40B54020059
:1004400000CA9A3B000000E1F50500008096980084
:10045000000040420F000000A086010000001027AD
:1004600000000000E803000000006400000000003D
:100470000A00000000000100000000002C76D8886F
:10048000DC674F0823DFC1DFAE59E1B1B796E5E382
:10049000E453C63AE651997696E8E6C28426EB899B
:1004A0008C9B62ED407C6FFCEFBC9C9F40F2BAA538
:1004B0006FA5F490055A2AF75C936B6CF9676DC1D0
:1004C0001BFCE0E40D47FEF520E6B500D0ED902ED4
:1004D0000300943577050080841E080000204E0A32
:1004E000000000C80C333333330F986E1283114170
:1004F000EF8D2114893BE65516CFFEE6DB18D1843B
:100500004B381BF77C1D901DA4BBE4242032847261
:100510005E228100C9F124ECA1E53D273F3E002089
:1005200043656E746572003F3E004D6F6465203414
:10053000353020646567726565004D6F64652033F2
:10054000363020646567726565003F3E003F3E00BF
:100550005370656564205831005370656564205898
:1005600032005370656564205833005370656564CC
:100570002058340057726F746520746F206D656D5C
:100580006F727900526F7461746520746F206675A4
:100590006C6C2043435720616E642073656E642049
:1005A0006B65797374726F6B652E2E2E00526F74AB
:1005B00061746520746F2066756C6C2043572061F0
:1005C0006E642073656E64206B65797374726F6BF3
:1005D000652E2E2E00000020002300260029002C6E
:1005E000002F003200000100000301060109016232
:1005F0002066726565005741524E494E473A204C7D
:100600006F77206D656D6F72793A200044495254BE
:1006100059004E4F545F0009434F4E4649475F0013
:1006200020204F66667365743A00204F5645524C41
:1006300041500020205261775F417A5F52616E67BE
:10064000653A002020526F746174696F6E5F436178
:10065000706162696C6974793A0020205374617228
:10066000743A000200000A0B02090C0D0E08070381
:100670000401000000000000000000000000000075
:10068000000000000000000000000000000000006A
:100690001211100000000000000000000000000027
:1006A00000000000000000000000417A696D7574D0
:1006B0006820446973706C6179204D6F64653A20DD
:1006C000526177204465677265657300417A696D90
:1006D00075746820446973706C6179204D6F64652E
:1006E0003A202B4F7665726C617000417A696D75A6
:1006F000746820446973706C6179204D6F64653A49
:10070000204E6F726D616C00436C65617265642090
:1007100063616C6962726174696F6E206F66667383
:100720006574730053657474696E677320736176C2
:10073000656420696E20454550524F4D2C207265EE
:1007400073657474696E6720756E697420696E20B4
:1007500035207365636F6E64732E2E2E00496E69AB
:100760007469616C697A656420656570726F6D2C5F
:1007700020726573657474696E6720756E69742084
:10078000696E2035207365636F6E64732E2E2E00A4
:100790004572726F722E0054696D657A6F6E6520B6
:1007A0006F66667365742073657420746F200045EE
:1007B00072726F722E2055736167653A205C4F59D3
:1007C0005959594D4D444448486D6D5B73735D00F4
:1007D0006973200073657420746F2000417A696D1D
:1007E00075746820726F746174696F6E20636170D4
:1007F0006162696C697479200069732000736574A3
:1008000020746F2000417A696D757468207374617B
:100810007274696E6720706F696E742000417A6926
:100820006D7574682063616C6962726174656420BF
:10083000746F200000002200250028002B002E00ED
:100840003100340002010000050108010B01000025
:100850002100240027002A002D0030003300010170
:100860000000040107010A010102102020080810FD
:100870002040102040800201020108040201010210
:1008800004081020408080402010080402018004E9
:100890000201804020100804020108040201010244
:1008A0000408102040800102040810204080050543
:1008B0000505070508080808020202020A0A0808D6
:1008C0000404040401010101010101010303030304
:1008D00003030303040707070C0C0C0C0C0C0C0C93
:1008E0000202020206060606060606060B0B0B0BA4
:1008F0000B0B0B0B1B4B11241FBECFEFD1E2DEBF46
:10090000CDBF00E00CBF16E0A0E0B2E0E0E3FEECFB
:1009100000E00BBF02C007900D92A63EB107D9F7C9
:100920002DE0A6EEB6E001C01D92AF3CB207E1F7A4
:1009300014E0CBE7D4E000E006C021970109802F46
:10094000FE010E94C862CA37D10780E00807A9F7F4
:100950000E949F4C0C9416670C940000FC01A08927
:10096000B18982E08C93A485B5851C92A685B78554
:100970008FEC8C93108EA489B58986E08C93A28924
:10098000B3898C9180618C93A289B3898C918860A2
:100990008C93A289B3898C9180688C930288F389A7
:1009A000E02D80818F7D80830895CF93DF93EC01CC
:1009B000A091140DB091150D8091130D8A9FF00137
:1009C0008B9FF00D11244A9F90014B9F300D5A9F31
:1009D000300D1124620F731F30E020E02E173F0707
:1009E000CCF4DE01A20FB31F9C91992389F0A901D9
:1009F000460F571F4E175F0744F4DA01A856B54F4C
:100A00009C93485B554FDA011C922F5F3F4FE6CF16
:100A10009F01FBCF81E08093410ADF91CF91089540
:100A2000CF93DF93AB012091140D3091150DB901D7
:100A300037FF02C06F5F7F4F75956795E091130D8B
:100A4000E29FD001E39FB00D1124F0E0E0E030E040
:100A500020E0EA17FB0764F4EC01CE0FDF1FC8812A
:100A6000CC2321F02F5F3F4F3196F3CFFD01FCCF18
:100A700037FF02C02F5F3F4F35952795621B730BE1
:100A8000DF91CF910C94D5048CBD9DBD08950F933B
:100A90001F93CF93DF93C0916C0DEDE6FDE0CD3257
:100AA00011F0ECE6FDE08F0120E030E0A901D80173
:100AB000DD918D0180ED8D0F8A3090F4AAE0B0E0D9
:100AC0000E94C75D2D2FDD0F330B440B550B260FF6
:100AD000371F481F591F2053310941095109E7CFDA
:100AE000A4E6B0E00E94C75DAB01BC01DF018191CB
:100AF00090ED980F9A30D0F38E3259F511968C9173
:100B0000119790ED980F9A3020F5082E000C990B54
:100B1000C0972AE0289F8001299F100D1124012EE3
:100B2000000C220B330B400F511F621F731F1296D4
:100B30008C9190ED980F9A3060F4082E000C990B70
:100B4000C097092E000CAA0BBB0B480F591F6A1F38
:100B50007B1FCD3239F470956095509541955F4F6C
:100B60006F4F7F4FCB01BA01DF91CF911F910F9152
:100B700008954F925F926F927F928F929F92AF9261
:100B8000BF92CF92DF92EF92FF921F93CF93DF93AA
:100B9000CCE6DDE0FE01C12CD12C7601119180ED77
:100BA000810F8A30A8F4AAE0B0E0A70196010E9464
:100BB000C75DC12E110FDD08EE08FF08C60ED71E57
:100BC000E81EF91E80E3C81AD108E108F108E6CF53
:100BD000C701B60124E630E040E050E00E94DA5D53
:100BE0009B01AC0160EA76E881E090E00E94A4629B
:100BF0004B015C019E01899190ED980F9A30D0F3E2
:100C00008E3221F5E901219680E1482E87E2582EA7
:100C1000612C712CA99180ED8A0F8A30B8F40A2ECC
:100C2000000CBB0BD097A30192010E94D25D860EEF
:100C3000971EA81EB91EC301B2012AE030E040E0B1
:100C400050E00E94DA5D29013A01E4CFC701B60104
:100C500024E630E040E050E00E94DA5D60E472E4B7
:100C60008FE090E00E94A4626B017C01C501B40199
:100C70006D5F7F4F8F4F9F4F26E030E040E050E0A8
:100C80000E94DA5DC701B601620F731F841F951FB2
:100C9000DF91CF911F91FF90EF90DF90CF90BF90A9
:100CA000AF909F908F907F906F905F904F9008953E
:100CB000FC01818D928D08950895DC01ED91FC91E8
:100CC0000190F081E02D1994AF92BF92CF92DF9204
:100CD000EF92FF920F931F93CF93DF936C017B01F1
:100CE0008B01040F151FEB015E01AE18BF08C01782
:100CF000D10759F06991D601ED91FC910190F081F5
:100D0000E02DC6011995892B79F7C501DF91CF91A7
:100D10001F910F91FF90EF90DF90CF90BF90AF9019
:100D2000089521E0FC018485883008F020E0822FBE
:100D30000895FC01538D448D252F30E0842F90E0E1
:100D4000821B930B541710F0CF96089501970895C6
:100D5000FC01918D828D981761F0A28DAE0FBF2F8F
:100D6000B11D5D968C91928D9F5F9F73928F90E0E5
:100D700008958FEF9FEF0895FC01918D828D981754
:100D800031F0828DE80FF11D858D90E008958FEF91
:100D90009FEF0895FC01918D228D892F90E0805C5A
:100DA0009F4F821B91098F739927089589E89BE0D3
:100DB0000E94CA0621E0892B09F420E0822F0895C1
:100DC00086E29CE00E94CA0621E0892B09F420E01B
:100DD000822F0895FC01A48DA80FB92FB11DA35A2D
:100DE000BF4F2C91848D90E001968F739927848F4B
:100DF000A689B7892C93A089B1898C91837080646E
:100E00008C93938D848D981306C00288F389E02D0E
:100E100080818F7D80830895EF92FF920F931F93BF
:100E2000CF93DF93EC0181E0888F9B8D8C8D98139D
:100E30001AC0E889F989808185FF15C09FB7F894A9
:100E4000EE89FF896083E889F989808183708064F5
:100E500080839FBF81E090E0DF91CF911F910F9140
:100E6000FF90EF900895F62E0B8D10E00F5F1F4F4F
:100E70000F731127E02E8C8D8E110CC00FB607FC5E
:100E8000FACFE889F989808185FFF5CFCE010E94EC
:100E9000EA06F1CFEB8DEC0FFD2FF11DE35AFF4F6A
:100EA000F0829FB7F8940B8FEA89FB89808180627A
:100EB000CFCFCF93DF93EC01888D8823B9F0AA8937
:100EC000BB89E889F9898C9185FD03C0808186FD05
:100ED0000DC00FB607FCF7CF8C9185FFF2CF808154
:100EE00085FFEDCFCE010E94EA06E9CFDF91CF91D9
:100EF000089580E090E0892B29F00E94E00681119E
:100F00000E94000080E090E0892B49F080E090E0B2
:100F1000892B29F00E94000081110E94000080E0CE
:100F200090E0892B29F00E94D60681110E940000D2
:100F300080E090E0892B49F080E090E0892B29F057
:100F40000E94000081110C940000089581508231AC
:100F500008F05AC0E82FF0E08827EE54F84F8F4F82
:100F60000C94C862D207D607C407CA07CE07040884
:100F7000D907DF07E307E907ED07F107F707FB07E5
:100F80000408FF0705080908809180008F77809387
:100F900080000895809180008F7DF9CF809180003E
:100FA000877FF5CF84B58F7784BD089584B58F7D15
:100FB000FBCF8091B0008F778093B000089580912F
:100FC000B0008F7DF9CF809190008F778093900053
:100FD0000895809190008F7DF9CF80919000877F58
:100FE000F5CF8091A0008F778093A0000895809125
:100FF000A0008F7DF9CF8091A000877FF5CF8091F1
:1010000020018F77809320010895809120018F7DAA
:10101000F9CF80912001877FF5CFCF93DF93282FE1
:1010200030E0F901EC59F94F8491F901E859F74F93
:10103000D491F901E255F74FC491CC23A1F081116D
:101040000E94A607EC2FF0E0EE0FFF1FEB52FA4FC5
:10105000A591B491EC91ED2381E090E009F480E05A
:10106000DF91CF91089580E090E0FACF1F93CF9366
:10107000DF93282F30E0F901EC59F94F8491F90101
:10108000E859F74FD491F901E255F74FC491CC23B9
:10109000A9F0162F81110E94A607EC2FF0E0EE0FA9
:1010A000FF1FEC5CF74FA591B4918FB7F894EC91CA
:1010B000111108C0D095DE23DC938FBFDF91CF9153
:1010C0001F910895DE2BF8CF9091020289130DC075
:1010D000E3E6F6E0E4919FEF90930202E230E1F064
:1010E00038F4EE2381F0E13089F060E00C943608AA
:1010F000E43049F110F1E530C1F7909173009D7F24
:1011000090937300F2CF10926E00EFCF90916F002A
:101110009D7F90936F00E9CF909170009D7F909399
:10112000700091E09093B0009091B100987F94602E
:101130009093B1001092B300D8CF909171009D7F31
:1011400090937100D2CF909172009D7F9093720026
:10115000CCCFCF93DF9390E0FC01E859F74F249177
:101160008255974FFC0184918823D1F090E0880F3D
:10117000991FFC01E25BF74FA591B491FC01EC5C77
:10118000F74FC591D49161110EC09FB7F8948C911F
:10119000E22FE0958E238C932881E223E8839FBF82
:1011A000DF91CF9108958FB7F894EC91E22BEC93F7
:1011B0008FBFF6CF863308F0865320917B00982F9F
:1011C0009870277F922B90937B0087708064809328
:1011D0007C0080917A00806480937A0080917A000C
:1011E00086FDFCCF809178009091790008953FB7FB
:1011F000F8948091160890911708A0911808B09162
:10120000190826B5A89B05C02F3F19F00196A11D0E
:10121000B11D3FBFBA2FA92F982F8827BC01CD0140
:10122000620F711D811D911D42E0660F771F881F9F
:10123000991F4A95D1F708958F929F92AF92BF92CE
:10124000CF92DF92EF92FF924B015C010E94F70870
:101250006B017C010E94F7086C197D098E099F09BA
:10126000683E734081059105A8F321E0821A910838
:10127000A108B10888EEC80E83E0D81EE11CF11C5D
:1012800081149104A104B10429F7FF90EF90DF903D
:10129000CF90BF90AF909F908F9008952FB7F89404
:1012A00060911208709113088091140890911508AC
:1012B0002FBF08956093060870930708809308086D
:1012C00090930908645D7E4F8F4F9F4F6093020893
:1012D00070930308809304089093050882E090E0DF
:1012E00090930108809300080E944E096093FC07C8
:1012F0007093FD078093FE079093FF0708952F9248
:101300003F924F925F926F927F928F929F92AF9295
:10131000BF92CF92DF92EF92FF920F931F93CF93E2
:10132000DF9300D000D0CDB7DEB789839B836A837B
:101330007C835E834D83F90124E6E216F1040CF40C
:1013400066C032EBE31A37E0F30AE092100800932C
:101350000F08E0930E08A981A0930C08BA81B093FE
:101360000B082D8120930A08AE2DB0E020E833E36E
:1013700041EE51E00E94C75D2B013C0122EB37E0BA
:10138000FF2444E6A42EB12C50E9C52EDD24D394CD
:10139000C901825B97408E159F05ECF13EE4E31A8C
:1013A00038EFF30AC70164E670E00E94B4621C01E2
:1013B000C70160E971E00E94B4624C0184E5A82E87
:1013C00082E0B82ECC24C394D12C83E0E822FF2401
:1013D000C016D1060CF049C0B2E0CB16D104B1F56D
:1013E000E114F10499F52114310419F481149104E4
:1013F00069F520E8420E2BE3521E26E2621E711CA4
:10140000BFEFCB1ADB0A2FEFA21AB20AE1CF8EE1AF
:10141000E80EF11C9ACFC90183709927892B99F4A2
:10142000C901B5010E94B462892B31F4C901B6012A
:101430000E94B462892B39F4A0E84A0EA1E55A1E35
:10144000A1E06A1E711C2F5F3F4FA2CFD5018C9186
:10145000A82FB0E020E831E541E050E00E94C75DF0
:10146000460E571E681E791ECBCF2CE330E0AA81B2
:10147000BC810E94D062AD81BE816D01BB0FEE08C0
:10148000FF08C60ED71EE81EF91E20E13EE0A98126
:10149000BB810E94D062C60ED71EE81EF91EDF0176
:1014A000119720E831E541E050E00E94D25D6C0DDB
:1014B0007D1D8E1D9F1D640D751D861D971D269615
:1014C0000FB6F894DEBF0FBECDBFDF91CF911F9155
:1014D0000F91FF90EF90DF90CF90BF90AF909F90D3
:1014E0008F907F906F905F904F903F902F900C94D3
:1014F0005A09CF92DF92EF92FF920F931F930E94AF
:101500004E098B019C01C090FC07D090FD07E09034
:10151000FE07F090FF076091060870910708809120
:101520000808909109080C191D092E093F09083E69
:10153000134021053105E0F0DC01CB010196A11D2E
:10154000B11D8093060890930708A0930808B093F4
:101550000908B701A60148515C4F6F4F7F4F409378
:10156000FC075093FD076093FE077093FF07C7CFFA
:101570001F910F91FF90EF90DF90CF9008954F92C1
:101580005F926F927F928F929F92AF92BF92CF9213
:10159000DF92EF92FF920F931F93CF93DF934B0154
:1015A0005C018091F8079091F907A091FA07B0913A
:1015B000FB0788159905AA05BB0509F4C6C08CE38D
:1015C000C82ED12CE12CF12CC501A70196010E9457
:1015D000DA5D60930A08CA01B901A70196010E9469
:1015E000DA5D60930B08C501B40120E13EE040E004
:1015F00050E00E94DA5DCA01B90128E130E040E024
:1016000050E00E94DA5D60930C08C501B40120E847
:1016100031E541E050E00E94DA5D69017A01CA01DA
:10162000B9016C5F7F4F8F4F9F4F27E030E040E064
:1016300050E00E94DA5D6F5F60930D08412C512CE1
:10164000320140E004E610E0C0E9D1E0242F30E0B0
:101650002E54384FF901E370FF273097F9F4C90190
:10166000B8010E94B462892B31F4C901BE010E9405
:10167000B462892B99F48EE691E0A0E0B0E0480EC8
:10168000591E6A1E7B1ED301C201AA27BB27C8169A
:10169000D906EA06FB0638F04F5FD8CF8DE691E019
:1016A000A0E0B0E0ECCF40931008C90164E670E020
:1016B0000E94B462EC01C90160E971E00E94B46269
:1016C000309721F42097D9F40097C9F04DE651E006
:1016D00060E070E0441A550A660A770AC418D50813
:1016E000E608F708A4E5B2E020E0213069F430977D
:1016F000E9F5209711F40097C9F54DE106C04EE6D3
:1017000051E060E070E0E6CF4C9150E070E060E0C6
:1017100031E0320FC416D506E606F70640F0C41ACB
:10172000D50AE60AF70A1196232F3C30F1F62F5F0F
:1017300020930F08C394C0920E088092F8079092ED
:10174000F907A092FA07B092FB07DF91CF911F91A2
:101750000F91FF90EF90DF90CF90BF90AF909F9050
:101760008F907F906F905F904F9008954CE1CDCF18
:101770000E94790A0E94BF0A80910B0890E00895A8
:101780000E94790A0E94BF0A80910C0890E0089597
:10179000FC0120812EBD9B012150310941F0518176
:1017A0000DB407FEFDCF4EB55EBD4193F5CF615040
:1017B0007109860F971F0DB407FEFDCF2EB5FC01F2
:1017C00020830895E0919609F09197098081909186
:1017D0009509892B80830895E0919609F0919709E6
:1017E00090818091950980958923808308958EBD8D
:1017F00000000DB407FEFDCF8EB50895AF92BF92E5
:10180000CF92DF92EF92FF920F931F93CF93DF93CC
:1018100000D000D01F921F92CDB7DEB78C017B01A4
:101820006A01809199098333E1F45801A40EB51E31
:10183000A016B10609F46FC00E94EC0B80EF0E9465
:10184000F70B812F0E94F70B802F0E94F70B0F5F81
:101850001F4FF70181917F010E94F70B0E94E20B5D
:10186000E7CF5B01A40EB51E8433C1F40E94EC0BDC
:1018700019830A838D2D80688B83CC8264E070E0AD
:10188000CE0101960E94C80BAE14BF0409F441C0FA
:10189000F70181917F010E94F70BF6CF0E94EC0BBC
:1018A0000F3F110509F028F419820A8384E08B8325
:1018B0000CC017FD17C019820A8333E016950795EF
:1018C0003A95E1F7007E0C600B8386E0C816D104E0
:1018D000A0F5F701DE011496EA15FB0599F0819158
:1018E0008D93FACFC80126E0969587952A95E1F762
:1018F000807E19830A830115104C10F48461D7CFC0
:101900008C61D5CFB6016D5F7F4FCE0101960E94ED
:10191000C80B0E94E20BC60128960FB6F894DEBFF2
:101920000FBECDBFDF91CF911F910F91FF90EF9030
:10193000DF90CF90BF90AF90089563E070E0CE014C
:1019400001960E94C80BF70181917F010E94F70B5D
:10195000AE14BF04C1F7DDCFCF93DF931F92CDB795
:10196000DEB7898341E050E0BE016F5F7F4F90E0BA
:1019700080E00E94FE0B0F90DF91CF91089590E0E0
:1019800020919909233339F40C96982F990F990FC8
:10199000990F80E008954896F8CFDA01E0919A090E
:1019A000F0E0FE2FEE27E60FF71F90E0982F882734
:1019B000A901BD018E0F9F1F0C94FE0BCF93DF93E7
:1019C0001F921F92CDB7DEB779836A8322E030E0A1
:1019D000AE014F5F5F4F60E170E00E94CD0C0F9051
:1019E0000F90DF91CF910895CF93DF931F921F92B5
:1019F000CDB7DEB779836A8322E030E0AE014F5F76
:101A00005F4F64E070E00E94CD0C0F900F90DF916B
:101A1000CF910895CF93DF931F92CDB7DEB720917A
:101A20009A0930E0322F2227260F371F90E0982F97
:101A30008827498341E050E0BE016F5F7F4F820FEE
:101A4000931F0E94FE0B0F90DF91CF910895CF93CB
:101A5000DF931F92CDB7DEB76983DC01ED91FC9176
:101A60000280F381E02D41E050E0BE016F5F7F4FC7
:101A700019950F90DF91CF910895CF93DF931F9227
:101A8000CDB7DEB76983DC01ED91FC910280F38173
:101A9000E02D41E050E0BE016F5F7F4F19950F9040
:101AA000DF91CF910895FC019485FB018485981303
:101AB00003C081E0983008F080E00895CF93DF9371
:101AC0001F92CDB7DEB76983DC01ED91FC910280F6
:101AD000F381E02D41E050E0BE016F5F7F4F19952B
:101AE0000F90DF91CF9108950895FF920F931F9368
:101AF000CF93DF93EB01FC01178A168A2A8121110B
:101B000009C02B81211106C02C81211103C02D8118
:101B1000222301F141155105E9F08A01FC01F08C05
:101B200080E591E00E944405AE014E5F5F4F24E0E6
:101B300030E06CE070E08F2D0E94CD0CB8018F2D4D
:101B40000E94DE0C81E090E0DF91CF911F910F9118
:101B5000FF90089580E0F7CFFC0184859585089576
:101B6000FC0184899589089529EC32E0FC013183D8
:101B70002083FB014089518962897389FC0142837A
:101B80005383648375830895DC01ED91FC91048C8B
:101B9000F58DE02D19942091AC07260F3327331FC4
:101BA00021323105ECF42091D207FC0190E080E075
:101BB000243069F082E00895A091AC072191AC0136
:101BC0004657584FA40FB52FB11D2C930196861779
:101BD00098F38091AC07680F6093AC0780E008959C
:101BE00081E008951092D20781E08093D40710928B
:101BF000D30761E084E10E94360861E085E10E943C
:101C00003608E9EBF0E080818E7F808380818D7FD4
:101C1000808388E48093B80085E48093BC000895B5
:101C2000CF93DF9391E0909389078823B9F0C09117
:101C3000B800D091BA008091BC008A7B8093BC0030
:101C400060E084E10E94360860E085E10E94360889
:101C50000E94F20DD093BA00C093B800DF91CF91EB
:101C6000089508950895E091810780918007E8170D
:101C700030F4F0E0E05AF84F808190E008958FEF63
:101C80009FEF089590918107809180072FEF3FEF9C
:101C9000981748F4E92FF0E0E05AF84F208130E03F
:101CA0009F5F90938107C90108958091800790916B
:101CB0008107891B990B0895CF92DF92EF92FF92D3
:101CC0000F931F93CF93DF937C01CB018A01209167
:101CD0005F07222389F0EB016B01C40ED51ECC15E2
:101CE000DD0569F06991D701ED91FC910190F081DA
:101CF000E02DC7011995F3CF642F0E94CB0DC801C9
:101D0000DF91CF911F910F91FF90EF90DF90CF90D7
:101D10000895CF93DF931F92CDB7DEB769832091EB
:101D20005F072223F9F020918207203258F021E04A
:101D300030E0FC013383228390E080E00F90DF915C
:101D4000CF91089580918307E82FF0E0E15CF84F90
:101D5000998190838F5F809383078093820781E0CE
:101D600090E0ECCF61E0CE0101960E94CB0DF7CF61
:101D7000CF92DF92EF92FF920F931F93CF93DF9357
:101D8000FC01C48121E020935F07C0933E071092BD
:101D90008307109282078385682B89EF9CE00E945D
:101DA000890ED0918207D13208F092C00E94F708C4
:101DB0006B017C018091D207811165C082E0809324
:101DC000D20781E08093D4078FEF8093D1071092E0
:101DD000F607D093F507AFE3B7E0E5EDF7E080E075
:101DE000D81385C01092F7078091F707CC0FC82B46
:101DF000C093F7078091D307813009F07CC010921F
:101E0000D3070E94F7086B017C018091F70780934C
:101E1000BB008091850790918607A0918707B091BC
:101E20008807892B8A2B8B2B99F00E94F708009149
:101E300085071091860720918707309188076C19D4
:101E40007D098E099F090617170728073907E0F152
:101E50008091BC0083FDD9CF85EC8093BC000E94AB
:101E6000F7086B017C018091D207823009F445C0EC
:101E70008091D1078F3F61F18091D107803241F18C
:101E80008091D10725C08091850790918607A09108
:101E90008707B0918807892B8A2B8B2B09F48ACF6F
:101EA0000E94F70800918507109186072091870707
:101EB000309188076C197D098E099F09061717074D
:101EC0002807390708F076CF809184070E94100E0A
:101ED000109283071092820710925F07DF91CF91D3
:101EE0001F910F91FF90EF90DF90CF9008959D91FB
:101EF00091938F5F75CF85EEB0CF809185079091DC
:101F00008607A0918707B0918807892B8A2B8B2B96
:101F100009F4A9CF0E94F708009185071091860760
:101F200020918707309188076C197D098E099F09D8
:101F3000061717072807390708F095CFC5CFCF93A5
:101F4000DF93EC01FE016491662389F0809194098E
:101F500080FF0BC08091920990919309DC01ED9173
:101F6000FC910190F081E02D19952196EBCFDF9146
:101F7000CF91089560E086E00E94360861E087E036
:101F80000C9436084F925F926F927F928F929F923D
:101F9000AF92BF92CF92DF92EF92FF92CF93DF93F7
:101FA00000D01F92CDB7DEB749015A0120E030E0E2
:101FB00044EB52E40E940C5E6B017C0120E030E0B7
:101FC00044E353E4C501B4010E940C5E4B015C0183
:101FD00020E030E040EA51E40E94F45E0E94665F37
:101FE0002B0181E4840DE6EFF6E0808320E030E011
:101FF00040E251E4C701B6010E94F45E0E94665FB0
:1020000069837A838B839C8389818F5B8093F706B6
:1020100084E1849DB001859D700D1124072E000C74
:10202000880B990B0E949E5F9B01AC01C501B40116
:102030000E940B5E20E030E040E05FE30E94C16060
:102040000E94665F605D6093F8068AE029813A81AC
:10205000829FB001839F700D1124072E000C880B06
:10206000990B0E949E5F9B01AC01C701B6010E94C3
:102070000B5E0E94665F605D6093F90620E030E0D1
:1020800040E05FE3C501B4010E94C1600E94665F49
:10209000660F771F072E000C880B990B0E949E5F1E
:1020A0009B01AC01C501B4010E940B5E2BEA3AEA28
:1020B0004AEA5DE30E94F45E0E94665F6F59609396
:1020C000FA06C701B6010E94665F072E000C880B56
:1020D000990B0E949E5F9B01AC01C701B6010E9453
:1020E0000B5E2BEA3AEA4AE25DE30E94F45E0E944C
:1020F000665F6F596093FB061092FC0686EF96E0D0
:102100000F900F900F900F90DF91CF91FF90EF9075
:10211000DF90CF90BF90AF909F908F907F906F9007
:102120005F904F90089580914B09982F9D7F91303B
:1021300069F0853059F08B3049F0982F9B7F9230B1
:1021400039F0877F843021F080E0089581E00895A0
:1021500082E008954F925F926F927F928F929F924A
:10216000AF92BF92CF92DF92EF92FF92CF93DF9325
:10217000C82F0E944E09C090E606D090E706E09076
:10218000E806F090E9066C197D098E099F0965360D
:1021900071058105910518F4CC2309F4CDC086E3BF
:1021A0000E94DA08EC019093490980934809C09095
:1021B0007F09D09080090D2C000CEE08FF08C701A4
:1021C000B6010E949E5F4B015C0160915F097091B6
:1021D0006009072E000C880B990B0E949E5F2B0153
:1021E0003C016091810970918209809183099091ED
:1021F00084096C0D7D1D8E1D9F1D0E949E5FA50193
:1022000094010E940B5E6B017C01BE01DD0F880B07
:10221000990B0E949E5FA30192010E940B5E9B019D
:10222000AC01C701B6010E94C1606B017C016091E5
:10223000610970916209072E000C880B990B0E94AE
:102240009E5FA30192010E940B5E9B01AC01C7013E
:10225000B6010E94F45EA50194010E940C5E4B0140
:102260005C018092580990925909A0925A09B09243
:102270005B09C0907709D0907809E0907909F090D7
:102280007A0920E030E0A901C701B6010E94EA5EA8
:1022900087FF12C0A7019601C701B6010E940C5E1C
:1022A000A50194010E940C5E60935809709359092E
:1022B00080935A0990935B09C0905809D0905909AE
:1022C000E0905A09F0905B0920E030E044EB53E4E1
:1022D000C701B6010E94B46087FD3DC020E030E038
:1022E00044EB53E4C701B6010E94F45E0E94665FAE
:1022F000072E000C880B990B0E949E5F20E030E0B7
:1023000044EB53E40E94C1609B01AC01C701B601DC
:102310000E940B5E60935209709353098093540995
:10232000909355090E944E096093E6067093E70664
:102330008093E8069093E906DF91CF91FF90EF90AC
:10234000DF90CF90BF90AF909F908F907F906F90D5
:102350005F904F90089520E030E0A901C701B601D9
:102360000E94EA5E87FF09C020E030E044EB53E4BE
:10237000C701B6010E940C5ECDCFC0925209D09227
:102380005309E0925409F0925509CCCF68EC70E003
:1023900080E090E00E941C0980919209909193093D
:1023A000DC01ED91FC910084F185E02D1995892BDC
:1023B00071F08091920990919309DC01ED91FC916B
:1023C0000284F385E02D199580935208E5CF089596
:1023D0008091920990919309DC01ED91FC91008428
:1023E000F185E02D1995892B99F3809192099091AF
:1023F0009309DC01ED91FC910084F185E02D1995A4
:102400001816190674F48091920990919309DC01D1
:10241000ED91FC910284F385E02D1995809352088B
:10242000E4CF0895FC01768765870895DC01ED917E
:10243000FC91068CF78DE02D199591E08927089580
:10244000862F089581E086270895089590E080E022
:1024500008950F931F93CF938C01C62F0E94B80E3F
:102460006C2F6460C8010E94B80E6C2F6B7FC8018E
:102470000E94B80E83EC90E00197F1F7CF911F9185
:102480000F9108950F931F93CF93DF938C01D62F55
:10249000C42F607F642B0E94291280E1D89FB00175
:1024A00011246C2BC801DF91CF911F910F910C94D7
:1024B0002912CF93DF9300D000D01F921F92CDB787
:1024C000DEB798E0ECE1F2E0DE01119601900D92AA
:1024D0009A95E1F790910D0D961710F46FEF690F33
:1024E000262F30E0220F331F41E050E04C0F5D1FDC
:1024F000240F351FF9016081680F606840E085E0B6
:102500009DE028960FB6F894DEBF0FBECDBFDF91D9
:10251000CF910C944212AF92BF92CF92DF92EF9282
:10252000FF920F931F93CF93DF9360910B0D6D7FFD
:1025300060930B0D686040E085E09DE00E944212D0
:1025400060E080E00E94591288EEC82E8AE0D82E02
:1025500098E4E92E9AE0F92E09E31BE0C8E9DAE0F5
:1025600090E09E0128593A406091140D7091150D2C
:102570008091130D869FA001879F500D1124241771
:1025800035070CF047C0F601A080B880AB1431F1DC
:10259000911105C0C9010E94B4620E945912F7014D
:1025A000808180FF04C08091380B60E281116B2D27
:1025B00085E09DE00E945D068881F6018083F70139
:1025C0008081F801808391E02196FFEFCF1ADF0A26
:1025D0008FEFE81AF80A0F5F1F4FC3CFB090380B88
:1025E0008091470A8B15A1F0F801808180FFECCF24
:1025F000911105C0C9010E94B4620E9459126A2D4E
:10260000B11001C060E285E09DE00E945D06DBCF75
:1026100090E0DACF8091380B8093470ADF91CF9119
:102620001F910F91FF90EF90DF90CF90BF90AF90F0
:1026300008950F931F93CF93DF9360910B0D6D7FE0
:1026400060930B0D686040E085E09DE00E944212BF
:1026500060E080E00E945912C8EEDAE009E31BE076
:10266000C80189539B406091140D7091150D4091E4
:10267000130D469F9001479F300D11248217930739
:10268000A4F40E94B4620E945912F80181918F0152
:1026900080FF04C08091380B60E28111688185E081
:1026A0009DE00E945D062196DBCFDF91CF911F91C7
:1026B0000F9108950F931F93CF93DF938091460A54
:1026C000882369F10E944E0900913D0A10913E0A4B
:1026D00020913F0A3091400A6017710782079307E3
:1026E00008F44CC0ECEEF9E088E99AE0CCE9D9E0D6
:1026F00048E45AE02191DC012D93CD012991DA01C2
:102700002D93AD01BAE0EC33FB07A1F70E948B12C9
:102710001092460ADF91CF911F910F9108958091F9
:10272000410A882359F10E944E090091420A1091F2
:10273000430A2091440A3091450AAB01BC01401B79
:10274000510B620B730B8091110D9091120D092E9C
:10275000000CAA0BBB0B481759076A077B0770F0E0
:102760000E948B120E944E096093420A7093430AA2
:102770008093440A9093450A1092410A80913C0A42
:10278000882339F00E948B1210923C0A1092410A61
:10279000C1CF0E944E0900911202109113022091A4
:1027A000140230911502601771078207930708F42D
:1027B000B1CF8091380B8823B1F01092380B0E9472
:1027C0004E096C507E4F8F4F9F4F60931202709353
:1027D00013028093140290931502DF91CF911F9101
:1027E0000F910C94191381E08093380BE8CF41E0EE
:1027F0000E94421281E090E008954F925F926F92A2
:102800007F928F929F92AF92BF92CF92DF92EF9280
:10281000FF92CF9380914B098F3079F480915508C6
:102820008093540861E086E00E94360860E087E00B
:102830000E94360883E080934B0980914B098031D8
:1028400049F480915508809354080E94BA0F84E09F
:1028500080934B0980914B09873009F5C1E0C09303
:10286000540861E086E00E94360860E087E00E943C
:1028700036080E944E096093F2067093F306809327
:10288000F4069093F5061092EE061092EF06109261
:10289000F0061092F1061092ED06C0934B0980915C
:1028A0004B098830E1F481E0809354080E94BA0F0C
:1028B0000E944E096093F2067093F3068093F4062B
:1028C0009093F5061092EE061092EF061092F00625
:1028D0001092F1061092ED0682E080934B098091F0
:1028E0004B098930A1F41092EC060E944E090E9417
:1028F0004E096093EE067093EF068093F006909376
:10290000F10687EC8093EB068BE080934B09809176
:102910004B098A30A1F41092EC060E944E090E94E5
:102920004E096093EE067093EF068093F006909345
:10293000F10687EC8093EB068CE080934B09809145
:102940004B098D30A9F481E08093EC060E944E097A
:102950000E944E096093EE067093EF068093F00696
:102960009093F10687EC8093EB068CE080934B0903
:1029700080914B098E30A9F481E08093EC060E948F
:102980004E090E944E096093EE067093EF06809305
:10299000F0069093F10687EC8093EB068BE0809332
:1029A0004B09C0914B098FEF8C0F8230F0F40E94DD
:1029B0004E09C090F206D090F306E090F406F09035
:1029C000F5066C197D098E099F09603D77408105E8
:1029D000910508F4D8C083E0C13009F084E0809309
:1029E0004B098091550880935408C0914B0985EF9D
:1029F0008C0F823008F065C00E944E09C090EE0630
:102A0000D090EF06E090F006F090F1066C197D0989
:102A10008E099F096A3071058105910508F451C03E
:102A2000F090EB066091540870E090E080E00E9426
:102A30009E5F4B015C016F2D70E090E080E00E9492
:102A40009C5F20E030E048E453E40E94F45E9B0188
:102A5000AC01C501B4010E94C1600E94665F609331
:102A600054080E944E096093EE067093EF0680931F
:102A7000F0069093F106FF2019F0FA94F092EB061D
:102A80008091EB0681111DC060E086E00E9436084F
:102A900060E087E00E9436088091EC06882309F404
:102AA000C1C0CB3029F484E080934B091092EC062E
:102AB00080914B098C3029F483E080934B0910926C
:102AC000EC06C0914B098BEF8C0F823008F4AFC03D
:102AD000CC2309F44AC080914C09833009F045C0E9
:102AE000C0905A08D0905B08E0905C08F0905D08B8
:102AF000409058095090590960905A0970905B09AC
:102B0000A7019601C301B2010E940B5E4B015C015B
:102B10008C2F8D7F813019F0C53009F041C120E044
:102B200030E0A901C501B4010E94B46018160CF090
:102B3000D8C020E030E040E450E4C501B4010E9478
:102B4000EA5E87FDD9C0A3019201C701B6010E94C8
:102B5000EA5E87FF0AC020E030E040E051E4C501B2
:102B6000B4010E94EA5E87FDC7C0CF91FF90EF904D
:102B7000DF90CF90BF90AF909F908F907F906F909D
:102B80005F904F9008950E944E09C090EE06D0903D
:102B9000EF06E090F006F090F1066C197D098E09C1
:102BA0009F09653671058105910508F41ECF609176
:102BB0005508623008F419CFC091ED066150770BCB
:102BC000072E000C880B990B0E949E5F6B017C0105
:102BD0006C2F70E090E080E00E949C5F20E030E08D
:102BE00048E951E40E94F45E9B01AC01C701B601C3
:102BF0000E94C16020E030E040E85FE30E940C5E8C
:102C00000E946D5F609354080E944E096093EE0627
:102C10007093EF068093F0069093F106CF5FC09318
:102C2000ED06E3CE10924B0910924C094ACF209149
:102C300058093091590940915A0950915B096091A6
:102C40005A0870915B0880915C0890915D080E9421
:102C50000B5E2B013C0120E030E0A9010E94B46032
:102C6000181624F077FA709477F87094F090EB06C9
:102C70006F2D70E090E080E00E949C5F20E030E0EB
:102C800048E453E40E94F45E4B015C0120E030E034
:102C900040E251E40E94C160A30192010E94B4602D
:102CA00087FD16CF6091EA066451770B072E000C62
:102CB000880B990B0E949E5FA50194010E94C16040
:102CC00020E030E040EA51E40E940C5E0E946D5F1B
:102CD00060935408FF2009F4FBCEFA94F092EB06BF
:102CE000FACE20E030E040E450ECC501B4010E948F
:102CF000B46018160CF027CF62E370E080E090E03B
:102D00000E941C0980E00E94AA104090580950902F
:102D1000590960905A0970905B09A7019601C30197
:102D2000B2010E940B5E4B015C0120E030E0A90182
:102D30000E94B4601816BCF420E030E040E450E497
:102D4000C501B4010E94EA5E87FF17C060E086E01B
:102D50000E94360860E087E00E94360810924B0916
:102D600010924C0902CF20E030E040E450ECC50165
:102D7000B4010E94B46018164CF3A3019201C7017C
:102D8000B6010E94EA5E87FFF0CE20E030E040E02E
:102D900051E4C501B4010E94EA5E87FDD7CFE5CEBC
:102DA00020E030E0A901C501B4010E94B46018160A
:102DB00014F520E030E040E450E4C501B4010E9485
:102DC000EA5E87FD22C0A3019201C701B6010E94FD
:102DD000B46018160CF0C9CEA3019201C701B60168
:102DE0000E940B5E20E030E040E051E40E94EA5E89
:102DF00087FFBBCE0AC020E030E040E450ECC501C4
:102E0000B4010E94B4601816F4F662E370E080E04A
:102E100090E00E941C0980E00E94AA10809058094E
:102E200090905909A0905A09B0905B09A7019601AA
:102E3000C501B4010E940B5E2B013C0120E030E093
:102E4000A9010E94B4601816F4F420E030E040E4D8
:102E500050E4C301B2010E94EA5E87FD77CFA5016D
:102E60009401C701B6010E94B46018160CF07DCE23
:102E7000A5019401C701B6010E940B5E20E030E07D
:102E800040E051E488CF20E030E040E450ECC30162
:102E9000B2010E94B46018160CF458CFE0CFFB01C9
:102EA00001900020E9F73197AF01461B570BDC0179
:102EB000ED91FC910280F381E02D1994EF92FF9245
:102EC0000F931F93CF93DF938C017B01D0E0C0E081
:102ED000F701EC0FFD1F6491662361F0D801ED91BD
:102EE000FC910190F081E02DC8011995892B11F01A
:102EF0002196EECF6BED72E0C8010E944F178C0F48
:102F00009D1FDF91CF911F910F91FF90EF9008953A
:102F1000CF93DF93EC01FE0164918091920990912F
:102F20009309662369F02091940920FF07C0DC0112
:102F3000ED91FC910190F081E02D19952196EBCF58
:102F40006BED72E0DF91CF910C944F178F929F92AF
:102F5000AF92BF92EF92FF920F931F93CF93DF93A5
:102F6000CDB7DEB7A1970FB6F894DEBF0FBECDBFC9
:102F70007C01FA01CB0119A2223008F42AE08E016B
:102F80000F5D1F4F822E912CB12CA12CBF01A501EA
:102F900094010E94DA5DF901CA016A300CF5605DA6
:102FA000D8016E938D01232B242B252B79F790E0EC
:102FB00080E0109721F0BD01C7010E944F17A19634
:102FC0000FB6F894DEBF0FBECDBFDF91CF911F913A
:102FD0000F91FF90EF90BF90AF909F908F900895CA
:102FE000695CDECFCF92DF92EF92FF92CF93DF93B7
:102FF0002091940920FF22C0C0919209D091930999
:103000006C01990FEE08FF082AE0B701A601F7FE50
:103010000CC06DE2CE010E945D0644275527BA011F
:103020004C195D096E097F092AE0CE01DF91CF912D
:10303000FF90EF90DF90CF900C94A617DF91CF9187
:10304000FF90EF90DF90CF9008958F929F92AF9274
:10305000BF92CF92DF92EF92FF920F931F93CF9385
:10306000DF937C018B016C0182E0C80ED11C47010B
:10307000E5E08E0E911CD0E0C0E0F60141916F01B9
:1030800050E070E060E02AE0C8010E94A6175C01F1
:103090006EE2C8010E945D068A0D9B1DC80FD91FF4
:1030A000C814D90451F7F701458150E070E060E0A1
:1030B0002AE0C8010E94A6178C0F9D1FDF91CF91B7
:1030C0001F910F91FF90EF90DF90CF90BF90AF9046
:1030D0009F908F9008952091940920FF09C0009738
:1030E00039F0BC0180919209909193090C944F178B
:1030F00008950F931F93CF93DF93EC010E944F1716
:103100008C016BED72E0CE010E944F17800F911F72
:10311000DF91CF911F910F9108952091940920FF85
:1031200007C0BC0180919209909193090C94791881
:1031300008956F927F928F929F92AF92BF92CF929B
:10314000DF92EF92FF920F931F93CF93DF93CDB750
:10315000DEB7C054D1090FB6F894DEBF0FBECDBFA5
:103160006C014B011AA219A28EE1FE01B396DF0198
:10317000282F1D922A95E9F71A821982B097DF014C
:103180001D928A95E9F7F60101900020E9F7C60142
:103190008E1B9F0B9C012B5E3F4F79018E010F5DB3
:1031A0001F4F12161306D4F4390175946794B12C8D
:1031B000A12C6A147B0491F0F80101900020E9F73A
:1031C0003197E01BF10B7F9748F46FE276E0C8017E
:1031D0000E941F643FEFA31AB30AEBCF44E150E013
:1031E000B601CE0101960E943164BE016F5F7F4F30
:1031F000C8010E941F641E141F040CF55701B594EA
:10320000A794D12CC12CAC14BD0491F0F80101900D
:103210000020E9F73197E01BF10B7F9748F46FE24C
:1032200076E0C8010E941F648FEFC81AD80AEBCF5E
:10323000E0FE05C06FE276E0C8010E941F64B401A1
:10324000C8010E941005C05CDF4F0FB6F894DEBFC6
:103250000FBECDBFDF91CF911F910F91FF90EF90E7
:10326000DF90CF90BF90AF909F908F907F906F90A6
:1032700008952F923F924F925F926F927F928F921A
:103280009F92AF92BF92CF92DF92EF92FF920F93F5
:103290001F93CF93DF9300D0CDB7DEB79B838A8394
:1032A0001B018A017C016C0126E0C20ED11CF701D2
:1032B00081917F01082E000C990B0E941064F70188
:1032C00031978083CE14DF0491F7EA81FB818481FA
:1032D0008154883120F485818154883128F08DE42F
:1032E000EA81FB8184838583EA81FB818181082EC9
:1032F000000C990B815491092AE0289FB001299F65
:10330000700D1124072E000C880B990B0E949E5FF4
:103310004B015C01EA81FB816381605369836581B4
:10332000062E000C770B61547109072E000C880BD8
:10333000990B0E949E5F2BEA3AEA4AE25DE30E9403
:10334000C1602BEA3AEA4AEA5CE30E940C5E6B0138
:103350007C01EA81FB818081082E000C990B81544D
:10336000910924E1289FB001299F700D1124072E97
:10337000000C880B990B0E949E5F2B013C01EA8197
:10338000FB816281660F605670E090E080E00E94F1
:103390009E5F9B01AC01C301B2010E940C5E2B0138
:1033A0003C01EA81FB816481062E000C770B61549D
:1033B0007109072E000C880B990B0E949E5F2BEA67
:1033C0003AEA4AEA5DE30E94C1602BEA3AEA4AE23D
:1033D0005DE30E940C5E9B01AC01C301B2010E943F
:1033E0000C5E20E030E044E353E40E940B5EF80101
:1033F0006083718382839383F9816F2F70E090E003
:1034000080E00E949E5FA50194010E940C5EA701CE
:1034100096010E940C5E20E030E044EB52E40E94F2
:103420000B5EF10160837183828393830F900F9011
:103430000F90DF91CF911F910F91FF90EF90DF9050
:10344000CF90BF90AF909F908F907F906F905F9044
:103450004F903F902F9008950F931F93CF93DF933A
:10346000CDB7DEB760970FB6F894DEBF0FBECDBF05
:10347000242F1A821982FE0133963EE0DF011D924D
:103480003A95E9F78E010F5F1F4F40E00E94EB5A1B
:103490008091940980FF07C0B801809192099091B2
:1034A00093090E944F1760960FB6F894DEBF0FBEC7
:1034B000CDBFDF91CF911F910F9108950F931F936F
:1034C000CF93DF93CDB7DEB760970FB6F894DEBF2A
:1034D0000FBECDBF1A821982FE0133968EE0DF0146
:1034E0001D928A95E9F70E94790A0E94BF0A6091AD
:1034F000100870E06E54784F072E000C880B990B63
:103500000E949E5F8E010F5F1F4F20E040E00E94EF
:10351000EB5AB8018EE197E00E942A646EED72E0EA
:103520008EE197E00E941F640E94790A0E94BF0A00
:1035300080910F088A3030F465EF72E08EE197E0F9
:103540000E941F640E94790A0E94BF0A60910F08BE
:1035500070E090E080E00E949E5F8E010F5F1F4F41
:1035600020E040E00E94EB5AB8018EE197E00E9413
:103570001F646EED72E08EE197E00E941F640E946E
:10358000790A0E94BF0A80910E088A3030F465EFF4
:1035900072E08EE197E00E941F640E94790A0E9407
:1035A000BF0A60910E0870E090E080E00E949E5F8C
:1035B0008E010F5F1F4F20E040E00E94EB5AB801E0
:1035C0008EE197E00E941F646FE276E08EE197E063
:1035D0000E941F640E94C00B0A9734F465EF72E0EA
:1035E0008EE197E00E941F640E94C00BBC01990FFE
:1035F000880B990B0E949E5F8E010F5F1F4F20E08A
:1036000040E00E94EB5AB8018EE197E00E941F64EF
:103610006BE976E08EE197E00E941F640E94B80B90
:103620000A9734F465EF72E08EE197E00E941F6420
:103630000E94B80BBC01990F880B990B0E949E5FEA
:103640008E010F5F1F4F20E040E00E94EB5AB8014F
:103650008EE197E00E941F646BE976E08EE197E0CF
:103660000E941F640E94790A0E94BF0A80910A0882
:103670008A3030F465EF72E08EE197E00E941F64BB
:103680000E94790A0E94BF0A60910A0870E090E0E7
:1036900080E00E949E5F8E010F5F1F4F20E040E0A0
:1036A0000E94EB5AB8018EE197E00E941F6465E525
:1036B00073E08EE197E00E941F648EE197E06096D0
:1036C0000FB6F894DEBF0FBECDBFDF91CF911F9133
:1036D0000F910895CF92DF92EF92FF920F931F9375
:1036E000CF93DF93CDB7DEB760970FB6F894DEBF08
:1036F0000FBECDBF1A821982FE0133968EE0DF0124
:103700001D928A95E9F70E94790A6B017C0120E0FD
:1037100030E041E655E46091860970918709809117
:103720008809909189090E94C1600E946D5FC60E50
:10373000D71EE81EF91EC701B6010E94BF0A60919C
:10374000100870E06E54784F072E000C880B990B10
:103750000E949E5F8E010F5F1F4F20E040E00E949D
:10376000EB5AB8018EEF96E00E942A646EED72E08B
:103770008EEF96E00E941F64C701B6010E94BF0A47
:1037800080910F088A3030F465EF72E08EEF96E09A
:103790000E941F64C701B6010E94BF0A60910F0812
:1037A00070E090E080E00E949E5F8E010F5F1F4FEF
:1037B00020E040E00E94EB5AB8018EEF96E00E94B4
:1037C0001F646EED72E08EEF96E00E941F64C701E9
:1037D000B6010E94BF0A80910E088A3030F465EF6E
:1037E00072E08EEF96E00E941F64C701B6010E944E
:1037F000BF0A60910E0870E090E080E00E949E5F3A
:103800008E010F5F1F4F20E040E00E94EB5AB8018D
:103810008EEF96E00E941F646FE276E08EEF96E0F6
:103820000E941F64C701B6010E94BF0A80910C0864
:103830008A3030F465EF72E08EEF96E00E941F64EC
:10384000C701B6010E94BF0A60910C0870E090E0C9
:1038500080E00E949E5F8E010F5F1F4F20E040E0DE
:103860000E94EB5AB8018EEF96E00E941F646BE94C
:1038700076E08EEF96E00E941F64C701B6010E94B9
:10388000BF0A80910B088A3030F465EF72E08EEF4A
:1038900096E00E941F64C701B6010E94BF0A6091B2
:1038A0000B0870E090E080E00E949E5F8E010F5F49
:1038B0001F4F20E040E00E94EB5AB8018EEF96E0E7
:1038C0000E941F646BE976E08EEF96E00E941F6411
:1038D000C701B6010E94BF0A80910A088A3030F4FD
:1038E00065EF72E08EEF96E00E941F64C701B6019B
:1038F0000E94BF0A60910A0870E090E080E00E9498
:103900009E5F8E010F5F1F4F20E040E00E94EB5A48
:10391000B8018EEF96E00E941F6420E030E0A9011C
:103920006091860970918709809188099091890931
:103930000E94EA5E811106C065E573E08EEF96E0B5
:103940000E941F648EEF96E060960FB6F894DEBF7B
:103950000FBECDBFDF91CF911F910F91FF90EF90E0
:10396000DF90CF9008951F93CF93DF9340917F0D09
:103970005091800D6091810D7091820D4F5F5F4F6E
:103980006F4F7F4F40937F0D5093800D6093810D5B
:103990007093820D843209F493C2E0917D0D8532DB
:1039A00054F48A3019F08D3009F099C2D82FEF30D5
:1039B00068F0C0E0CBC08A32C9F38C3209F08FC204
:1039C00090916A0D982790936A0DF0CF80917C0DAD
:1039D000F0E0E459F24F1082C0916B0DCC2309F452
:1039E0003BC180916C0D282F082E000C330B9FEBF0
:1039F000980F963008F0BCC0275331092295207FDC
:103A000030916D0D832F032E000C990B4FEB430F5C
:103A1000463008F0B6C0C797280F80916A0D28136A
:103A200011C1C0917E0DCC2321F28091830D909124
:103A3000840D01969093840D8093830D80915E0D8B
:103A400090915F0DA091600DB091610D80935A0D22
:103A500090935B0DA0935C0DB0935D0D8091660D0E
:103A60009091670DA091680DB091690D8093620DE2
:103A70009093630DA093640DB093650D80917B0DC1
:103A8000882309F486C0813009F060C080911A0D46
:103A900090911B0DA0911C0DB0911D0D8093160DE2
:103AA0009093170DA093180DB093190D8091220DCE
:103AB0009091230DA091240DB091250D80931E0DA2
:103AC00090931F0DA093200DB093210D80912A0D8E
:103AD00090912B0DA0912C0DB0912D0D8093260D62
:103AE0009093270DA093280DB093290D8091320D4E
:103AF0009091330DA091340DB091350D80932E0D22
:103B000090932F0DA093300DB093310D8091420D05
:103B10009091430DA091440DB091450D80933E0DC1
:103B200090933F0DA093400DB093410D80914A0DAD
:103B300090914B0DA0914C0DB0914D0D8093460D81
:103B40009093470DA093480DB093490D80917C0D43
:103B50008F5F80937C0D10927D0D81E0DA3209F049
:103B600080E080936B0D8C2FDF91CF911F91089592
:103B70008156863018F42755310940CF205331093A
:103B80003DCF3156363018F48755910945CFC0974F
:103B900043CF80913A0D90913B0DA0913C0DB09197
:103BA0003D0D8093360D9093370DA093380DB09353
:103BB000390D80911A0D90911B0DA0911C0DB091A3
:103BC0001D0D8093160D9093170DA093180DB093B3
:103BD000190D80912A0D90912B0DA0912C0DB09173
:103BE0002D0D8093260D9093270DA093280DB09353
:103BF000290D8091320D9091330DA091340DB0912B
:103C0000350D80932E0D90932F0DA093300DB09312
:103C1000310D8091580D9091590D9093570D8093CF
:103C2000560D8091520D9091530DA091540DB0916D
:103C3000550D80934E0D90934F0DA093500DB09362
:103C4000510D84CF8091850D9091860D01969093B2
:103C5000860D8093850DADCE81111BC0ACE6BDE015
:103C600040EE52E09D01F90181919F01882309F402
:103C70004AC1FA019191AF018917A9F3E6EEF2E08A
:103C80008D91882309F443C191918917C9F382E08A
:103C90003BC1E0917B0DE23009F48BCE90916C0D2D
:103CA000992309F486CE20E2E29FF0011124E82B4B
:103CB0003197E932F10508F049CF8827ED59F14EE7
:103CC0008F4F0C94C862A91EC41ED91EF41EFF1E7D
:103CD000391F401F4A1F551FA61DA61DA61DA61D44
:103CE000A61DA61DA61DA61DA61DA61DA61DA61DBC
:103CF000A61DA61DA61DA61DA61DA61DA61DA61DAC
:103D0000A61DA61DA61DA91EBE1EC41ED91EF41EDC
:103D1000FF1E1A1F251F8C1EECE6FDE020E030E0A0
:103D2000A901119180ED810F8A3008F099C0AAE0B5
:103D3000B0E00E94C75D212F110F330B440B550BD0
:103D4000260F371F481F591F2053310941095109B8
:103D5000E8CF0E94470560931A0D70931B0D809366
:103D60001C0D90931D0D0E944E0960935E0D709383
:103D70005F0D8093600D9093610DE8CE81E09134EA
:103D800009F47BC080E079C00E94B90560932A0DD8
:103D900070932B0D80932C0D90932D0D0E944E0946
:103DA0006093660D7093670D8093680D9093690D15
:103DB000CDCE933509F0FDCD80912A0D90912B0D3C
:103DC000A0912C0DB0912D0DB095A0959095819559
:103DD0009F4FAF4FBF4F80932A0D90932B0DA09311
:103DE0002C0DB0932D0DB2CE0E94B9056093320D0B
:103DF0007093330D8093340D9093350DA7CE973586
:103E000009F0D7CD8091320D9091330DA091340DF2
:103E1000B091350DB095A095909581959F4FAF4F7E
:103E2000BF4F8093320D9093330DA093340DB09318
:103E3000350D8CCE0E9447056093420D7093430D63
:103E40008093440D9093450D81CE0E944705609369
:103E50004A0D70934B0D80934C0D90934D0D76CE83
:103E60002093220D3093230D4093240D5093250D64
:103E70006DCE81E091330CF485CF80937E0D66CEBC
:103E80008CE69DE00E94095B99279093590D8093E1
:103E9000580D5CCE0E9447056093520D7093530DF0
:103EA0008093540D9093550D51CE0E944705609319
:103EB0003A0D70933B0D80933C0D90933D0D46CE93
:103EC00010927D0D10927C0D10926A0D82E080930D
:103ED0007B0D10926B0D10927E0DC0E044CEEE3043
:103EE00040F491E09E0F90937D0DF0E0E459F24F85
:103EF0008083C0916B0DC111F0CF90916A0D89271D
:103F000080936A0D30CE81E080937B0D1FCE10929E
:103F10007B0D1CCEAF92BF92CF92DF92EF92FF92B9
:103F20000F931F93CF93DF9300D01F92CDB7DEB7CF
:103F30008C016B017A01809199098333E9F45B016B
:103F40006801C40ED51EC016D106A9F10E94EC0B63
:103F50008FE00E94F70B812F0E94F70B802F0E94A9
:103F6000F70B0F5F1F4F80E00E94F70BF501819365
:103F70005F010E94E20BE7CF843369F50E94EC0BEE
:103F800019830A838F2D8F778B83EC8264E070E036
:103F9000CE0101960E94C80BA70170E060E0C60147
:103FA0000E941864E114F10421F0B701C6010E94D7
:103FB000C80B0E94E20BC7010F900F900F900F905B
:103FC000DF91CF911F910F91FF90EF90DF90CF90F5
:103FD000BF90AF9008950E94EC0B0F3F110509F0C0
:103FE00030F419820A831B8263E070E0D1CF17FDA1
:103FF0000BC019820A8333E0169507953A95E1F7CD
:10400000007E08600B83F0CFC80126E09695879567
:104010002A95E1F7807E19830A830115104C18F464
:1040200080618B83E1CF8861FCCFCF93DF931F92B8
:10403000CDB7DEB720919A0930E0322F2227260F24
:10404000371F90E0982F882741E050E0BE016F5F56
:104050007F4F820F931F0E948A1F89810F90DF91EB
:10406000CF910895CF93C82F462F61E070E00E9452
:104070000A0D61E070E08C2F0E9415208111F9CFAC
:10408000CF910895CF93C82F80E591E00E94440519
:1040900068E070E08C2FCF910C943220CF93C82F22
:1040A00080E591E00E94440560E170E08C2FCF91A3
:1040B0000C943220CF93DF93EC01888D883020F46C
:1040C0000E944E2088E0888FDF91CF91089563E0B1
:1040D00070E00C941520CF93C82F80E591E00E94EA
:1040E00044058C2FCF910C946720EF92FF920F9391
:1040F0001F93CF93DF937C0180919909D4E08333A0
:1041000009F0D8E008E119E0C0E0F801219131910F
:104110008F01F701848195812817390729F0CF5F36
:10412000DC13F3CF80E006C08C2F0E946B2084311B
:10413000B1F781E0DF91CF911F910F91FF90EF9048
:104140000895CF93DF93EC018C858830D0F40E94E2
:104150006B20843189F0882379F0883169F021E07F
:104160008C3159F4E881F9810084F185E02DCE018C
:10417000199521E0892B09F420E0822FDF91CF915E
:10418000089580E0FBCFCF92DF92EF92FF92CF9322
:10419000DF93EC018C85883068F40E9442200E94F5
:1041A0004E096B017C018C850E946B20811109C036
:1041B00088E08C87DF91CF91FF90EF90DF90CF90D8
:1041C000089561E070E080E090E00E941C090E9488
:1041D0004E09AB01BC014C195D096E097F098D8543
:1041E0009E85B0E0A0E0481759076A077B07D8F220
:1041F0008C850E944E20DCCFCF93FC01C08D80E5E2
:1042000091E00E94440560E270E08C2F0E94322011
:1042100062E070E08C2F0E94152084FD16C062E0E1
:1042200070E08C2F0E94152083FF0AC048E162E0F5
:1042300070E08C2F0E940A0D80E090E0CF910895ED
:1042400080E591E00E944405E3CF40E162E070E048
:104250008C2F0E940A0D81E0F0CFCF93DF931F9245
:10426000CDB7DEB741E050E0BE016F5F7F4F90E019
:1042700080E00E948A1F89810F90DF91CF9108957D
:10428000CF93DF93C4E1D0E00E942D21882361F019
:1042900061E070E080E090E00E941C092197A1F7A6
:1042A00080E0DF91CF91089581E0FBCFCF92DF9244
:1042B000EF92FF921F93CF93DF93CDB7DEB76A974C
:1042C0000FB6F894DEBF0FBECDBFFA0129EC32E085
:1042D0003A8329835FEF5B835C835D831E8238872B
:1042E0002F83C280D380E480F580C986DA86EB868E
:1042F000FC86FB0142815381648175814F87588B15
:10430000698B7A8B3C8B2B8BFC0182819381A481FE
:10431000B5818D8B9E8BAF8BB88F80919B0981115E
:104320009BC060E372E080E090E00E941C091FB730
:10433000F89480919809811127C0E3EEF8E0849108
:10434000EDE9F8E09491E82FF0E0EE0FFF1FE25B5B
:10435000F74FA591B491EC91E92321F461E085E355
:104360000E94360861E085E30E94A9088CB580614F
:104370008CBD8CB580648CBD61E084E30E94A9088B
:1043800061E083E30E94A908809198098F5F809380
:1043900098091FBFE8EBF8E0E491F0E0EE0FFF1F93
:1043A000EC5CF74F859194919093970980939609CF
:1043B000E2E7F8E0E491E093950961E08AE00E9489
:1043C000A9080E94E20B80E591E00E94440584E385
:1043D0008093990980E80E94AC0C0E9440218823B8
:1043E00009F46EC088E00E94AC0C0E942D21883038
:1043F00009F066C080E10E94AC0C0E942D21803142
:1044000009F05EC080E00E94AC0C0E942D21182FA4
:10441000811156C041E050E0BE01675E7F4F8FE1E1
:1044200090E00E948A1F898D833009F049C080E4A2
:1044300080939A0942E06EE170E0812F0E940A0D9C
:1044400042E06FE170E0812F0E940A0D1F5F18307B
:1044500089F781E080939B0980E591E00E94440503
:1044600046E050E06CE072E089E090E00E94FE0BD4
:1044700044E050E0BE016B5E7F4F8FE090E00E9411
:10448000FE0B44E050E0BE01675F7F4F81E090E0AB
:104490000E94FE0B44E050E0BE016D5F7F4F85E05F
:1044A00090E00E94FE0B8F859889A989BA89809334
:1044B000E30C9093E40CA093E50CB093E60C69C078
:1044C00087E38093990980E80E94AC0C0E94402108
:1044D000882329F188E00E94AC0C0E942D218830AD
:1044E000F1F480E10E94AC0C0E942D21182F803144
:1044F000B1F480E00E94AC0C0E942D2181110FC00C
:1045000041E050E0BE01675E7F4F89E390E00E948A
:104510008A1F898D843019F410939A099ACF83E306
:104520008093990980E80E94AC0C0E944021882366
:1045300071F180E10E94AC0C0E942D21803139F58F
:1045400082E10E94AC0C0E942D21823101F580E0B5
:104550000E94AC0C0E942D21811119C084E080932F
:104560009A0915E51A8F41E050E0BE01665E7F4F63
:104570008BE190E00E94FE0B198F41E050E0BE01FC
:10458000675E7F4F8AE190E00E94FE0B62CF10923F
:1045900099096A960FB6F894DEBF0FBECDBFDF91C2
:1045A000CF911F91FF90EF90DF90CF9008951F93D0
:1045B000CF93DF931F92CDB7DEB7182F80E591E040
:1045C0000E944405812F0E94BF0C27E0129FF0013A
:1045D0001124E052F74F22813381377041E050E0DF
:1045E000BE016F5F7F4F820F931F0E948A1F8981D8
:1045F0000F90DF91CF911F910895FC01808D88303D
:1046000040F4218D328D232B21F00E94D72290E09F
:1046100008958FEF9FEF0895CF93DF93FC012485DA
:10462000283028F08FEF9FEFDF91CF910895EC01B4
:104630000190F081E02D0084F185E02D1995892B02
:1046400089F38C850E94D72290E0EECFDA01E091C9
:104650009A09F0E0FE2FEE27E60FF71F90E0982F63
:104660008827A901BD018E0F9F1F0C948A1F8F926E
:104670009F92AF92BF92CF92DF92EF92FF920F93F1
:104680001F93CF93DF93CDB7DEB760970FB6F89443
:10469000DEBF0FBECDBF7C0190919909911115C06D
:1046A00018E0812F60960FB6F894DEBF0FBECDBF25
:1046B000DF91CF911F910F91FF90EF90DF90CF90FE
:1046C000BF90AF909F908F90089508E0933309F4C6
:1046D00004E06B0180E591E00E9444059E012F5F9C
:1046E0003F4F5901490110E0812F0E946720F401DA
:1046F00081934F018823C1F01F5F0113F5CF00E0C4
:10470000F50181915F018D3149F0883139F08A518D
:10471000823020F00F5F1013F3CFC2CF60E170E062
:10472000802F0E943220102FA12EB12CF501EE0F08
:10473000FF1FE85EF64F1182108283EE93E001972F
:10474000F1F742E870E060E0812F0E940A0D4FEF20
:1047500062E070E0812F0E940A0DB601C114D104FD
:1047600091F4809100029091010201968115F0EC84
:104770009F0708F45CC0909301028093000260914F
:10478000000270910102812F0E94F40C86E0E4E2A5
:10479000F2E0DE01199601900D928A95E1F7F7019A
:1047A00083818F778C8784818D8785818E87A70110
:1047B0004E5F5F4F24E030E06CE070E0812F0E949C
:1047C000CD0CB601812F0E94DE0C26E030E0AE0158
:1047D000475F5F4F66E070E0812F0E94CD0C61E083
:1047E00070E0812F0E94322027E02A9DC0012B9D7E
:1047F000900D11249C012052374F7901F90111824B
:10480000108222E030E0AE01415F5F4F68E270E06D
:10481000812F0E9426238F8598899827892798279A
:10482000F701938382831682158214823ACF80E047
:1048300090ECA1CFCF92DF92EF92FF920F931F9354
:10484000CF93DF9300D000D0CDB7DEB78C016B01E2
:104850007A01FC01808D883010F40E944E2089EC92
:1048600092E09A838983F60182819381A481B58144
:104870008B839C83AD83BE83B701CE0101960E94DA
:104880003723F801808F8830A0F4F586E486128EF5
:10489000118E81E026960FB6F894DEBF0FBECDBF15
:1048A000DF91CF911F910F91FF90EF90DF90CF900C
:1048B000089580E0EFCF7F928F929F92AF92BF9248
:1048C000CF92DF92EF92FF920F931F93CF93DF93DC
:1048D0001F921F92CDB7DEB7782E8B014A01590186
:1048E00022E030E0AE014F5F5F4F64E270E00E9473
:1048F0002623E980FA80FE24EF24FE24E00EF11E38
:104900009701377040919909072D10E0433309F062
:1049100042C0085F1F4F102F0027110F110F110FFA
:10492000C901800F911F4733C9F1A9014A0D5B1DD1
:104930004130584098F160E078E06B01C21AD30A28
:10494000A601B4010E94FE0BA5014C195D09B4013A
:104950006C0D7D1DC8010E94FE0BEA0CFB1CF98248
:10496000EA8222E030E0AE014F5F5F4F64E270E028
:10497000872D0E94CD0C0F900F90DF91CF911F914A
:104980000F91FF90EF90DF90CF90BF90AF909F90EE
:104990008F907F900895005F1F4FBDCFA501B40198
:1049A000DACFEF92FF921F93CF93DF931F921F9264
:1049B000CDB7DEB7182F22E030E0AE014F5F5F4F7A
:1049C00060E270E00E942623E980FA80FE24EF2452
:1049D000FE2422E030E0AE014F5F5F4F60E270E006
:1049E000812F0E94262389819A81982789279827D9
:1049F000E816F90689F487E0189FF0011124E052C7
:104A0000F74FF582E482C7010F900F90DF91CF91AD
:104A10001F91FF90EF9008957C01DBCF1F93CF9300
:104A2000DF93182F80E591E00E944405812F0E94BA
:104A3000D124EC01812F0E946720873121F08C3135
:104A400011F0D0E0C0E0CE01DF91CF911F91089529
:104A5000CF93DF93EC018C85883060F40E946B204B
:104A6000873111F08C3131F48C850E940E2581152F
:104A7000984088F3DF91CF910895FC0184858830B8
:104A800010F40C940E2590E080E00895CF92DF9210
:104A9000EF92FF921F93CF93DF93182F7B01EA01D0
:104AA0004130584010F0C0E0D8E080E591E00E942D
:104AB0004405812F0E94D1246C01812F0E94672020
:104AC000873111F08C3121F5CC16DD0670F380E5CD
:104AD00091E00E9444059E01A70170E060E0812FF3
:104AE0000E945B2460E270E0812F0E94322062E02D
:104AF00070E0812F0E94152084FD0DC0812F0E943F
:104B000067208823B9F080E591E00E944405EFCF4B
:104B1000D0E0C0E0DCCF40E162E070E0812F0E9495
:104B20000A0DCE01DF91CF911F91FF90EF90DF90A2
:104B3000CF900895D0E0C0E0F4CF0F931F93CF93B0
:104B4000DF938C01EA01FC018485883048F40E94DF
:104B50004625892B39F481E090E0F8019383828324
:104B6000D0E0C0E0CE01DF91CF911F910F91089569
:104B70009F92AF92BF92CF92DF92EF92FF920F93EC
:104B80001F93CF93DF938C015B01942EE52EFC01E4
:104B9000C688D788F08C80E591E00E9444058F2D6F
:104BA0000E94D124C92DDE2D8C179D0708F4EC013D
:104BB0009E01A501B6018F2D0E945B24F801868914
:104BC00097898C0F9D1F978B868BCE01DF91CF919C
:104BD0001F910F91FF90EF90DF90CF90BF90AF901B
:104BE0009F900895FF920F931F93CF93DF931F928F
:104BF0001F92CDB7DEB7F82E22E030E0AE014F5F56
:104C00005F4F66E270E00E94262309811A81102717
:104C10000127102722E030E0AE014F5F5F4F66E2D0
:104C200070E08F2D0E94262389819A8198278927F9
:104C300098270817190749F4C8010F900F90DF91C2
:104C4000CF911F910F91FF9008958C01E3CF1F9397
:104C5000CF93DF93182F87E0189FE0011124C052F3
:104C6000D74F88819981009761F480E591E00E9497
:104C70004405812F0E94F2252E81821B9109998380
:104C80008883DF91CF911F9108959F92AF92BF9239
:104C9000CF92DF92EF92FF920F931F93CF93DF9308
:104CA000EC017B0180919909811121C01B821A823C
:104CB00088EE93E0A0E0B0E08C839D83AE83BF8359
:104CC0008BE992E09983888388E08C8788EE93E073
:104CD0009E878D87CE01DF91CF911F910F91FF901D
:104CE000EF90DF90CF90BF90AF909F90089534E009
:104CF000932E833311F028E0922E88E1C82E89E0AC
:104D0000D82E10E098E0B92EA12CD6012D913D911E
:104D10006D01F701848195812817390791F4812F5E
:104D20000E946B20082F873111F08C3139F5812FCB
:104D30000E942726892B59F50C3119F4812F0E94E6
:104D400042201F5F9112E1CFA11008C0D701ED9161
:104D5000FC910084F185E02DC70119951B821A8210
:104D600088EE93E0A0E0B0E08C839D83AE83BF83A8
:104D70008BE992E099838883BC86A8CF843149F07F
:104D80008111DFCFF601329711821082DACFB12E76
:104D9000D8CFAA24A394D5CF8F929F92AF92BF92DF
:104DA000CF92DF92EF92FF920F931F93CF93DF93F7
:104DB000CDB7DEB72F970FB6F894DEBF0FBECDBFCD
:104DC0005C014B017A01809199098823C9F104E0C3
:104DD000833309F008E0B501CE0101960E94452613
:104DE00088E1C82E89E0D82E10E0F601219131919A
:104DF0006F01F501848195812817390751F4812FBE
:104E00000E946B20873129F4A701B401812F0E94F1
:104E100046251F5F0113E9CFC7012F960FB6F894FF
:104E2000DEBF0FBECDBFDF91CF911F910F91FF90DD
:104E3000EF90DF90CF90BF90AF909F908F900895AC
:104E4000F12CE12CE9CFFC018485883010F40C941E
:104E5000272690E080E008954F925F927F928F9294
:104E60009F92AF92BF92CF92DF92EF92FF920F93F9
:104E70001F93CF93DF931F921F92CDB7DEB7782E8B
:104E80006B014A01A82EB12C27E0829FC00111249A
:104E9000FC01E052F74F7F010081118180E591E034
:104EA0000E9444050815190554F4872D0E94F22527
:104EB000F70126818C01021B110911830083011562
:104EC000110519F5872D0E946720843159F0882338
:104ED00049F001E010E08C3111F410E000E0119590
:104EE00001951109C8010F900F90DF91CF911F918B
:104EF0000F91FF90EF90DF90CF90BF90AF909F9079
:104F00008F907F905F904F900895801691060CF4DB
:104F1000840187E08A9DF0018B9DF00D1124E05201
:104F2000F74FE280F380C114D10451F12701F7E07B
:104F30005F22872D0E94BF0C840D951D2091990939
:104F4000273309F453C09801240D351D2130384012
:104F500008F44CC020E038E0490184189508A40109
:104F6000B6010E948A1F2601480C591C6801C81806
:104F7000D908872D0E94BF0CA601B2010E948A1F8A
:104F8000E00EF11E87E08A9DF0018B9DF00D11244B
:104F9000E052F74FF382E28220813181201B310BF6
:104FA000318320838681800F912F911D8A3F910547
:104FB00010F4232BF1F487E08A9DF0018B9DF00D16
:104FC0001124E052F74F1682F982EA8222E030E0A3
:104FD000AE014F5F5F4F68E270E0872D0E94CD0CFD
:104FE00060E470E0872D0E9432207CCFA801B601DA
:104FF000C5CF868377CFCF93DF93FC01218D328D90
:105000002115310529F48FEF9FEFDF91CF9108959E
:10501000EC01808D4217530708F0A9010E942C274C
:105020001816190684F7298D3A8D281B390B3A8FEB
:10503000298FEBCF0F931F93CF93DF931F92CDB7A1
:10504000DEB7FC01218D328D232B41F48FEF9FEFD2
:105050000F90DF91CF911F910F9108958C0141E046
:1050600050E0BE016F5F7F4FFC01808D0E942C27B6
:10507000181619065CF7F801818D928D0197928FB1
:10508000818F898190E0E4CFCF93DF931F92CDB7DA
:10509000DEB741E050E0BE016F5F7F4FFC018485C9
:1050A0000E942C271816190634F4898190E00F907D
:1050B000DF91CF9108958FEF9FEFF9CFFC018485A9
:1050C000883010F40C942C2790E080E008958F92A3
:1050D0009F92AF92BF92CF92DF92EF92FF920F9387
:1050E0001F93CF93DF9300D000D000D01F92CDB795
:1050F000DEB790919909911115C018E0812F2A9679
:105100000FB6F894DEBF0FBECDBFDF91CF911F91D8
:105110000F91FF90EF90DF90CF90BF90AF909F9056
:105120008F90089528E0F22E933311F494E0F92E35
:105130006B01082F80E591E00E9444059E012F5FDE
:105140003F4F5901490110E0812F0E946720F4016F
:1051500081934F018823C1F01F5FF112F5CFF12C2D
:10516000F50191915F019D3149F0983139F09A51E3
:10517000923020F0F3941F11F3CFBFCF60E170E0C5
:105180008F2D0E9432201F2DE12EF12CF701EE0F02
:10519000FF1FE85EF64F1182108283EE93E00197C5
:1051A000F1F7402F70E060E0812F0E940A0D4FEF71
:1051B00062E070E0812F0E940A0DB601CD2889F4CB
:1051C000809100029091010201968115F0EC9F07F9
:1051D00098F1909301028093000260910002709117
:1051E0000102812F0E94F40C61E070E0812F0E9487
:1051F000322027E02E9DC0012F9D900D11249C018F
:105200002052374F7901F9011182108222E030E0FB
:10521000AE01475F5F4F68E270E0812F0E94262356
:1052200089859A85982789279827F7019383828310
:1052300016821582148262CF80E090ECCACF0F9361
:105240001F93CF93DF93EC018B01888D883010F48E
:105250000E944E20B80182E00E946728888F883023
:1052600050F41D870C871A8E198E81E0DF91CF9143
:105270001F910F91089580E0F9CF0F931F93CF9363
:105280008C01FC016481758181E20E946728C82F2E
:105290008830F8F480E591E00E9444058C2F0E944C
:1052A0006720833131F08C2FCF911F910F910C9497
:1052B000422062E070E08C2F0E943220F80184814D
:1052C0009581EC2FF0E0EE0FFF1FE85EF64F918323
:1052D0008083CF911F910F910895CF92DF92EF922B
:1052E000FF921F93CF93DF93EC017B016A018C85C2
:1052F000883048F40E946B20882319F08C850E9426
:10530000422088E08C87F70182819381A481B58156
:105310000097A105B10551F490E080E0DF91CF91B5
:105320001F91FF90EF90DF90CF9008958F3F9F4F98
:10533000AF4FBF4F89F370E060E081E20E946728C1
:10534000182F8C87883040F780E591E00E94440553
:10535000A7014E5F5F4F24E030E06CE070E0812FEA
:105360000E94CD0CB601812F0E94DE0C64E070E03B
:10537000812F0E9432200E944E096B017C018C8596
:105380000E946B20873111F18C3101F1882321F2C9
:105390000E944E09AB01BC014C195D096E097F09E1
:1053A0008D859E85B0E0A0E084179507A607B70716
:1053B00038F061E070E080E090E00E941C09DFCFEF
:1053C0008C850E944E2088E08C87A6CF81E090E0FB
:1053D000A5CF0F931F93CF93DF931F921F92CDB74B
:1053E000DEB7FC0124852830E0F48C0180E591E0F3
:1053F0000E94440522E030E0AE014F5F5F4F60E164
:1054000070E0F80184850E94262389819A8198277B
:10541000892798270F900F90DF91CF911F910F91BF
:10542000089590E080E0F6CF0F931F93CF93DF9322
:105430001F921F92CDB7DEB7FC0124852830E0F41F
:105440008C0180E591E00E94440522E030E0AE014D
:105450004F5F5F4F64E070E0F80184850E9426236F
:1054600089819A819827892798270F900F90DF913B
:10547000CF911F910F91089590E080E0F6CF0F93A8
:105480001F93CF93DF9300D000D01F921F92CDB710
:10549000DEB78C01D80159964D915C915A97411510
:1054A000510551F0ED91FC91048CF58DE02D70E0EB
:1054B00060E0C8011995EECFF801808D0E94272683
:1054C000892BB1F148E050E0BE016F5F7F4FD801FA
:1054D00058968C910E942C2718161906F4F4D801BE
:1054E000509684E0FE01319601900D928A95E1F785
:1054F0008D8190E0982F88272E81820F911DF801D1
:10550000958B848B8F81282F30E0322F222788853E
:10551000820F932F911D928F818F28960FB6F8944A
:10552000DEBF0FBECDBFDF91CF911F910F910895C8
:1055300090E080E0F2CF4F925F926F927F928F92D5
:105540009F92AF92BF92CF92DF92EF92FF920F9312
:105550001F93CF93DF93CDB7DEB763970FB6F89461
:10556000DEBF0FBECDBF7C016B013A01FB0120E025
:1055700090E080E06AE03191332309F461C040EDAE
:10558000430F4A3008F04DC0689FA001699F500D3D
:105590001124CA01C097830F911D37FD9A958F3F43
:1055A000910549F340F3F70142815381648175818C
:1055B0008091EF0C9091F00CA091F10CB091F20C55
:1055C000481759076A077B0709F40DC28701085F6E
:1055D0001F4F0E944E096F7077277C5FC8010E94A1
:1055E0001F29813009F004C289EC92E09A838983F3
:1055F000F70182819381A481B5818B839C83AD83E4
:10560000BE8345E350E0BE016F5F7F4FC8010E943B
:10561000750D892BA9F5D12CC12CC8010E945A20E7
:1056200017C03E3209F0BFCF233009F4BCCFD301FD
:10563000A20FB11D12968C932F5F90E080E09BCF5C
:10564000233009F0B0CFF3018583CC24C394D12C4F
:10565000C60163960FB6F894DEBF0FBECDBFDF91D3
:10566000CF911F910F91FF90EF90DF90CF90BF905F
:10567000AF909F908F907F906F905F904F90089524
:105680000E944E09F7017783668342E050E0B7013C
:105690006A5F7F4FC8010E94B82581E090E09A833D
:1056A000898342E050E0BE016F5F7F4FC8010E94D6
:1056B000B82580E091E09A83898342E050E0BE0102
:1056C0006F5F7F4FC8010E94B8251A82198242E09D
:1056D00050E0BE016F5F7F4FC8010E94B82542E0D5
:1056E00050E0BE016F5F7F4FC8010E94B82542E0C5
:1056F00050E0BE016F5F7F4FC8010E94B825560180
:10570000F6018081882301F16501F60181912F0165
:10571000882311F08E32B1F446018A189B081814C0
:10572000190474F48D8641E050E0BE01635F7F4F41
:10573000C8010E94B825A401B501C8010E94B8257E
:105740005201DECF6201E1CF1D8641E050E0BE0193
:10575000635F7F4FC8010E94B825C12CDD24D3941C
:10576000DA82C98242E050E0BE016F5F7F4FC8011C
:105770000E94B825DA82C98242E050E0BE016F5F24
:105780007F4FC8010E94B825C8010E94FC20892BC8
:1057900009F441CFF3E0AF2EB12C230122E0420EF9
:1057A000511CD4C0F7014281538164817581808D81
:1057B000918DA28DB38D481759076A077B0709F0B1
:1057C00008C1848D958DC59709F003C181A192A16F
:1057D0005DEFC52EDD24DA940C970CF4ADC04CE0DF
:1057E00050E0BE016F5F7F4FC8010E94FB278B8195
:1057F0009C819827892798279A8B898BF701468166
:10580000578129813A814217530709F0E7C097FF72
:10581000E5C08F7092703BEFC32EDD24DA94892BA4
:1058200009F08AC06F8078847624672476242AEF72
:10583000C22EDD24DA946114710409F47DC0D12CE8
:10584000C12C8D819E81982789279827C816D90653
:10585000F8F441E050E0BE01635F7F4FC8010E9451
:10586000FB274D85442331F050E070E060E0C80133
:105870000E94FB278D858111ECCF44E050E070E061
:1058800060E0C8010E94FB27FFEFCF1ADF0AD9CFE3
:10589000912C812C41E050E0BE016D5E7F4FC8012C
:1058A0000E94FB274B89842F807C09F06CC0442325
:1058B00031F050E070E060E0C8010E94FB278B8966
:1058C0008111E8CF42E050E0BE01615F7F4FC80127
:1058D0000E94FB2742E050E0BE01635F7F4FC8019A
:1058E0000E94FB2744E050E070E060E0C8010E94A5
:1058F000FB2742E050E0BE016F5E7F4FC8010E946F
:10590000FB278F85988949895A898115914009F02B
:1059100043C0CD84DE84DC24CD24DC2481E0C816A1
:10592000D104D1F54115544009F04AC044E050E09B
:10593000B201C8010E94FB2721E0A21AB10809F4B4
:105940006CCEFFEFCF16DF0609F067CE0E944E093E
:105950003B014C01C8010E943F2A181619060CF49D
:1059600021CF0E944E09661977098809990969387B
:1059700073418105910548F562E370E080E090E0B5
:105980000E941C09E7CF41E050E070E060E0C801F0
:105990000E94FB271B8A93CF54274527542770E08A
:1059A00060E0C8010E94FB27FFEF8F1A9F0A68146E
:1059B000790409F06FCF96EFC92EDD24DA94BCCFBD
:1059C000E7EFCE2EDD24DA94B7CFCC24CA94DC2CBA
:1059D000B3CF6EEFC62EDD24DA94AECF4CEFC42EDB
:1059E000DD24DA94A9CF8EEFC82EDD24DA9430CEF0
:1059F000D12CC12C2DCECF92DF92EF92FF920F933C
:105A00001F93CF93DF93CDB7DEB7AF970FB6F89460
:105A1000DEBF0FBECDBF7C016A0109EC12E01A8324
:105A200009831C861B8688EE93E0A0E0B0E08D879A
:105A30009E87AF87B88B8EE292E09A878987188F0E
:105A40000F8B198E1A8E1B8E1C8E88E089A31BA7C4
:105A50000AA71CA61DA61EA61FA68091E30C909166
:105A6000E40CA091E50CB091E60C8EA39FA3A8A72F
:105A7000B9A78B839C83AD83BE8318861F82AE013A
:105A8000465D5F4FCE0101960E949B2A81309105B1
:105A9000B1F4D701ED91FC910488F589E02D1DA3A7
:105AA0000CA38CA59DA5AEA5BFA58EA39FA3A8A75B
:105AB000B9A7A601BE016C5D7F4FC7011995AF96CE
:105AC0000FB6F894DEBF0FBECDBFDF91CF911F910F
:105AD0000F91FF90EF90DF90CF900895CF92DF92DB
